:100000000C94F9020C94BA1B0C94931B0C942703C8
:100010000C9427030C9427030C9427030C942703B8
:100020000C9427030C9427030C947C1D0C94391C0E
:100030000C94711D0C9427030C9427030C94270334
:100040000C94491B0C9427030C94071C0C94E11B83
:100050000C9427030C94811C0C9427030C94270305
:100060000C9427030C94270308000000BE92244937
:10007000123EABAAAA2ABECDCCCC4C3E00000080DA
:10008000BEABAAAAAA3E00000000BF000000803F4D
:100090000000000000084178D3BB4387D1133D190D
:1000A0000E3CC3BD4282AD2B3E68EC8276BED98F3A
:1000B000E1A93E4C80EFFFBE01C4FF7F3F0000007E
:1000C00000004E414E494E495459494E46CDCCCC84
:1000D0003D0AD7233C17B7D13877CC2B329595E61C
:1000E000241FB14F0A000020410000C84200401CFC
:1000F0004620BCBE4CCA1B0E5AAEC59D744B636FE6
:1001000075706C65005246576972656C005468657D
:10011000726D69730044697361626C6500C10000AF
:10012000ECD8B29D9CC3EC143D51654F3B14484D37
:10013000524D00484D50432C00484D504E00484D04
:1001400050442C302C00484D504F00554349442C0E
:100150004865617465724D657465722C3230323653
:10016000303630312D686D3100484D4C442C0048FC
:100170004D4C422C00484D414C00484D464E2C0001
:100180000EF0E10006F00000000000000080400AD0
:10019000D7A33C0000A04000327F7F7F7F460064F1
:1001A00010FF640D0A0B0064C8006450726F626532
:1001B00020200000000000000100D8FF38FF0000F0
:1001C000FB7E403A423962390959CC3300401C4623
:1001D00000040E1F04040400000404041F0E0400A5
:1001E000070F1F1F1F1F1F1F1F1F1F0000000000E2
:1001F0001C1E1F1F1F1F1F1F1F1F1F1F1F1F0F073B
:1002000000000000001F1F1F1F1F1F1F1F1F1E1C9D
:100210001F1F1F0000001F1F1F000000001F1F1FC7
:100220000001020304050102202005200606020346
:100230000707060602070705030402202005FF063C
:100240000607070500060603070501010220002036
:10025000000602030705000602202005252D313285
:1002600073253364DF005069743A253364DF2563F6
:1002700020256325337525252563005069743A25AB
:100280003364DF2563204C6964253375005069743D
:100290003A253364DF256320205B4F66665D002DC1
:1002A000204E6F205069742050726F6265202D00BF
:1002B0002A2A20414C41524D2048494748202A2AA9
:1002C000002A2A20414C41524D204C4F5720202AD1
:1002D0002A00253364DF2563005365742074656D3F
:1002E00070657261747572653A004F666673657405
:1002F00020253464DF2563002533642525206265CD
:100300006C6F7720736574004C6964206F70656E44
:10031000206F666673657400253364207365636FB0
:100320006E6473004C6964206F70656E2074696D33
:100330006572004D616E75616C2066616E206D6F37
:10034000646500484D52432C555345520052657325
:10035000657420636F6E6669673F007370656564DE
:10036000202533642525004D6178696D756D206108
:1003700075746F2066616E002533642525004C433B
:1003800044206272696768746E6573730042746EAC
:10039000253033753D2531752020204247253033E7
:1003A000750046616E253033753D25303375562016
:1003B000253032754E7A0020202020202020001584
:1003C000010D010501FD0050253175204144253105
:1003D000632530357520253032754E7A00484D48FA
:1003E000492C0032303236303630312D686D3100D4
:1003F0003E204865617465724D65746572203C00ED
:1004000057616974696E672E2E2E004F66666C699F
:100410006E65007265626F6F740075636964006376
:100420006F6E666967007365743F68693D00736548
:10043000743F74703D007365743F74743D00736560
:10044000743F666E3D007365743F616C3D0073657B
:10045000743F7063007365743F706E007365743F22
:10046000706964007365743F706F3D007365743F1D
:100470006C643D007365743F6C623D007365743F4E
:1004800073703D00484D4E442C00484D50532C0095
:10049000484D53552C00484D4152000A050A050AA3
:1004A0003200000000240027002A004E6F2000596F
:1004B000657300484D52462C3235352C302C0000E7
:1004C00000000023002600290000000008000201AF
:1004D000000003040700000000000000001B2F06BE
:1004E00003280403020A03040504280504020A047D
:1004F000040305280305020A05040406280306026E
:100500000A0604050A21030A02141421031411190E
:1005100014021A1A21031A021616210316021717BB
:10052000210317020E0E21030E020F0F21030F02EB
:1005300010102103100211112103110212122103C4
:1005400012021313210313021515210315020A19B0
:10055000110300000003C20C050104C20C050105D3
:10056000C20C050106C20C010107401100000A057A
:10057000160A0014B00E0A010EC1150A000FC115AB
:100580000A0010C1150A0011C1150A001296150AB9
:1005900000136A150A00154F190A001732150A00D0
:1005A00016F1140A00180F09140019E00800011AC6
:1005B000F20F0A001B5709010000000000000000B4
:1005C0000000250028002B00040404040404040493
:1005D00002020202020203030303030301020408EE
:1005E000102040800102040810200102040810209D
:1005F000C81D11241FBECFEFD8E0DEBFCDBF14BE93
:10060000E0E6F0E088E18083108226E0A6E6B1E033
:1006100001C01D92A336B207E1F711E0A0E0B1E0FE
:10062000E8EDF2E602C005900D92A636B107D9F7C3
:1006300012E0C9EFD2E004C02197FE010E945D31B3
:10064000C83FD107C9F70E94F11E0C946A310C947F
:1006500000008091A8059091A9059093B105809321
:10066000B005E8EAF5E0A191B19111968C9111974E
:10067000882329F0B093B105A093B005089585E0D3
:10068000E03BF80781F7089580939D0590EC85FD88
:1006900003C09FEF86FD90EAF8949093FF0193E0EA
:1006A0009093050278949093B00084FF04C081E099
:1006B0008093B100089585E0FBCF863429F064F47F
:1006C000813411F0833461F480939505E091B00595
:1006D000F091B105138208958F3419F08235A1F39A
:1006E000089584E080937C051092C8051092C70598
:1006F00010927705F5CFFF920F931F93CF93DF935F
:10070000F82E062FC8E2D5E010E06881862F8F779B
:100710008F1113C009838A81823079F0023069F029
:10072000661F6627661F6027861739F06A83E09187
:100730003A05F0913B05812F09951F5F23961430F0
:1007400021F7DF91CF911F910F91FF900895DC0168
:1007500090E080E22D9121110AC0E92FF0E0EE50E7
:10076000FB4F80E29132C0F49F5F8193FBCF9132C7
:1007700098F4E92FF0E0293034F42150EA52FB4F8D
:10078000248F9F5FE7CF2C32C9F7EE50FB4F90319B
:1007900008F79F5F8193FBCF0895833081F028F4A1
:1007A000813099F08230A9F008958730A9F088301F
:1007B000C9F08430B1F4809180008F7D03C08091B6
:1007C00080008F7780938000089584B58F7784BDF3
:1007D000089584B58F7DFBCF8091B0008F77809393
:1007E000B00008958091B0008F7DF9CF1F93CF9313
:1007F000DF93282F30E0F901E753FB4F8491F90193
:10080000E452FA4FD491F901E853FA4FC491CC2342
:10081000A9F0162F81110E94CD03EC2FF0E0EE0F0E
:10082000FF1FE254FA4FA591B4918FB7F894EC9161
:10083000111108C0D095DE23DC938FBFDF91CF91DB
:100840001F910895DE2BF8CFCF93DF9390E0FC014A
:10085000E452FA4F249188539A4FFC0184918823E3
:10086000D1F090E0880F991FFC01EF55FB4FA59147
:10087000B491FC01E254FA4FC591D49161110EC0BC
:100880009FB7F8948C91E22FE0958E238C9328816A
:10089000E223E8839FBFDF91CF9108958FB7F8944B
:1008A000EC91E22BEC938FBFF6CF1F93CF93DF93A6
:1008B000182FEB0161E00E942404209739F460E0D6
:1008C000812FDF91CF911F910C94F603CF3FD1057B
:1008D00011F461E0F5CFE12FF0E0E753FB4FE49135
:1008E000E33031F140F4E130B1F0E230E1F0C03812
:1008F000D1057CF7E4CFE73029F1E83059F1E43055
:10090000B1F780918000806280938000D0938B004B
:10091000C0938A0004C084B5806884BDC7BDDF91E0
:10092000CF911F91089584B5806284BDC8BDF7CF73
:1009300080918000806880938000D0938900C0936C
:100940008800EDCF8091B00080688093B000C093A4
:10095000B300E5CF8091B00080628093B000C09377
:10096000B400DDCF2FB7F8946091F7017091F801D2
:100970008091F9019091FA012FBF08951F93CF93B1
:10098000DF930E94B20420913905222349F020917F
:10099000340530913505621B730B643F714048F19B
:1009A0000E94B20460933405709335058093360538
:1009B0009093370581E080933905809138058F5FEA
:1009C00080933805C8E2D5E010E08091380580FFBB
:1009D00014C08981823049F48A831982E0913A05F2
:1009E000F0913B056A81812F09951F5F2396143092
:1009F00061F7DF91CF911F9108958A818230A9F725
:100A00001A82ECCF0895DC01ED91FC910190F08108
:100A1000E02D0994AF92BF92CF92DF92EF92FF92B6
:100A20000F931F93CF93DF936C017B018B01040F16
:100A3000151FEB015E01AE18BF08C017D10759F0B2
:100A40006991D601ED91FC910190F081E02DC601F4
:100A50000995892B79F7C501DF91CF911F910F91EE
:100A6000FF90EF90DF90CF90BF90AF900895FC0182
:100A7000538D448D252F30E0842F90E0821B930B03
:100A8000541710F0CF96089501970895FC01918DA9
:100A9000828D981761F0A28DAE0FBF2FB11D5D96AC
:100AA0008C91928D9F5F9F73928F90E008958FEF4E
:100AB0009FEF0895FC01918D828D981731F0828D02
:100AC000E80FF11D858D90E008958FEF9FEF089559
:100AD000FC01918D228D892F90E0805C9F4F821BBD
:100AE00091098F739927089583E394E00E94680524
:100AF00021E0892B09F420E0822F089580E090E026
:100B0000892B29F00E94740581110C94000008952E
:100B1000FC01A48DA80FB92FB11DA35ABF4F2C9172
:100B2000848D90E001968F739927848FA689B78969
:100B30002C93A089B1898C91837080648C93938D60
:100B4000848D981306C00288F389E02D80818F7D03
:100B500080830895EF92FF920F931F93CF93DF93BB
:100B6000EC0181E0888F9B8D8C8D98131AC0E889E9
:100B7000F989808185FF15C09FB7F894EE89FF89B8
:100B80006083E889F98980818370806480839FBF56
:100B900081E090E0DF91CF911F910F91FF90EF9056
:100BA0000895F62E0B8D10E00F5F1F4F0F73112766
:100BB000E02E8C8D8E110CC00FB607FCFACFE889A1
:100BC000F989808185FFF5CFCE010E948805F1CF9C
:100BD000EB8DEC0FFD2FF11DE35AFF4FF0829FB715
:100BE000F8940B8FEA89FB8980818062CFCF682FD0
:100BF00083E394E00C94AA05CF93DF93EC01888DF6
:100C00008823B9F0AA89BB89E889F9898C9185FD87
:100C100003C0808186FD0DC00FB607FCF7CF8C9115
:100C200085FFF2CF808185FFEDCFCE010E94880540
:100C3000E9CFDF91CF9108952CB521602CBD2A9882
:100C40009EBD0DB407FEFDCF2EB530E0322F22271A
:100C50008EBD0DB407FEFDCF9EB52A9A8CB58E7F52
:100C60008CBDA901492BCA010895FF920F931F93D0
:100C7000CF93DF9390E080E00E941C06F92E9093C2
:100C80007A018091FD01843009F064C080E090EB2E
:100C90000E941C06EC018091DF0163E00E94073195
:100CA000911114C0E091E101F0E00F2D017010E00E
:100CB000EE0FFF1FE75FFE4FE00FF11F8081809373
:100CC000E10190E0806A94690E941C068091DF0136
:100CD000811118C0CE0124E0959587952A95E1F7FA
:100CE0008F7099270296959587958093E001809162
:100CF000E001823020F08091E0018B3018F082E03A
:100D00008093E001E091DF0181E08E0F8093DF01AD
:100D1000F0E0EE51FE4FC0838091EC018C2798E00B
:100D200021E387FF15C0880F82279150D1F7809368
:100D3000EC019091DF018091E001981350C089E0AF
:100D400092E8DF91CF911F910F91FF900C941C06B8
:100D5000880FEBCF8091FD0187FF1FC0E091FD015F
:100D600081E08E0F8093FD018091E001E80FF0E0BB
:100D7000EE51FE4F80819091EC01982728E031E3FD
:100D800097FF09C0990F93272150D1F79093EC0159
:100D900090E09854D6CF990FF7CF8091FD0191E064
:100DA000980F9093FD01823099F024F4882369F024
:100DB0008AEAEECF853089F08630D1F78091E00164
:100DC00081958093FD0184EDE3CF8091EC01E0CF2C
:100DD00089E092E80E941C06EBCF8DE2D9CFDF912B
:100DE000CF911F910F91FF900895DC01ED91FC913F
:100DF0000084F185E02D41E0099581E090E00895BF
:100E00001F93CF93DF93162FEC01115040F0FE019A
:100E1000649189E695E00E94F5062196F6CFDF9170
:100E2000CF911F910895DC01ED91FC910084F18533
:100E3000E02D40E009940F931F93CF93DF9300D0F0
:100E400000D0CDB7DEB700910501109106012091C9
:100E500007013091080109831A832B833C83909109
:100E60007105961710F46FEF690FFE01E60FF11D83
:100E70006181680F606889E695E00F900F900F9090
:100E80000F90DF91CF911F910F910C94130762E0A7
:100E900089E695E00E9413078BE39FE10197F1F744
:100EA00040E150E062EF74E089E695E00E940A05B7
:100EB00061E080E00E941B0740E150E062E075E0E5
:100EC00089E695E00C940A05FC012185222391F026
:100ED000653608F064E6442311F0FC016287FFEFF9
:100EE0006F9FC001112464E670E00E941331822FCD
:100EF0000C945504089561E00E9413078BE39FE171
:100F00000197F1F70895EFE6F0E080818D7F80830F
:100F10005E980895CF93DF93C82F0E94830788E0DF
:100F2000C89FE0011124D0937901C0937801EFE6C6
:100F3000F0E0808182608083DF91CF9108950097F7
:100F400011F0FC01099408951F93CF93DF93EC01F6
:100F5000162F623009F41B858A8581138B87133025
:100F600080F18A85181769F1EE81FF81309749F089
:100F70003196259134912115310519F080E4F9015C
:100F800009951A878A819B819F838E831F86198E7C
:100F9000188EEE81FF818491882331F0181721F09B
:100FA0003596FF83EE83F5CF309759F03196259132
:100FB00034912115310599F280E8F9010995182F2E
:100FC000CECF0E94B204688B798B8A8B9B8BDF918A
:100FD000CF911F9108954F925F926F927F928F925F
:100FE0009F92AF92BF92CF92DF92EF92FF921F93A8
:100FF000CF93DF93EC010E94B2046B017C018C89DA
:101000009D89AE89BF8926013701481A590A6A0AA3
:101010007B0AD301C2018A3F9105A105B10508F4FD
:1010200088C0E885F9850995182F81115EC04E8129
:101030005F8141155105D1F48C8581138AC08F855C
:101040008F3F11F08F5F8F878D859E85009709F404
:101050008CC0019709F069C08F85843008F465C0A1
:10106000106182E090E09E878D8746C0FA0133963A
:10107000249130E0A8EEB3E00E94542F6115710571
:1010800081059105C9F288889988AA88BB882601BC
:101090003701481859086A087B085301420168154E
:1010A00079058A059B0540F610E24F5F5F4FFA0114
:1010B000259134912115310521F1812FF9010995EF
:1010C0008130F9F0682FCE010E94A407888D998D98
:1010D0000E949F07EE81FF81309759F13496E49189
:1010E0001E2339F182E090E04EC0CC8ADD8AEE8A80
:1010F000FF8A803209F0A0CF4E815F8141155105F2
:10110000A1F62C813D818A85412F4061F90194919E
:101110009923C1F298133AC03196E491E423E11384
:1011200035C0F90132968491CDCFC88AD98AEA8A2E
:10113000FB8ADF91CF911F91FF90EF90DF90CF90CE
:10114000BF90AF909F908F907F906F905F904F90E7
:1011500008951F8611110CC02D853E852130310563
:1011600009F4182F1C871E861D86112311F3C4CF86
:10117000EE81FF813097B1F33496E491E12391F34E
:101180001C8781E090E09E878D87D3CF2D5F3F4FF6
:10119000BDCFDC011C96EC911C97E83070F41D96D5
:1011A0008C911D97E81748F481E08E0F1C968C9364
:1011B0001C97EA0FFB2FF11D648381E090E00895F6
:1011C000282F8038B9F48091E104893111F0109210
:1011D000F0048DE693E19093EF048093EE04809108
:1011E000F004843029F4237019F088EC0E948A07F7
:1011F00081E008958091F004223049F490E0019656
:1012000065E070E00E9427318093F004E8CF213040
:1012100031F7811102C084E0F7CF8150F5CF8038DB
:1012200021F40E94470781E0089582E008950F931A
:101230001F93CF93DF938C01662321F089E695E01D
:101240000E947B07E801FE0164912196662329F044
:1012500089E695E00E94F506F6CFDF91CF911F91C8
:101260000F910895CF93DF93EC018FAD823099F405
:101270000E94B204FE01E05CFF4F20813181621BBD
:10128000730B613283E0780758F01FAE61E08BE0AA
:1012900094E00E941709CE01DF91CF910C94EB07E7
:1012A00065367105C0F361E080E094E0F2CF8038EC
:1012B00099F461E080EF93E00E94170961E083E018
:1012C0000E941B0760E083EE93E00E94170962E42E
:1012D00089E695E00E94F50681E00895DF92EF929D
:1012E000FF920F931F93CF93DF939091660198170E
:1012F00059F122E0D22E911102C098E0D92EC82FC8
:10130000F12CE12CD0E0C13021F000ED11E0D23021
:1013100010F000EE11E00E0D1F1D6E2D606489E6C9
:1013200095E00E94130768E0C8010E94000760E88A
:1013300089E695E00E941307DF5F88E0E80EF11C64
:10134000DD12E1CFC0936601DF91CF911F910F9124
:10135000FF90EF90DF900895089590E080E0089569
:1013600060E080E00E947B0361E08091C70590917E
:10137000C805892B09F460E08AE00E947B0361E0E4
:1013800080917705811101C060E08BE00E947B03B2
:1013900061E080917705843608F460E08DE00E947A
:1013A0007B0361E080917C05823009F060E08CE095
:1013B0000E947B0361E080917C05811160E08FE0F9
:1013C0000E947B0361E080917C05813009F060E040
:1013D00080E10C947B03882319F0813041F008955B
:1013E00081E0672B09F480E08093A705089560935E
:1013F00031028FEF8093320284E0809330020895AF
:10140000CF92DF92EF92FF921F93CF93DF93EC0185
:101410006A017B016C817D81072E000C880B990B82
:101420000E94F22D10919505163431F424EE38E324
:101430004EE05FE30E94512EA70196010E94642FA7
:101440006B017C0120E030E048EC52EC0E94EB2D77
:10145000181654F08CE48A83DF91CF911F91FF908E
:10146000EF90DF90CF90089520E030E04AEF53E412
:10147000C701B6010E94783087FD02C088E4EBCF37
:101480001634A1F426E636E646EE5FE3C701B60160
:101490000E94512E20E030E040E052E40E94642F90
:1014A0006E8B7F8B888F998F8FE4D5CFCE8ADF8A22
:1014B000E88EF98EF9CFCF93DF93282FC62FF894BB
:1014C00064E0869FF0011124E150FE4F638574852E
:1014D000858596857894D0E0211110C02CE030E00D
:1014E0002C1B3D0BDC01CB0104C0B695A79597954D
:1014F00087952A95D2F7DF91CF91089524E0660F62
:10150000771F881F991F2A95D1F72091FF0130E09E
:1015100050E040E00E943B318EE090E08C1B9D0B40
:10152000B90102C0769567958A95E2F7CB01E3CFC2
:1015300068E080E00E945B0A8823B9F09BEE980F78
:10154000973268F093EC980F973258F097E8980F1D
:10155000973248F0815A873240F482E0089581E062
:10156000089588E0089584E0089580E008958091CA
:10157000A1058823E9F090919D0594FF19C068E0CA
:1015800081E00E945B0A9091A105492F481B550BF1
:101590009A0157FF02C02F5F3F4F359527958091E5
:1015A000A005820F932F911D181619064CF081E0AB
:1015B0008093A0056091A00570E083E00C94550431
:1015C0008F3F9105A9F3A4F38FEF90E0F1CF8AE26A
:1015D00090E00E94F7056091D50462956F706A30C3
:1015E000B0F4605D83E394E00E94AA056091D504A5
:1015F0006F706A3070F4605D83E394E00E94AA0526
:101600008AE090E00E94F7051092D4040895695C86
:10161000E9CF695CF1CF1F93CF93DF93EC01162FD5
:101620008C81811107C081E08C831D8284E290E06F
:101630000E94F7058D8181278D83612F83E394E0DC
:10164000DF91CF911F910C94AA05682F80ED94E053
:101650000C940B0BCF93DF93EC01FE018491219648
:10166000882319F00E94250BF8CFDF91CF910895C0
:101670008BE491E00E942A0B62E480ED94E00E94EA
:1016800003050C94E70A8CE20C94250BF999FECF24
:1016900092BD81BD81E08FBB80B5681761F060BDF0
:1016A000F8948095862341F084E06F3F09F484E14B
:1016B0008FBBF99A7894089584E2FACFCF93DF93A1
:1016C000C82FD62FE82FF0E0EE0FFF1FE958FA4F92
:1016D00001A8F2A9E02D618385E5828313820E942F
:1016E000290385E2C89FC02D1124C35B6D2F8C2F69
:1016F00090E0DF91CF910C94460BCF93883008F0A7
:1017000050C0E82FF0E0E957F44F0C945D318F0B97
:10171000990BA10BA90BB10BB90BC10BC90B65360A
:1017200008F064E6609398058EE190E0CF910C9408
:10173000460B653608F064E6609396058FE190E00D
:10174000F5CF60939B058AE08093A50587E290E042
:10175000EDCF60939A058AE08093A50588E290E03A
:10176000E5CFC62F862F0E9444036C2F80E290E0C5
:10177000DDCF653608F064E66093970582E290E07D
:10178000D5CF643608F060E06093990589E290E077
:10179000CDCF653608F064E660939C058AE290E060
:1017A000C5CFCF9108950F931F93CF93C62F81304C
:1017B00041F1D0F08630D0F58250082F10E0F801CA
:1017C000EE0FFF1FE00FF11FE85DFA4F608392817B
:1017D000913031F4E0913A05F0913B0560E00995D4
:1017E0006C2FC801839608C041E089E695E00E940D
:1017F00064076C2F88E190E0CF911F910F910C94BA
:10180000460B6093F1048091E0048350833050F4E0
:1018100089E695E00E947B078091EE049091EF04A9
:101820000E949F076C2F81E290E0E6CFCF911F913D
:101830000F91089560917C05633008F460E087E1C2
:1018400090E00C94460BEF92FF920F931F93CF936F
:101850009B01C42F8C01C15030F4CF911F910F9187
:10186000FF90EF900895F80161918F017901FFEFEA
:10187000EF1AFF0AC9010E94460B9701ECCFCF93E4
:10188000DF9300D0CDB7DEB77A836983982F969522
:10189000E92FF0E0EE0FFF1FE958FA4F21A932A916
:1018A0008170462F572F682F70E0F901E60FF71F60
:1018B00014A212A241155105B1F0660F771F260F31
:1018C000371FF901578F468F943068F4880FF5E27F
:1018D0009F9F800D1124815B682F70E042E0CE0154
:1018E00001960E94230C0F900F90DF91CF910895E5
:1018F000CF93DF9300D0CDB7DEB777FD39C081300D
:1019000091F040F0823021F10F900F90DF91CF9154
:10191000089560E06093B20584E090E00E94460B79
:10192000F3CF70E060E0962F872F6E31710510F4D1
:101930009EE180E090938305809384057A83698398
:1019400042E065E070E0CE0101960E94230CDCCFFE
:10195000672B99F081E080937C0510927705809148
:101960008305909184059093C8058093C705CCCFDB
:101970008130B9F270F2823039F61092C8051092B7
:10198000C705C2CF803881F58AE396E19093EF04D2
:101990008093EE048091E004863021F1E091AA0565
:1019A000F091AB0592819F3409F481C0E091AC05C0
:1019B000F091AD0592819F3409F46AC0E091AE05C3
:1019C000F091AF0592819F3409F462C086E00895DA
:1019D000853041F4E091AE05F091AF0582818F34FE
:1019E00009F052C081E0089590917C05813179F42D
:1019F00080E0943009F084E080937C051092C80563
:101A00001092C705109277050E941A0CEBCF933005
:101A100031F58430F1F08830F1F02FEF813011F79B
:101A200080917705022E000C330B820F932F911DAE
:101A300023E020937C051092C8051092C70597FDFE
:101A40000CC08536910514F084E690E0809377050C
:101A5000C9CF25E0E5CF2BEFE3CF80E0F7CF813092
:101A600009F6943009F4BECF61E070E08091C705BB
:101A70009091C805892B11F070E060E082E00E942F
:101A8000780C0E94B009AECF83E0089584E00895F9
:101A90008330E1F3843009F09BCFE091AC05F09105
:101AA000AD0582818F3409F49DCF85E008958330A0
:101AB00009F498CFEFCFCF93DF9300D0CDB7DEB747
:101AC0008430C8F4E82FF0E0EE0FFF1FE958FA4F1A
:101AD00001A8F2A9E02D758364837A83698365E2A6
:101AE000869F802D11248D5A682F70E042E0CE0130
:101AF00001960E94230C0F900F90DF91CF910895D3
:101B00000F931F93CF93DF9300D0CDB7DEB78C0137
:101B100018161906F4F49A83898342E062E070E0B3
:101B2000CE0101960E94230C10927C051092C805EC
:101B30001092C7051092770510937E0500937D05DE
:101B40000E941A0C0F900F90DF91CF911F910F916F
:101B5000089583E080937C051092C8051092C70514
:101B60001195019511090536110514F004E610E0F0
:101B700000937705E5CF9B0151E0415008F40895AB
:101B8000F999FECF32BD21BD5FBB60B5FC01619309
:101B9000CF012F5F3F4FF1CF65E2869F602D11246B
:101BA000605C70E04DE087E691E00C94BB0D1F9304
:101BB000CF93DF93182F8093FE01229A2A9A61E037
:101BC0008BE00E94240460E08CE00E94240461E029
:101BD0008DE00E94240480E58CBD8DB581608DBDB3
:101BE00060E082E00E94240490E080E00E941C06F5
:101BF00081E092E80E941C0680E098EB0E941C069F
:101C0000EBECF4E08491EEEDF5E0D491EAECF5E054
:101C1000C491C11105C080E0DF91CF911F9108955B
:101C200081110E94CD03EC2FF0E0EE0FFF1FE15475
:101C3000FB4FA591B491EC91ED2369F320E1129F44
:101C4000C0011124876C90680E941C068CE796EAFC
:101C5000123031F083ED97EA133011F080E496EA08
:101C60000E941C0683E196EC0E941C0682EA94E91D
:101C70000E941C068CEA92EC0E941C0683E89AECF7
:101C80000E941C0684ED9EEC0E941C0687EB94ECDF
:101C90000E941C0680E398E90E941C0686E79CECE3
:101CA0000E941C0680E090EE0E941C0680E098ECEA
:101CB0000E941C0680E090EC0E941C0683E080934A
:101CC000FD0185E396E090930201809301018091EC
:101CD00069008C7F80936900E89A1092FE0181E090
:101CE0009BCFE8EAF5E080E0A191B19111969C913B
:101CF000923009F48F5F95E0E03BF907A9F788235C
:101D000051F080913C05811106C083E00E94D70DFF
:101D100081E080933C050895843011F0883071F49F
:101D200081E090E02091FB013091FC01232B11F028
:101D300090E080E09093FC018093FB0161E080E003
:101D40000E941B078091FB019091FC01892B29F4D3
:101D50008BEA94E060E00C9417098FEA94E0FACFE4
:101D6000CF93C82F8038B9F461E083E393E00E94F9
:101D7000170981E090E020917C05233011F090E07C
:101D800080E09093FC018093FB018C2F0E948C0ECD
:101D900081E0CF9108958034C1F78091FB0190914B
:101DA000FC0131E0009709F430E021E040917C052E
:101DB000433009F020E0321741F3892B39F4809148
:101DC0007D0590917E050E94800DDFCF90E080E040
:101DD000FACFFC019FB7F8946EBD0DB407FEFDCF9E
:101DE000A485B5858C912385822B8C93A485B5859C
:101DF0002C918385809582238C939FBF0895FC014D
:101E000064810C94E90E811103C089E00C94F603FF
:101E10002FEF280F2230A0F481E090E001C0880F5E
:101E20002A95EAF720916D05662339F0822B80937D
:101E30006D0589E695E00C94FF0E80958223F7CF1F
:101E400008950F931F93CF938C01C62F68600E9453
:101E5000E90E6C2F677FC801CF911F910F910C94F1
:101E6000E90E607F0E94210F8BE990E00197F1F766
:101E700008950F931F93CF93DF938C01D62F4111B9
:101E800044E0F801C481C42B6D2F607F6C2BC80126
:101E90000E94210FF0E1DF9FB00111246C2BC801DB
:101EA0000E94210F8BE990E00197F1F7DF91CF912C
:101EB0001F910F910895FB0101900020E9F73197E0
:101EC000AF01461B570BDC01ED91FC910280F381C1
:101ED000E02D09948F929F92AF92BF92EF92FF9262
:101EE0000F931F93CF93DF93CDB7DEB7A1970FB6B4
:101EF000F894DEBF0FBECDBF7C01FA01CB0119A261
:101F0000223008F42AE08E010F5D1F4F822E912CA3
:101F1000B12CA12CBF01A50194010E943B31F90114
:101F2000CA016A300CF5605DD8016E938D01232BD8
:101F3000242B252B79F790E080E0109721F0BD014C
:101F4000C7010E945B0FA1960FB6F894DEBF0FBECB
:101F5000CDBFDF91CF911F910F91FF90EF90BF9078
:101F6000AF909F908F900895695CDECFAB0170E0D9
:101F700060E02AE00C946A0F462F50E070E060E0C9
:101F80002AE00C946A0FCF93DF9383EB94E00E94D6
:101F90002A0B6091430580ED94E00E94BC0FCCE3D6
:101FA000D5E08A858F3FA9F00E94430B6A8580EDBA
:101FB00094E00E94BC0F0E94430B6F8580ED94E07B
:101FC0000E94BC0F0E94430B688980ED94E00E9440
:101FD000BC0F299685E0C036D80719F7DF91CF915D
:101FE0000C94E70ACF93909115059923D9F182308B
:101FF000B9F1803821F41092140510921305C82FFE
:102000008DED93E00E942A0B6091130570911405E9
:1020100080ED94E00E94B60F0E94430B60E080EDDB
:1020200094E00E94BC0F0E94430B6C2F80ED94E063
:102030000E94BC0F0E94E70AC03429F481E080931B
:102040001505CF91089582E0809315050E94B20492
:1020500060931605709317058093180590931905E2
:1020600081E0EFCF86E1EDCFCF93DF938AE791E078
:102070000E942A0BC7E7D5E069A180ED94E00E9499
:10208000BC0F0E94430B6F8D80ED94E00E94BC0F4B
:102090000E94430B6CA180ED94E00E94BC0F0E9453
:1020A000430B6BA180ED94E00E94BC0F0E94430B98
:1020B0006EA180ED94E00E94BC0F0E94430B68A1CA
:1020C00080ED94E00E94BC0F0E94430B6AA180ED5A
:1020D00094E00E94BC0F0E94430B6DA180ED94E040
:1020E0000E94BC0FDF91CF910C94E70ACF93DF934E
:1020F0008FE691E00E942A0B6091730580ED94E0D9
:102100000E94BC0F0E94430B6091F10480ED94E0AB
:102110000E94BC0FC8E2D5E00E94430B688180EDAD
:1021200094E00E94BC0F239685E0C433D807A1F742
:10213000DF91CF910C94E70ACF93DF9389E691E08A
:102140000E942A0BC7E7D5E06BAD80ED94E00E94BA
:10215000BC0F0E94430B6C857D8580ED94E00E944E
:10216000B60FDF91CF910C94E70A0F931F93CF9393
:10217000DF938EE291E00E942A0B08EA15E0C1E0AD
:10218000D0E00E94430BD801ED91FD918D0181813A
:10219000823041F4FE01E658FE4F608180ED94E00C
:1021A0000E94BC0F2196C530D10559F7DF91CF9120
:1021B0001F910F910C94E70ACF92DF92EF92FF925A
:1021C000CF93DF936C01990FEE08FF08F7FE1BC059
:1021D0006DE280ED94E00E940305EC014427552751
:1021E000BA014C195D096E097F092AE080ED94E07F
:1021F0000E946A0F8C0F9D1FDF91CF91FF90EF908F
:10220000DF90CF9008952AE0B701A60180ED94E019
:10221000DF91CF91FF90EF90DF90CF900C946A0FF9
:102220000F931F93CF93DF9385E791E00E942A0BD2
:1022300008EA15E0F801C191D1918F010E94430B8A
:102240008E8D9F8D0E94DC108AA1882319F08CE46A
:102250000E94250B0E94430B88A199A10E94DC10CB
:102260008BA1882319F088E40E94250BF5E0003B40
:102270001F0701F7DF91CF911F910F910C94E70A8F
:10228000803841F48AE396E19093EF048093EE0462
:1022900081E008958F70E1F370E060E08091A60521
:1022A0000E943F0C0E94101182E00895CF93DF93AB
:1022B00086E491E00E942A0BC8EAD5E00E94430B15
:1022C000E991F991848195810E94DC1085E0C03B01
:1022D000D807A1F7DF91CF910C94E70A2F923F9294
:1022E0004F925F926F927F928F929F92AF92BF9226
:1022F000CF92DF92EF92FF921F93CF93DF93EC0187
:102300006A017B01722EAB019601CB01B6010E94DE
:10231000CD3067E571E0811126C046015701E89490
:10232000B7F82FEF3FEF4FE75FE7C501B4010E9419
:10233000CD3081110CC02FEF3FEF4FE75FE7C501B4
:10234000B4010E94EB2D6BE571E0181664F02FEFDD
:102350003FEF4FE75FE4C701B6010E9478301816DF
:10236000B4F46FE571E0CE01DF91CF911F91FF9042
:10237000EF90DF90CF90BF90AF909F908F907F9025
:102380006F905F904F903F902F900C945B0F2FEFCA
:102390003FEF4FE75FECC701B6010E94EB2D87FDD1
:1023A000E0CF20E030E0A901C701B6010E94EB2D8B
:1023B000312C212C87FF09C06DE2CE010E9403055C
:1023C0001C01F7FAF094F7F8F09410E060E070E088
:1023D00080E09FE3711641F020E030E040E251E4FC
:1023E0000E94D02F1F5FF6CFA70196010E94642F95
:1023F0002B013C010E9449304B015C012AE0BC01E9
:10240000A401CE010E946A0F7C01E20CF31C11238F
:10241000A1F1C501B4010E94F02D9B01AC01C301E3
:10242000B2010E94632F4B015C016EE2CE010E945B
:102430000305E80EF91E115000F120E030E040E203
:1024400051E4C501B4010E94512E2B013C010E94B0
:1024500049304B01CE010E94B60FE80EF91EB401BF
:1024600090E080E00E94F02D9B01AC01C301B2011D
:102470000E94632F4B015C01DECFC701DF91CF913A
:102480001F91FF90EF90DF90CF90BF90AF909F9003
:102490008F907F906F905F904F903F902F90089516
:1024A000CF93DF938EE391E00E942A0BC7EBD5E038
:1024B000499159916991799128E080ED94E00E94C9
:1024C0006E110E94430B85E0C33CD80789F76091E9
:1024D000950580ED94E00E940305DF91CF910C9467
:1024E000E70A4F925F926F927F929F92AF92BF9254
:1024F000CF92DF92EF92FF920F931F93CF93DF93D0
:10250000F82E83E391E00E942A0B6F2D80ED94E07A
:102510000E94BC0F0E94430BEF2DF0E0EE0FFF1F57
:10252000E958FA4FC1A9D2A98E010A5F1F4F5E0177
:1025300086E1A80EB11CF801419051906190719014
:102540008F0120E030E0A901C301B2010E94EB2D10
:102550007301620187FF04C0F7FAF094F7F8F09472
:10256000912C20E030E040E85FE3C701B6010E9413
:10257000EB2D87FF15C020E030E0A901C701B601AF
:102580000E94EB2D882361F09A9420E030E040E235
:1025900051E4C701B6010E94512E6B017C01E1CFCD
:1025A00020E030E040E251E4C701B6010E947830FB
:1025B00087FD0CC0939420E030E040E251E4C70175
:1025C000B6010E94D02F6B017C01EACF20E030E001
:1025D000A901C301B2010E94EB2D87FF04C0F7FAE5
:1025E000F094F7F8F09427E0B701A60180ED94E0AD
:1025F0000E946E1185E60E94250B892D990C990B7E
:102600000E94DC100E94430B0A151B0509F093CFB2
:10261000698180ED94E00E94BC0FDF91CF911F9102
:102620000F91FF90EF90DF90CF90BF90AF909F9071
:102630007F906F905F904F900C94E70AFC0122818D
:102640002F3459F446895789608D718D21E080EDD2
:1026500094E00E946E110C94430B85E50E94250BBB
:10266000FACFCF9389E391E00E942A0BC0E08C2F30
:102670000E94CC0D0E94430B67E671E080ED94E070
:102680000E945B0FCF5FC43091F7CF910C94E70AA3
:10269000EF92FF921F93CF93DF93EC017B0110E049
:1026A00088818823A1F08C3219F41F5F2196F8CF1E
:1026B000CE010E948F29BC01812FF7010995FE01EF
:1026C000EF018191882361F38C32D1F7E9CFDF915B
:1026D000CF911F91FF90EF900895EF92FF920F938B
:1026E0001F93CF93DF9362E089E695E00E94130782
:1026F0008BE39FE10197F1F7E091F004E43008F0FB
:1027000099C0F0E0EE0FFF1FE958FA4FC1A9D2A916
:102710008881E82FF0E0E150FE4F13A16EE00E94A7
:102720005B0AE881F0E0E150FE4F21A5211157C07E
:1027300023E41F921F939F938F931F922F93809157
:10274000F0041F928F9387EC93E09F938F931F92D7
:1027500081E18F9387E691E09F938F930E94CC292C
:1027600067E671E089E695E00E945B0F61E080E03A
:102770000E941B07E981F0E0EE0FFF1FE154FC4FC0
:102780008591949160E00E94170960E289E695E0E6
:102790000E94F5068DB79EB70E960FB6F8949EBFB1
:1027A0000FBE8DBF8A818F3409F03EC04E895F898C
:1027B000688D798D10922605C6E0C093270522E02A
:1027C0008AE195E00E946E1180912605C81BC150D8
:1027D00040F060E289E695E00E94F506F8CF22E439
:1027E000A8CFE0E080912605E81760F4C1E0CE0FA5
:1027F000F0E0E65EFA4F648189E695E00E94F50616
:10280000EC2FF0CF63E671E089E695E00E945B0F64
:102810006091950589E695E0DF91CF911F910F9129
:10282000FF90EF900C94F50660E087EB93E00E9438
:102830001709EECF68E081E00E945B0AEC0180910D
:1028400023021F928F932C2F30E0AAE9BBE00E9455
:10285000542F2AEE35E140E050E00E943B313F9397
:102860002F93DD27DF93CF9382EA93E09F938F939B
:102870001F9211E11F93C7E6D1E0DF93CF930E942F
:10288000CC29BE0189E695E00E945B0F61E080E003
:102890000E941B07F0902E02E0902F020E94980ADF
:1028A000082F68E080E00E945B0AEF92FF921F927F
:1028B0000F939F938F938DE893E09F938F931F9235
:1028C0001F93DF93CF930E94CC298DB79EB7489674
:1028D0000FB6F8949EBF0FBE8DBFBE0189E695E08E
:1028E000DF91CF911F910F91FF90EF900C945B0FB0
:1028F0000F931F93CF93DF93CDB7DEB761970FB6DA
:10290000F894DEBF0FBECDBF9091E5049B3008F474
:1029100059C0660F660FE091FB01F091FC01843015
:1029200009F055C06E0F7F2F711D7093FC016093ED
:10293000FB018091FB019091FC018417950724F421
:102940005093FC014093FB018091FB019091FC01AD
:102950002817390724F43093FC012093FB0161E030
:1029600080E00E941B0780919505282F082E000CFF
:10297000330B3F938F938091FC018F938091FB01E8
:102980008F931F930F931F9281E18F938E010F5F9F
:102990001F4F1F930F930E94CC29B80189E695E041
:1029A0000E945B0F0FB6F894DEBF0FBECDBF6196DD
:1029B0000FB6F894DEBF0FBECDBFDF91CF911F9150
:1029C0000F910895963008F4A6CF660FA4CF8830F3
:1029D00009F0AFCFE61BF109F093FC01E093FB0196
:1029E000A8CF0F931F93CF93C82F803811F561E0C4
:1029F0008EE793E00E9417098091730590E0909311
:102A0000FC018093FB0108E713E024E630E050E08E
:102A100040E06AE08C2F0E94781440E06091FB0156
:102A200089E695E00E94640781E0CF911F910F91A4
:102A30000895803441F70091FB011091FC018091D1
:102A4000730580171106F9F241E0602F89E695E0E1
:102A50000E946407602F88E190E00E94460B0E946C
:102A60007610D1CF0F931F93CF93C82F8038D9F40E
:102A700061E087E693E00E9417098091960590E057
:102A80009093FC018093FB010BE513E024E630E01A
:102A900050E040E065E08C2F0E94781481E0CF91F7
:102AA0001F910F910895803479F76091FB01709127
:102AB000FC01809196058617170631F3653608F0FC
:102AC00064E6609396058FE190E00E94460B0E94B9
:102AD0003410DACF0F931F93CF93C82F8038E1F4CF
:102AE00061E084E293E00E94170980918305909150
:102AF00084059093FC018093FB0108E113E028EE2C
:102B000033E050E040E06AE08C2F0E94781481E0CE
:102B1000CF911F910F910895803479F76091FB0157
:102B20007091FC0181E00E94780CE7CF0F931F9316
:102B3000CF93C82F8038D9F461E088E093E00E94F9
:102B400017098091B20590E09093FC018093FB01FE
:102B500008EF12E024E630E050E040E061E08C2F26
:102B60000E94781481E0CF911F910F9108958034D5
:102B700079F76091FB017091FC0180E00E94780C74
:102B8000E7CF0F931F93CF93DF93D82FC091E0042B
:102B9000CE50803871F5C43018F48C2F0E94CC0DC3
:102BA00089E695E00E947B0767E671E089E695E09B
:102BB0000E945B0FEC2FF0E0EE0FFF1FE958FA4F79
:102BC00001A8F2A9E02D848195819093FC01809366
:102BD000FB010AEE12E028EC30E048E35FEF61E031
:102BE0008D2F0E94781481E0DF91CF911F910F917A
:102BF0000895803471F76091FB017091FC018C2F76
:102C00000E945B0D0E945611E4CF0F931F93CF9348
:102C1000C82F8038F9F482E00E946E0961E089EDE6
:102C200092E00E94170980917D0590917E05909316
:102C3000FC018093FB0102ED12E028EE33E050E04E
:102C400040E065E08C2F0E94781481E0CF911F91C5
:102C50000F910895803479F78091FB019091FC01E8
:102C600020917D0530917E058217930721F30E9404
:102C7000800DE1CF6F927F928F929F92AF92BF9221
:102C8000CF92DF92EF92FF920F931F93CF93DF9338
:102C9000CDB7DEB761970FB6F894DEBF0FBECDBFDC
:102CA0001091E00460E080E00E941B07173009F0FB
:102CB00044C01091A60560E081EC92E010FF02C0D4
:102CC00080EB92E00E9417091695712EDE01119695
:102CD0006D0197E6A92E91E0B92E2CE5822E22E017
:102CE000922E31E1632E01E0011B711608F4A3C09E
:102CF000143078F4E12EF12CEE0CFF1CF701E958AA
:102D0000FA4F7F0101A8F2A9E02D82818F3409F4E6
:102D10003CC141E150E060E270E0C6010E946331D5
:102D2000198A602F610F80E00E941B07B60189E6B7
:102D300095E00E945B0F1F5FD8CFE091F104E43073
:102D400008F094C0F0E0EE0FFF1FE958FA4FE1A839
:102D5000F2A8D70112968C918F3409F08AC081E0D5
:102D60000E946E0920E030E040E251E4F7016689FC
:102D70007789808D918D0E94512E0E9442307B0177
:102D800000E077FF05C0EE24FF24E61AF70A01E011
:102D900010E15AE0C52ED12C66E0B62EE114F10404
:102DA00011F419301CF1C701B6010E941331962E9F
:102DB000A72EB89E9001B99E300D1124C901805EE6
:102DC0009D4F7C01135060E0812F0E941B0763E040
:102DD000C7010E94000761E0812F0E941B0763E08A
:102DE000C70103960E940007E92CFA2C115060E0FD
:102DF000812F0E941B0760E289E695E00E94F5069C
:102E000061E0812F0E941B071C3031F46EE289E6DD
:102E100095E00E94F506C2CFE114F10409F51930DE
:102E2000FCF40023E9F061E089E695E00E94F506F4
:102E300000E01111B3CF61960FB6F894DEBF0FBE5C
:102E4000CDBFDF91CF911F910F91FF90EF90DF9059
:102E5000CF90BF90AF909F908F907F906F9008958C
:102E600060E289E695E00E94F506E3CF82E00E94E9
:102E70006E09E091B005F091B105028160E070E06B
:102E80000F3431F466897789808D918D0E944230AC
:102E900090917C05DE0111967D019330A1F10F34F4
:102EA000A9F041E150E06FE972E0CD010E94AD2947
:102EB00041E150E0B70189E695E00E940A05809162
:102EC000F1048F3F09F05DC01250FFCE9430D9F469
:102ED00080919505282F082E000C330B3F938F937C
:102EE0007F936F938DE892E09F938F931F9281E180
:102EF0008F93BF93AF930E94CC290FB6F894DEBF97
:102F00000FBECDBFD5CF2091C7053091C8058091A8
:102F10009505482F082E000C550B2115310591F011
:102F20003F932F935F938F937F936F938BE792E001
:102F30009F938F931F9281E18F93FF92EF920E9454
:102F4000CC29DBCF9330D1F421E090E01F922F9376
:102F5000209177051F922F931F929F935F938F93DA
:102F60007F936F9386E692E09F938F931F9281E108
:102F70008F93FF92EF920E94CC29BFCF2DE59BE566
:102F8000E5CF43E0742E11E0A1CE812F0E94CC0D3D
:102F9000D701D196ED91FC9166897789808D918DCD
:102FA0000E9442307F936F93BF92AF929F928F9215
:102FB0001F926F92DF92CF920E94CC290FB6F894A5
:102FC000DEBF0FBECDBFADCECF92DF92EF92FF92AC
:102FD0001F93CF93DF93CDB7DEB7AB970FB6F894BF
:102FE000DEBF0FBECDBF182F4BE270E060E0CE0118
:102FF00001960E94BB0D111105C089819A818E3006
:10300000904F79F04BE250E060E871E0CE0101961C
:103010000E94AD294BE270E060E0CE0101960E9473
:10302000230C8B819C811092C8051092C7051092C9
:10303000770590937E0580937D058D818093B20501
:103040008E819F818E31910510F48EE190E09093F6
:1030500084058093830580E1FE013896A3EBB5E0FB
:1030600001900D928A95E1F7888D80937C0541E06F
:10307000698D89E695E00E9464078A8D9B8DAC8DF1
:10308000BD8D80937B0190937C01A0937D01B093D3
:103090007E018E8D833409F086E40E945D038F8D5E
:1030A000853608F084E68093980588A1853608F077
:1030B00084E6809396058AA5843608F080E08093A4
:1030C00099058BA1853608F084E68093970589A140
:1030D0000E9444038AA18093F1048091E00483500C
:1030E000833050F489E695E00E947B078091EE04DE
:1030F0009091EF040E949F0788A580939B058AE02A
:103100008093A50589A580939A058BA5853608F03F
:1031100084E680939C056E0184E2C80ED11C88E28F
:10312000E82E85E0F82E10E0F60181916F01F7019D
:1031300080838281813039F4E0913A05F0913B053A
:1031400060E0812F09951F5FF3E0EF0EF11C143052
:1031500059F7AB960FB6F894DEBF0FBECDBFDF9127
:10316000CF911F91FF90EF90DF90CF900895CF9275
:10317000DF92EF92FF920F931F93CF93DF93CDB720
:10318000DEB7AD970FB6F894DEBF0FBECDBF082FE8
:1031900042E06EE370E0CE0101960E94BB0D898192
:1031A0009A818E30904F61F08EE090EF9DA78CA7B2
:1031B00042E06EE370E0CE018C960E94230C01E0A9
:1031C00088EAC82E85E0D82E10E090E4E92EF12C94
:1031D000002309F45DC045E250E06BEA71E0CE01E6
:1031E00001960E94AD2980E3810F8F8345E2B701EC
:1031F000CE0101960E94230CF601819191916F01FD
:103200002E85FC0121832C893D8935832483DC01B3
:10321000169620E1FE01769601900D922A95E1F72F
:1032200028893989FC0114A212A22115310511F057
:10323000378F268F2A893B89FC0115A213A22115FD
:10324000310511F031A320A36F85662359F0062EB6
:10325000000C770B812F0E945B0D60E0C7010E967A
:103260000E94460BF5E2EF0EF11C1F5F143009F0CF
:10327000AFCFAD960FB6F894DEBF0FBECDBFDF91D6
:10328000CF911F910F91FF90EF90DF90CF90089515
:1032900045E2B701CE0101960E94BB0DADCFCF93A1
:1032A000C82F803879F461E08DE493E00E9417091B
:1032B0001092FC011092FB018C2F0E948C0E81E079
:1032C000CF9108958034C1F78091FB019091FC016A
:1032D000892B91F381E00E94E41781E00E94B718E6
:1032E00083E493E00E942A0B0E94E70AE5CF8F92C5
:1032F0009F92AF92BF92CF92DF92EF92FF920F9385
:103300001F93CF93DF93EC018B01F090950521E49F
:10331000F2120AC090E080E00E94F02D6E8B7F8B4D
:10332000888F998F8FE4DFC08981833009F0F1C0E5
:10333000CA88DB88EC88FD8820E030E048EC52E465
:10334000C701B6010E94EB2D87FF0AC0A7019601B5
:1033500060E070E48EE495E40E94D02F6B017C0164
:10336000E881F0E0E150FE4F81A5882309F4C9C04F
:1033700081E000389EE3190708F080E081A783A16F
:1033800020E4829FC0011124800F911F813E9F4342
:1033900008F0A8C060912E0270912F0290E080E0AA
:1033A0000E94F02D9B01AC0160E070EC8FE794E48B
:1033B0000E94D02F9B01AC01C701B6010E94D02F03
:1033C0006B017C01B80190E080E00E94F02D20E0CC
:1033D00030EC4FE756E40E94D02FA70196010E94DF
:1033E000512E6B017C0120E030E0A9010E94EB2D01
:1033F00018160CF066C020E030E04AEA53E4C7013A
:10340000B6010E94783087FF5CC0C701B6010E94F8
:103410004230CB0164E170E00E942731262F062E56
:10342000000C330BF901E35EFE4F1491012F01955F
:1034300060312CF4F901E25EFE4F0491011B24E19E
:103440006202B0011124072E000C880B990B0E9418
:10345000F22D9B01AC01C701B6010E94632F20E051
:1034600030E040EA51E40E94D02F4B015C01602F14
:10347000000F770B880B990B0E94F22D9B01AC017A
:10348000C501B4010E94512E4B015C01612F110F47
:10349000770B880B990B0E94F22D9B01AC01C501A3
:1034A000B4010E94642F20E030E048EC52E40E9416
:1034B000D02F9B01AC01C701B6010E94642F6B01A4
:1034C0007C01B701A601CE01DF91CF911F910F9131
:1034D000FF90EF90DF90CF90BF90AF909F908F9034
:1034E0000C94000A85E58A83DF91CF911F910F919B
:1034F000FF90EF90DF90CF90BF90AF909F908F9014
:10350000089581E0003C92E1190708F080E081A76E
:1035100059CFCB010197803E9F4320F790E080E098
:103520000E94F02D9B01AC0160E070EC8FE796E407
:103530000E94D02F20E030E040E85FE30E94632F3C
:103540009B01AC016A897B898C899D890E94D02F5F
:1035500022E5F21208C02091B0053091B1052C1778
:103560003D0709F0DBCE0E9485306B017C012E8582
:103570003F85488959890E94512EA70196010E94D2
:10358000512E2A853B854C855D850E94642FA701BD
:1035900096010E94512E2E813F81488559850E94B7
:1035A000642F9B01AC0160E070E080E89FE30E9423
:1035B000D02F23E333E948E853E40E94632FAB01A3
:1035C000BC0181CFBF92CF92DF92EF92FF920F9317
:1035D0001F93CF93DF937C01B62E98EAC92E95E016
:1035E000D92EC1E0D0E0F601019111916F01F801EF
:1035F0008181823031F5FE01E658FE4F80818F37A0
:1036000021F0F701928189131CC0F4E070E060E0C2
:10361000BF1689F1F70160817181878182FF27C020
:10362000072E000C880B990B0E94F22D20E030E051
:1036300040E251E40E94D02FAB01BC01C8010E94BE
:10364000000A2196C530D10571F68B2D8570B9F031
:1036500080913C05882399F0DF91CF911F910F91C4
:10366000FF90EF90DF90CF90BF900C94C30F660F48
:10367000771F660F771FC8010E947719E2CFDF918D
:10368000CF911F910F91FF90EF90DF90CF90BF905F
:1036900008951F920F920FB60F9211242F933F930C
:1036A0008F939F93AF93BF938091F7019091F8010F
:1036B000A091F901B091FA013091F60123E0230FB6
:1036C0002D3758F50196A11DB11D2093F601809369
:1036D000F7019093F801A093F901B093FA0180915A
:1036E000F2019091F301A091F401B091F5010196DE
:1036F000A11DB11D8093F2019093F301A093F401F9
:10370000B093F501BF91AF919F918F913F912F9110
:103710000F900FBE0F901F90189526E8230F02966A
:10372000A11DB11DD2CF1F920F920FB60F9211247F
:103730002F933F934F935F936F937F938F939F93B9
:10374000AF93BF93EF93FF93E0910301F0910401D6
:103750000995FF91EF91BF91AF919F918F917F91CB
:103760006F915F914F913F912F910F900FBE0F90EE
:103770001F9018951F920F920FB60F9211242F933E
:103780003F934F935F936F937F938F939F93AF93E9
:10379000BF93EF93FF93E0910101F091020109952E
:1037A000FF91EF91BF91AF919F918F917F916F9119
:1037B0005F914F913F912F910F900FBE0F901F90EF
:1037C00018951F920F920FB60F9211242F933F93CB
:1037D0004F935F936F937F938F939F93AF93BF9319
:1037E000EF93FF9383E394E00E948805FF91EF91AC
:1037F000BF91AF919F918F917F916F915F914F9109
:103800003F912F910F900FBE0F901F9018951F9210
:103810000F920FB60F9211242F938F939F93EF93D4
:10382000FF93E0914304F09144048081E0914904C6
:10383000F0914A0482FD1BC0908180914C048F5FFF
:103840008F7320914D04821741F0E0914C04F0E019
:10385000ED5CFB4F958F80934C04FF91EF919F910E
:103860008F912F910F900FBE0F901F901895808110
:10387000F4CF1F920F920FB60F9211242F933F9304
:103880004F935F936F937F938F939F93AF93BF9368
:10389000EF93FF938091780190917901892B71F1D9
:1038A000809188009091890086509F4F80342CE948
:1038B000920710F090E080E0909389008093880058
:1038C000809178019091790101979093790180938B
:1038D00078018BB190E489278BB9FF91EF91BF916B
:1038E000AF919F918F917F916F915F914F913F9198
:1038F0002F910F900FBE0F901F9018950E94830775
:10390000ECCF1F920F920FB60F9211242F933F937B
:103910004F935F936F937F938F939F93AF93BF93D7
:10392000EF93FF9380910502882309F470C08150C2
:1039300080930502823081F58091080290E0FC01BD
:10394000EE0FFF1FEE0FFF1FE150FE4F40910102EF
:1039500050910202609103027091040243875487E0
:103960006587768781509E4F20910602309107022D
:10397000231BFC0123A3FF91EF91BF91AF919F9176
:103980008F917F916F915F914F913F912F910F9008
:103990000FBE0F901F9018958130D9F4909131028D
:1039A00080910802891302C09093320280917C00BA
:1039B0008F7080930802981303C08FEF80933202B8
:1039C000109201021092020210920302109204025D
:1039D000D2CF8111D0CF109206028FEF80930702D1
:1039E0008091080281110EC084E0809300028091D2
:1039F000090290E0019666E070E00E942731809312
:103A00000902B9CF8091FF0180930002B4CF2091C9
:103A10007C002F70E0910002EE23C9F1E150E093A9
:103A20000002809178009091790030913102321338
:103A300007C0F0E0EE0FFF1FED5CFD4F9183808328
:103A400040910102509102026091030270910402C0
:103A5000480F591F611D711D4093010250930202CE
:103A600060930302709304029695879596958795C7
:103A7000282F30910602381710F4809306023091F7
:103A80000702231708F077CF8093070274CF2730FF
:103A9000F8F0809178009091790090932F028093B4
:103AA0002E0210920802AE2FB0E0A150BE4F9996A0
:103AB0008C91811112C080E490917C00907C8917D8
:103AC00071F090E390930502E82BE0937C0053CFD4
:103AD0002111E9CFE0910902E6CF80ECEDCF93E030
:103AE000F1CF1F920F920FB60F92112428980F90CA
:103AF0000FBE0F901F9018951F920F920FB60F9246
:103B000011242F933F934F936F937F938F939F93A2
:103B100020918A0030918B004091A405443620F01A
:103B200080917C058430F9F08091A2059091A305E5
:103B3000BC01625E7F4F621B730B6D33710518F021
:103B400021153105E1F44F5F4093A405009759F02A
:103B5000289A2091840030918500820F931F9093C2
:103B60008B0080938A009F918F917F916F914F91ED
:103B70003F912F910F900FBE0F901F90189528170F
:103B8000390718F4C9014E96E1CFC9014E97DECF2F
:103B9000109236041092350488EE93E0A0E0B0E075
:103BA0008093370490933804A0933904B0933A0477
:103BB00089E191E0909334048093330485EC90E0A4
:103BC0009093400480933F0484EC90E090934204EF
:103BD0008093410480EC90E09093440480934304EC
:103BE00081EC90E0909346048093450482EC90E051
:103BF000909348048093470486EC90E090934A04A5
:103C00008093490410924C0410924D0410924E047B
:103C100010924F041092D3041092D2048BE291E0E0
:103C20009093D1048093D00410921D0510921C052E
:103C30008DE391E090931B0580931A0585E595E04F
:103C40009093D9048093D8048DED94E09093DB0495
:103C50008093DA0488E99AE09093DF048093DE048D
:103C600087E391E09093D7048093D60495E09093F6
:103C70003B0685E580933D0624E02093150680935E
:103C8000170623E02093EF058093F10522E02093AF
:103C9000C9058093CB0580E880937F0586E48093F7
:103CA000950510926C0510926B059093720589E44E
:103CB00091E090936A058093690561E08BE00E9432
:103CC000240461E08DE00E94240461E08AE00E9407
:103CD000240461E08AE00E94F60381E58CBDE0EEF9
:103CE000F5E0E491E0937405ECECF5E0E491F0E0AC
:103CF000EE0FFF1FE254FA4F859194919093760551
:103D00008093750561E084E00E94240460E089E608
:103D100095E00E94E90E88E08093710580936E051E
:103D200080917205882319F061E00E9424048BEFD2
:103D30009FEFFC013197F1F7FC013197F1F7019703
:103D4000F1F760E389E695E00E94310F8BE496E499
:103D50000197F1F760E389E695E00E94310F83E572
:103D600092E00197F1F760E389E695E00E94310F58
:103D700060E289E695E00E94310F60916E05606215
:103D800089E695E00E94130784E080936F056CE05C
:103D900089E695E00E94130789E695E00E947B077B
:103DA00082E08093700566E089E695E00E94130743
:103DB00082EE9AE1909342058093410580E88093DA
:103DC00043058FEF8093460580934F0580935805F8
:103DD0008093610583E09FE090933B0580933A05D3
:103DE0000895CF93DF93CDB7DEB72C970FB6F89435
:103DF000DEBF0FBECDBF789484B5826084BD84B52C
:103E0000816084BD85B5826085BD85B5816085BDD5
:103E100080916E00816080936E001092810080918D
:103E20008100826080938100809181008160809315
:103E30008100809180008160809380008091B1003A
:103E400084608093B1008091B00081608093B00065
:103E500080917A00846080937A0080917A008260F9
:103E600080937A0080917A00816080937A008091BB
:103E70007A00806880937A001092C100219A62E0F3
:103E800080E00E947B030E94BE04E0914304F09115
:103E9000440482E08083E0913F04F091400410826A
:103EA000E0914104F091420483E3808310924B043B
:103EB000E0914704F091480486E08083E091450456
:103EC000F0914604808180618083E0914504F09107
:103ED0004604808188608083E0914504F091460427
:103EE000808180688083E0914504F0914604808160
:103EF0008F7D80838AE090E00E94F7050E94380B56
:103F000080E880BF8FE380937E00809164008068AA
:103F100080936400569A8BE396E09093A905809372
:103F2000A80585E196E09093AB058093AA058FEEF6
:103F300095E09093AD058093AC0589EC95E0909366
:103F4000AF058093AE0580E00E94E41780E00E94F8
:103F5000B718209A80E49CE99093870080938600AC
:103F6000109280008AE18093810084E280936F0048
:103F70008EE480937C0080E480937B008FEE8093BE
:103F80007A000E9429038FEF809331020E94710E04
:103F900082E00E946E096BE186ED94E00E94A40726
:103FA00088E199E20FB6F894A895809360000FBE5F
:103FB00090936000A895EFE7F1E001900020E9F709
:103FC000E058F140E98383E394E00E9468058C01A6
:103FD000892B09F466C283E394E00E9446058A3087
:103FE00019F08D3009F051C22981211108C090E0EB
:103FF000E92FF0E0E158FE4F10829983E4CF8091E1
:104000007F018F32A1F7A0E8B1E00D900020E9F721
:10401000A158B140BB83AA8380911505811103C0CB
:1040200081E08093150547E050E06CE774E080E89C
:1040300091E00E94B629892B11F5EA81FB81FF27C7
:10404000E158FE4FF081F9838F2F0E945D03298193
:10405000233411F0263429F469818DE190E00E9427
:10406000460B0E945012809187018A330CF0BFCF1B
:1040700087E891E00E948F290E94800DB8CF47E029
:1040800050E064E774E080E891E00E94B629892B53
:1040900049F463ED7BE087E891E00E9448130E94B9
:1040A0007610A5CF47E050E06CE674E080E891E040
:1040B0000E94B629892B49F468E77CE087E891E003
:1040C0000E9448130E949C1092CF47E050E064E6A3
:1040D00074E080E891E00E94B629892B49F46BE5F1
:1040E0007DE087E891E00E9448130E9456117FCF3F
:1040F00047E050E06CE574E080E891E00E94B6296A
:10410000892B09F051C04A814A3060F089E891E07A
:104110000E948B2920918701243609F443C02CF496
:10412000223649F00E94501262CF2936C9F1203759
:10413000C9F721E001C020E0A22FB0E0BB83AA8331
:10414000FD01EE0FFF1FEE0FFF1FED54FA4F6083CE
:10415000718382839383223079F420E030E0A901D7
:104160000E94EB2D811108C010928D0510928E05D2
:1041700010928F05109290056A817B81660F771FE0
:10418000660F771F695F7F4F8A819B81880F991F18
:10419000880F991F44E08D549A4F0E94230CC2CF80
:1041A00022E0CACF23E0C8CF46E050E065E574E0E6
:1041B00080E891E00E94B629892BB1F4BA81B93028
:1041C00080F0609186016053643058F4E5E26E9FA0
:1041D000602D1124605C70E04DE088E891E00E9461
:1041E000230C0E94311303CF46E050E06EE474E0EC
:1041F00080E891E00E94B629892B09F086C0FA81F7
:10420000F83008F482C080918601A0ED9A2E980EB5
:1042100023E0291508F46CC035E2939E802D11240B
:10422000E5E58E2E880E712C48E851E05B834A83C9
:10423000092D10E0000F111F08551A4FAA81BB81EC
:104240008C91882309F451C0B3E0B71508F485C7F1
:104250008C3249F47394EA81FB813196FB83EA83C3
:10426000F4E08F0EEBCFD801AD90BC90B4E07B9E14
:10427000700111246701E6E0CE0ED11CCA0CDB1CD4
:104280008A819B810E948B29EA0CFB1CD701169620
:104290006D937D938D939C931997682D70E044E006
:1042A000C6010E94230CEA81FB81FB83EA83819192
:1042B000882321F28C32C9F7C1CF6E15B1F0892D58
:1042C0000E945E0BB2E0EB1210C0EA81FB81E55860
:1042D000FE4F2FE720836FE78A819B8149960E94DA
:1042E000460B0E94B5100E94710E892D0E9471121A
:1042F00080E00E94711281E00E94711282E00E94AF
:10430000711283E00E94711272CE47E050E066E4C1
:1043100074E080E891E00E94B629892B49F46FE3AC
:104320007CE087E891E00E9448130E9410115FCE64
:1043300047E050E06EE374E080E891E00E94B62927
:10434000892B49F46DE77BE087E891E00E944813F0
:104350000E9434104CCE47E050E066E374E080E801
:1043600091E00E94B629892B71F487E891E00E94C0
:10437000A7038091E0048831E1F168E186ED94E0E3
:104380000E94A40734CE47E050E06EE274E080E87B
:1043900091E00E94B629892B39F46BEE79E087E829
:1043A00091E00E94481323CE47E050E066E274E0BB
:1043B00080E891E00E94B629892BF1F480911505DF
:1043C000823009F014CE81E08093150587E891E0F2
:1043D0000E948F299093140580931305E7E8F1E07C
:1043E000CF012191222319F0CF012C32C9F70E946D
:1043F000A7030E944707FBCD46E050E06FE174E061
:1044000080E891E00E94B629892BF9F40E94380BCC
:104410000E9450120E9434100E94311380E00E94CA
:10442000711281E00E94711282E00E94711283E099
:104430000E9471120E9456110E949C100E947610D8
:104440000E9410110E94B510D2CD44E050E06AE104
:1044500074E080E891E00E94B629892B19F40E944B
:10446000380BC5CD45E050E063E174E080E891E0B1
:104470000E94B629892B09F0BACDF89488E180937F
:10448000600089E080936000FFCF99819F5F298160
:10449000E22FF0E0E158FE4F8083903608F0A7CD80
:1044A000A7CDA0903C05A11087C20E94B204209124
:1044B000780530917905DB01A21BB30BBB83AA837E
:1044C00080918105909182050097A1F08A179B0742
:1044D00088F480919D0580FF03C00091960510E04F
:1044E000B80183E00E945504109282051092810564
:1044F0001092A10580917F054DE451E0849F9001C9
:10450000859F300D1124EA81FB812E173F0728F487
:104510008F5F80937F050E94B70A2A813B81283EE6
:10452000334008F47EC581E080937F050E94B20489
:10453000609378057093790580937A0590937B0555
:104540005FEF5093A60507E715E0F12CEE24E39406
:10455000D801D1960D90BC91A02DBB83AA83119652
:104560008C9111978D7F813049F46EE08C910E947F
:104570005B0ABC018A819B810E947719F80101A81E
:10458000F2A9E02DFB83EA8382818F3409F0F0C227
:1045900066897789808D918D23812111B4C2628FC4
:1045A000738F848F958FE38280917C05843009F42A
:1045B000DFC2EA81FB8166897789808D918D0E94B7
:1045C0004230AA81BB815E968D919C915F971816AF
:1045D000190634F4861797070CF0B2C29496EC9241
:1045E000AA81BB8190968D919C919197181619067E
:1045F0004CF49C0121503109621773070CF0ACC2D6
:104600009596EC928091C7059091C805892B39F059
:10461000AA81BB8193961C92939792961C92AA8131
:10462000BB8192968C91882309F4A9C2F092A605C9
:104630000E5F1F4FF394F394F8E0FF1289CF20919F
:104640007C052983233008F058C1309177053B87DA
:10465000109277054091B0055091B1055B834A8374
:104660002090C7053090C805DA0156964D905D90B0
:104670006D907C905997E0917D05F0917E05FA87C9
:10468000E98712968C918F3409F002C1211431040C
:1046900009F0FEC0BF01FF0F880B990B0E94F22D9D
:1046A0006C837D838E839F83A30192010E94632F7D
:1046B0004B015C01C090B705D090B805E090B905FA
:1046C000F090BA0520E030E0A901C701B6010E94D0
:1046D000EB2D87FF5FC22DEC3CEC4CEC5EEB6C816C
:1046E0007D818E819F810E94512EA30192010E94A3
:1046F000642FA70196010E94512E60938905709343
:104700008A0580938B0590938C05F981F23009F42A
:1047100046C220919705288720E030E0A901C50115
:10472000B4010E94EB2D87FF03C04B8541110FC0E0
:1047300020E030E0A901C501B4010E9478301816CC
:104740000CF067C05B858885581708F062C020911F
:10475000BB053091BC054091BD055091BE05C5011A
:10476000B4010E94512E20918D0530918E0540910B
:104770008F05509190050E94642F8B018C879B8739
:10478000A8856A2F70E090E080E00E94F02D4B0138
:104790005C0120E030E0A901C701B6010E94EB2DC9
:1047A00087FF16C02AE939E949E15FEBC701B60185
:1047B0000E94512E2C813D814E815F810E94512E9D
:1047C0009B01AC01B401C5010E94642F4B015C0147
:1047D00020E030E0A901B8018C859B850E94EB2D7B
:1047E00087FDE0C19401A501B8018C859B850E94DD
:1047F000783018161CF48401AC86BB86C801AC85E1
:10480000BB8580938D0590938E05A0938F05B09303
:104810009005A3019201EA81FB81628D738D848DE5
:10482000958D0E94632F2091BF053091C005409166
:10483000C1055091C2050E94512E6B017C01C092AE
:104840009105D0929205E0929305F0929405209103
:104850008D0530918E0540918F05509190056091A6
:10486000890570918A0580918B0590918C050E9435
:10487000642FA70196010E94642F0E94423077FDA9
:1048800096C16536710514F064E670E060937705B3
:10489000C301B2010E94423029853A85261B370B9D
:1048A000121613060CF485C180918305909184053E
:1048B000821993094E9708F47CC1F981F11116C051
:1048C00020E030E040E05FE360918D0570918E055F
:1048D00080918F05909190050E94512E60938D05D7
:1048E00070938E0580938F059093900582E080935E
:1048F0007C051092C8051092C705809177058983C1
:10490000C090C305D090C405E090C505F090C605E1
:10491000682F70E090E080E00E94F02DA7019601E2
:104920000E94632F21E837EF47E05CE30E94512E9D
:10493000A70196010E94642F6093C3057093C4057C
:104940008093C5059093C60580919905998130E0C3
:104950009817A8F064E6681B90917C05911161C1DD
:1049600090919705A981A81BBB0B9A9FA0019B9FC3
:10497000500D112470E0CA010E941331362F10929D
:1049800082051092810520919805321708F44CC1D8
:1049900010928005232F80919D0580FF04C0809197
:1049A0009605821B282F20939E05211165C1109228
:1049B000A1050E94B70A7BC1F12C43E0D42E54E636
:1049C000C52E6AE0B62E70C40E94D70D811170C446
:1049D00044E455E05B834A83EA81FB8182818F3F17
:1049E00031F10E94B204AA81BB8113968D909D90F3
:1049F000AD90BC901697681979098A099B096132B4
:104A00007F4B8240910598F0E0914105F09142057D
:104A1000309721F064E08A819B810995EA81FB81CE
:104A200082818F3F21F02FEF2283118210824A81F1
:104A30005B81475F5F4F5B834A834856554061F611
:104A4000FF2009F432CD62E089E00E947B032DCD86
:104A5000D092FD010E94B20460933D0570933E0523
:104A600080933F05909340059091EC018091430520
:104A7000992339F0882309F416C4815080934305A3
:104A800012C48F3F19F08F5F809343058091E2013C
:104A900054E0859FC0011124982F9C738091E301FD
:104AA0008295869586958370892B4091460584175B
:104AB00009F47DC330914F05831709F47CC320911D
:104AC0005805821709F47CC390916105891709F490
:104AD0007CC34F3F09F413C43F3F09F414C42F3F74
:104AE00009F415C49F3F09F0DEC393E09A83A3E065
:104AF0006AC3472F50E0542F442744275F70462B4A
:104B000051874087C8C3EA81FB81828C938CA48C37
:104B1000B58CA50194010E94632F2AE83BE446E08E
:104B20005DE30E94512EA50194010E94642FAA8189
:104B3000BB815A966D937D938D939C935D9734CDF5
:104B4000681779070CF04CCDEA81FB8184A188239A
:104B500009F446CDE2A244CD681779070CF452CD92
:104B6000EA81FB8185A1882309F44CCDE3A24ACDDB
:104B7000EA81FB8114A212A215A213A250CDEA81F0
:104B8000FB8183A1882309F453CD81E08F0D8093AD
:104B9000A6054ECDA7019601C501B401ACCD34E602
:104BA0003887BACD00E010E01C861B8627CE60E077
:104BB0006DCEC1010197232879F54091B2054423B8
:104BC00009F49BCE5981523009F097CE54E6529F9A
:104BD000C001539F900D112469857A850E94273169
:104BE0004617170611F00CF088CE6091C30570913E
:104BF000C4058091C5059091C6050E9442306A3572
:104C000071050CF07ACE81E080937C0510927705D7
:104C100080918305909184059093C8058093C70582
:104C20006CCE909196059ECE4091800588EE93E0E3
:104C3000489FF001499FF00D1124622F70E080E140
:104C400097E20E942731369FC001379F900D1124B3
:104C5000E817F90760F48E1B9F0B909382058093F1
:104C600081054F5F4A3028F44093800594CE20E0C0
:104C7000F8CF109280058FCE3091A10580919D05CF
:104C800084FFA9C0B7E82B9FC001112464E670E03F
:104C90000E942731625A6093A10531118ACE6FEFCD
:104CA00070E083E00E94550480E88093A005809125
:104CB000770560919C05861708F496C084E680937A
:104CC0009F0580919D0581FF06C090919F0584E618
:104CD000891B80939F0520919B0540919A05421B5B
:104CE000550B30919F05349FC001359F900D1124C5
:104CF00064E670E00E942731260F44E1249F900172
:104D000011248091A5058F3F19F08F5F8093A50531
:104D10008091A2059091A30528173907A9F08C5915
:104D20009F4F821B930B893C910520F48091A50530
:104D30008B3050F0F8941092A4053093A305209383
:104D4000A20578941092A505809131028F3F09F455
:104D500056C0809130028F5F80933002853008F416
:104D60004EC0F8949091320280913102981346C05F
:104D70005FEF5093310278941092300284E894E00F
:104D80000E942A0B8091320294E0C92E8111C090BA
:104D9000FF0103E312E0D12CF12CE12CDC1409F427
:104DA000B5C1D801ED91FD918D01FB83EA83EE162B
:104DB000FF0608F092C18BE20E94250B6A817B817D
:104DC0006E197F096230710508F498C180ED94E096
:104DD0000E94B60F93C1EFEF2E9FC001112464E62D
:104DE00070E00E94273157CFF4E68F9FC001112455
:104DF00070E00E94133160939F0563CF7894809197
:104E0000EE049091EF040E949F078091ED018F5F67
:104E10008093ED018F7129F480913C0581110E94EE
:104E2000C30F80E994E00E942A0B80917C058430B6
:104E300009F073C185E50E94250B0E94430B809108
:104E4000B0059091B1050E941E138091AA05909122
:104E5000AB050E941E138091AC059091AD050E9498
:104E60001E138091AE059091AF050E941E136091B4
:104E7000770580ED94E00E94BC0F0E94430B609187
:104E8000C3057091C4058091C5059091C6050E9427
:104E90004230CB010E94DC100E94430B6091C70599
:104EA0007091C80580ED94E00E94B60F0E94430BFC
:104EB00060919E0580ED94E00E94BC0F0E94430B20
:104EC00060919F0580ED94E00E94BC0F0E94430B0F
:104ED00060917C0580ED94E00E94BC0F0E94E70A7F
:104EE0008091A7058823D9F18091B0059091B105F3
:104EF0009B838A83DC0112968C918F3481F58AE83A
:104F000094E00E942A0B05E815E0F80141915191C7
:104F1000619171918F0122E080ED94E00E946E1109
:104F20000E94430BF5E005391F0779F7AA81BB8181
:104F30005A962D913D914D915C915D9756966D914C
:104F40007D918D919C9159970E94632FAB01BC017B
:104F500022E080ED94E00E946E110E94E70AE8EAE8
:104F6000F5E0FB83EA8311E0AA81BB81ED91FD911D
:104F7000BB83AA8362A1812F0E947B03EA81FB810C
:104F800032970190F081E02D63A181E0810F0E94B2
:104F90007B031E5F193041F7B091A605B98361E02C
:104FA000BF3F09F460E08EE00E947B038091000126
:104FB000E981EF3F09F4BCC08F3F59F41092EE0134
:104FC0001092EF011092F0011092F10184E08093B1
:104FD00000010E94101167E086ED94E00E94A40792
:104FE0008091ED0183708130D1F486E994E00E94D4
:104FF0002A0B22E232E03B832A830E94430BAA81E0
:10500000BB816D91BB83AA8380ED94E00E94BC0FAD
:10501000EA81FB81E852F24081F70E94E70A0E9490
:10502000B00986ED94E00E94320930910001398385
:105030003F3F09F440C00E94B2045981452F50E01F
:105040005B834A83FA01E556FB4FE4912091EE0120
:105050003091EF01AB01421B530B1AE0E19FF001CD
:105060001124E417F50738F50E94B2046093EE01AD
:105070007093EF018093F0019093F1018A819B81FD
:10508000019666E070E00E9413318093000140E0D9
:105090006091730580FD0BC085569B4FFC01849188
:1050A000819F802D11240E948A0740E060E089E6FC
:1050B00095E00E9464070E94BE0480E090E0892B86
:1050C00011F40C94DA1F0E947405882311F40C94D7
:1050D000DA1F0E9400000C94DA1F2A813B812E15F2
:1050E0003F0580F48DE20E94250BB7014A815B8168
:1050F000641B750B6130710509F068CED394EA80AA
:10510000FB804CCE8EE20E94250BF8CF0E94E70A6E
:10511000809132028093310272CE833011F48DE29D
:105120008ACE80917D0590917E050E94DC1085CE0F
:105130008F3F61F0F981F09300010E94830740E006
:105140006091730589E695E00E9464078091E00410
:10515000873009F045CF62E03FCF8A819B810E9472
:105160008F29682F292D30E03B832A83F901EE0F28
:10517000FF1FE958FA4F01A8F2A9E02DE18067FF6F
:105180009CC870E8F72EF60E0A811B8105581E4F49
:1051900032E0E31204C0D8018C91F81621F062E0ED
:1051A000892D0E945E0BF801F0826F2D95C81A823E
:1051B00032E039830EC041E04A8352E0598309C08E
:1051C00092E09A83A2E0A98304C0B3E0BA83E2E04C
:1051D000E983BA81EB2EF12C29E02E9DF0012F9D61
:1051E000F00D1124E45CFA4F9285891719F082873B
:1051F000118610860E94B204A9E0AE9DF001AF9D19
:10520000F00D1124E45CFA4F6387748785879687D5
:105210007091E301272F207275FD22E08091E50156
:1052200087FD21608F778F3709F02460BA81E9E02C
:10523000BE9FC00111248C5B9A4F39E03E9DF00166
:105240003F9DF00D1124E45CFA4F27872091E10186
:105250002695208B6091E401DC0117962C9122FFAA
:1052600048CC6A3A01F17F70462F50E034E0559502
:1052700047953A95E1F7B49E9001B59E300D112403
:105280007C9D200D311D11246F70260F311D20597A
:10529000314031872087E0914105F09142053097F8
:1052A00011F069810995FA2C8091FE0181118CCB56
:1052B0008091FD01843039F49091E0018091DF010B
:1052C000981709F4C5CB8091FD01833009F080CB9C
:1052D0001092DF011092EC013FEF3093E00194E077
:1052E0009093FD01F8948093E10183EA94E90E9490
:1052F0001C0689ED92E80E941C06789469CB1A82FC
:10530000F3E0F98366CF21E02A8333E052CF42E015
:105310004A8353E053CF662777270C94D62BFC01A2
:1053200088279927E89421912032E9F3293010F059
:105330002E30C8F32B3241F02D3239F4689404C07A
:105340000E94C429820F911D219120532A30C0F35D
:105350001EF4909581959F4F0895FB01DC0102C0DA
:1053600005900D9241505040D8F70895FB01DC01A3
:105370004150504030F08D910590801919F4002073
:10538000B9F7881B990B08957AE0979F902D879F16
:10539000802D910D11240895AEE0B0E0E2EDF9E228
:1053A0000C942B2F0D891E898F89988D2EE02C83CC
:1053B0001A83098397FF02C080E090E801979E83DB
:1053C0008D83AE01455E5F4F698D7A8DCE0101966A
:1053D0000E94FC294D815E8157FD0AC02F813885CE
:1053E000421753070CF49A01020F131FF8011082A1
:1053F0002E96E4E00C94472FABE0B0E0E2E0FAE256
:105400000C941D2F7C013B018A01FC01178216823E
:10541000838181FFC8C1CE0101965C01F7019381B0
:10542000F30193FD859193FF81913F01882309F456
:1054300053C1853239F493FD859193FF81913F01EA
:10544000853229F4B70190E00E945D2DE7CF912CC1
:10545000212C312CFFE1F31538F08B3211F190F44F
:10546000803209F1833229F137FC3CC020ED280F4E
:105470002A3050F536FE20C08AE0989E200D112477
:10548000922E06C08D3291F0803371F7689430F817
:10549000F30193FD859193FF81913F018111DACF53
:1054A00021C0689431F8689432F8F2CF689433F8E8
:1054B000EFCF689434F8ECCFEAE02E9E200D112453
:1054C000222E689435F8E4CF8E3229F436FC04C1DC
:1054D000689436F8DDCF8C3619F4689437F8D8CF55
:1054E0008836B1F2982F9F7D95549330E0F0833643
:1054F000A1F18337C1F1833509F063C02801F2E0DF
:105500004F0E511CF801C080D180692D70E036FC2F
:1055100002C06FEF7FEFC6010E94472D4C016894D7
:1055200037F882010AC00C5F1F4FFFE3F98388241C
:105530008394912C6501E89437F833FE2DC0522CEA
:105540008114910471F5552009F468CFB70180E208
:1055500090E00E945D2D5A94F6CFF80180818983F6
:105560000E5F1F4FE4CF2801F2E04F0E511CF801EF
:10557000C080D180692D70E036FC02C06FEF7FEFF4
:10558000C6010E94522D4C018201D5CFB70180E2A5
:1055900090E00E945D2D2A942814190409F0B0F7B8
:1055A000CECFF60137FC859137FE81916F01B701AF
:1055B00090E00E945D2D51105A94F1E08F1A9108ED
:1055C000BFCF843619F0893609F077C0F80137FE6D
:1055D0006BC060817181828193810C5F1F4FF32DBD
:1055E000FF763F2E97FF09C0909580957095619545
:1055F0007F4F8F4F9F4F689437F82AE030E0A50126
:105600000E948D2DC82ECA188C2C432C36FE0CC03F
:10561000E89440F8C91440F434FE05C032FC03C0DD
:10562000F32DFE7E4F2E892C44FE95C0FE01EC0D1D
:10563000F11D8081803309F087C0242D297E422E00
:10564000842D8870582E43FC95C040FE8FC09C2C42
:10565000821418F42C0C922C981844FE91C0B701B7
:1056600080E390E00E945D2D42FE09C088E790E053
:1056700041FE02C088E590E0B7010E945D2DC9148B
:1056800008F48AC0CA94D12C9FEFC91AD90ACA0C4F
:10569000DB1CF60182916F01B70190E00E945D2D45
:1056A000AC14BD04B1F74FCF60817181072E000C9F
:1056B000880B990B0E5F1F4F92CFD32CE894D4F830
:1056C0002AE030E0853739F1232D297FD22E8F361D
:1056D00001F148F48835A9F0F701868197812B966E
:1056E000E2E10C94392F803749F08837A9F7D4FECE
:1056F00002C06894D2F820E130E00DC06894D4F87C
:10570000F6CF34FE03C0822F8660D82E20E132E02F
:1057100002C028E030E0F801D7FE0FC0608171813F
:10572000828193810C5F1F4FA5010E948D2DC82E91
:10573000CA183D2CE89437F867CF6081718190E0FA
:1057400080E00E5F1F4FF0CF42FC02C0839478CF01
:105750008394839475CF842D867809F471CFF6CF26
:10576000B70180E290E00E945D2D83948214C0F323
:10577000512C73CF522C5818821408F46ECFF8CFE6
:10578000842D867809F47BCF8BE241FE80E247FCD2
:105790008DE2B70190E071CFB70180E390E00E9405
:1057A0005D2D9A946CCF8FEF9FEF99CFB0E0A0E082
:1057B000ECEDFBE20C94232F5C017B01611571057C
:1057C00019F0DB018D939C9385010F5F1F4FF5014D
:1057D000D0818D2F90E00E94262D6C01892BB9F588
:1057E000DD32B9F50F5F1F4FD5011196DC91C1E095
:1057F0005801F1E0AF1AB10843E050E06AEC70E004
:10580000C5010E942F2D892B69F5680182E0C80E21
:10581000D11C45E050E065EC70E0C6010E942F2DE0
:10582000892B21F4680197E0C90ED11CE114F10421
:1058300019F0D701CD92DC9260E070E080E89FEF34
:10584000C111FFC060E070E080E89FE7FAC0580136
:10585000BBCFDB3229F485010E5F1F4FF501D181EB
:10586000C0E0C6CF43E050E062EC70E0C5010E94AA
:105870002F2D892BE9F0F80110E000E020E030E066
:10588000A9015F01B0ED8B2E8D0E89E08815C8F15E
:105890009C2E689491F88C2F8870C2FF16C08111DD
:1058A00002C00F5F1F4F3196D501DC91C92DE9CFA2
:1058B000E114F10429F00E5F1F4FF70111830083FB
:1058C00060E070E080EC9FE7BCC0882311F00150DD
:1058D0001109A5E0B0E00E94122F9B01AC01220F3C
:1058E000331F441F551F280D311D411D511D2839DF
:1058F00099E93907490799E15907A8F2C6609C2E32
:10590000D2CFAEEF8A1206C0C3FD3CC09C2E689475
:1059100093F8C9CFDF7DD534A9F580818D3239F474
:10592000C061DF011296818162E070E006C0DF0194
:105930008B32C1F3119661E070E080535D01A61ACD
:10594000B70A8A30F8F4E0E8CE16ECE0DE065CF444
:10595000B601660F771F660F771FC60ED71ECC0CD9
:10596000DD1CC80ED11C5D01FFEFAF1ABF0A8C9180
:1059700080538A30A8F1C4FF03C0D194C194D108E8
:105980000C0D1D1DC1FF09C0E114F10431F081E0CF
:10599000A81AB108D701AD92BC92CA01B9010E9400
:1059A000F02DC370C33009F490584B015C0120E026
:1059B00030E0A9010E94EB2D882309F440C0C9EF13
:1059C000D0E017FF05C0119501951109C1EED0E097
:1059D0006E01B8E1CB1AD10880E2E82EF12C0FC09D
:1059E000D501B1CFFE0125913591459154910E1904
:1059F0001F09C501B4010E94512E4B015C01D50164
:105A0000C4010E151F0574F72497F594E794CC167E
:105A1000DD06A9F78A2F880F8B2F881F8F3F49F04B
:105A200020E030E0A901C501B4010E94EB2D8111F5
:105A300006C082E290E09093620680936106C50101
:105A4000B401CDB7DEB7ECE00C943F2F91110C946C
:105A5000BE2E803219F089508550C8F70895FB0199
:105A6000DC014150504088F08D9181341CF08B3521
:105A70000CF4805E659161341CF06B350CF4605E53
:105A8000861B611171F3990B0895881BFCCFFC01F3
:105A90000590615070400110D8F7809590958E0F59
:105AA0009F1F0895FC016150704001900110D8F7CC
:105AB000809590958E0F9F1F08950F931F93CF93FE
:105AC000DF93182F092FEB018B8181FD09C01FEF98
:105AD0000FEF812F902FDF91CF911F910F9108959C
