:100000000C94F5020C94B61B0C948F1B0C942303D8
:100010000C9423030C9423030C9423030C942303C8
:100020000C9423030C9423030C94781D0C94351C1E
:100030000C946D1D0C9423030C9423030C94230344
:100040000C94451B0C9423030C94031C0C94DD1B93
:100050000C9423030C947D1C0C9423030C94230315
:100060000C9423030C94230308000000BE9224493F
:10007000123EABAAAA2ABECDCCCC4C3E00000080DA
:10008000BEABAAAAAA3E00000000BF000000803F4D
:100090000000000000084178D3BB4387D1133D190D
:1000A0000E3CC3BD4282AD2B3E68EC8276BED98F3A
:1000B000E1A93E4C80EFFFBE01C4FF7F3F0000007E
:1000C00000004E414E494E495459494E46CDCCCC84
:1000D0003D0AD7233C17B7D13877CC2B329595E61C
:1000E000241FB14F0A000020410000C84200401CFC
:1000F0004620BCBE4CCA1B0E5AAEC59D744B636FE6
:1001000075706C65005246576972656C005468657D
:10011000726D69730044697361626C6500C10000AF
:10012000ECD8B29D9CC3EC143D51654F3B14484D37
:10013000524D00484D50432C00484D504E00484D04
:1001400050442C302C00484D504F00554349442C0E
:100150004865617465724D657465722C3230323158
:100160003032303200484D4C442C00484D4C422C2B
:1001700000484D414C00484D464E2C000EF0E10029
:1001800006F00000000000000080400AD7A33C00F9
:1001900000A04000327F7F7F7F46006410FF640D27
:1001A0000A0B0064C8006450726F62652020000072
:1001B000000000000100D8FF38FF0000FB7E403A3D
:1001C000423962390959CC3300401C4600040E1FE5
:1001D00004040400000404041F0E0400070F1F1F82
:1001E0001F1F1F1F1F1F1F00000000001C1E1F1FBE
:1001F0001F1F1F1F1F1F1F1F1F1F0F0700000000B3
:10020000001F1F1F1F1F1F1F1F1F1E1C1F1F1F0040
:1002100000001F1F1F000000001F1F1F000102031E
:100220000405010220200520060602030707060632
:1002300002070705030402202005FF06060707053D
:100240000006060307050101022000200006020344
:100250000705000602202005252D31327325336461
:10026000DF005069743A253364DF25632025632558
:10027000337525252563005069743A253364DF25DD
:1002800063204C6964253375005069743A253364E2
:10029000DF256320205B4F66665D002D204E6F20BA
:1002A0005069742050726F6265202D002A2A204107
:1002B0004C41524D2048494748202A2A002A2A20EA
:1002C000414C41524D204C4F5720202A2A002533C3
:1002D00064DF2563005365742074656D7065726119
:1002E000747572653A004F666673657420253464D0
:1002F000DF25630025336425252062656C6F772038
:10030000736574004C6964206F70656E206F66665B
:1003100073657400253364207365636F6E647300C6
:100320004C6964206F70656E2074696D6572004D54
:10033000616E75616C2066616E206D6F646500484A
:100340004D52432C555345520052657365742063DA
:100350006F6E6669673F007370656564202533645E
:100360002525004D6178696D756D206175746F206C
:1003700066616E002533642525004C43442062727B
:10038000696768746E6573730042746E25303375E7
:100390003D253175202020424725303375004661C8
:1003A0006E253033753D2530337556202530327536
:1003B0004E7A00202020202020200015010D01056C
:1003C00001FD00502531752041442531632530352C
:1003D0007520253032754E7A00484D48492C003240
:1003E00030323130323032003E20486561746572FF
:1003F0004D65746572203C0057616974696E672EA3
:100400002E2E004F66666C696E65007265626F6FB6
:1004100074007563696400636F6E66696700736575
:10042000743F68693D007365743F74703D00736587
:10043000743F74743D007365743F666E3D00736570
:10044000743F616C3D007365743F70630073657445
:100450003F706E007365743F706964007365743F2C
:10046000706F3D007365743F6C643D007365743F4D
:100470006C623D007365743F73703D00484D4E449F
:100480002C00484D50532C00484D53552C00484DDE
:100490004152000A050A050A320000000024002724
:1004A000002A004E6F200059657300484D52462CBB
:1004B0003235352C302C00000000002300260029A6
:1004C0000000000008000201000003040700000013
:1004D00000000000001B2F0603280403020A030487
:1004E0000504280504020A04040305280305020A7A
:1004F00005040406280306020A0604050A21030A65
:10050000021414210314111914021A1A21031A02D5
:100510001616210316021717210317020E0E2103C8
:100520000E020F0F21030F021010210310021111F0
:1005300021031102121221031202131321031302C9
:100540001515210315020A19110300000003BE0C42
:10055000050104BE0C050105BE0C050106BE0C011B
:1005600001073C1100000A01160A0014AC0E0A0132
:100570000EBD150A000FBD150A0010BD150A0011A9
:10058000BD150A001292150A001366150A00154BD4
:10059000190A00172E150A0016ED140A00180B0987
:1005A000140019DC0800011AEE0F0A001B530901A0
:1005B00000000000000000000000250028002B00C3
:1005C00004040404040404040202020202020303F9
:1005D0000303030301020408102040800102040801
:1005E0001020010204081020C41D11241FBECFEFEB
:1005F000D8E0DEBFCDBF14BEE0E6F0E088E1808346
:10060000108226E0A6E6B1E001C01D92A334B20735
:10061000E1F711E0A0E0B1E0E2E9F2E602C0059006
:100620000D92A636B107D9F712E0C5EFD2E004C0AB
:100630002197FE010E943A31C43FD107C9F70E94B9
:10064000ED1E0C9447310C94000080918805909128
:1006500089059093910580939005E8E8F5E0A191D4
:10066000B19111968C911197882329F0B09391053F
:10067000A0939005089585E0E039F80781F7089583
:1006800080937D0590EC85FD03C09FEF86FD90EA89
:10069000F8949093DF0193E09093E5017894909320
:1006A000B00084FF04C081E08093B100089585E02C
:1006B000FBCF863429F064F4813411F0833461F483
:1006C00080937505E0919005F0919105138208954E
:1006D0008F3419F08235A1F3089584E080935C058E
:1006E0001092A8051092A70510925705F5CFFF921A
:1006F0000F931F93CF93DF93F82E062FC8E0D5E01A
:1007000010E06881862F8F778F1113C009838A814B
:10071000823079F0023069F0661F6627661F602715
:10072000861739F06A83E0911A05F0911B05812F35
:1007300009951F5F2396143021F7DF91CF911F9108
:100740000F91FF900895DC0190E080E22D9121113E
:100750000AC0E92FF0E0EE52FB4F80E29132C0F484
:100760009F5F8193FBCF913298F4E92FF0E029301D
:1007700034F42150EA54FB4F248F9F5FE7CF2C3293
:10078000C9F7EE52FB4F903108F79F5F8193FBCF83
:100790000895833081F028F4813099F08230A9F0F7
:1007A00008958730A9F08830C9F08430B1F4809181
:1007B00080008F7D03C0809180008F7780938000C0
:1007C000089584B58F7784BD089584B58F7DFBCF60
:1007D0008091B0008F778093B00008958091B00031
:1007E0008F7DF9CF1F93CF93DF93282F30E0F9014E
:1007F000EF53FB4F8491F901EC52FA4FD491F90178
:10080000E054FA4FC491CC23A9F0162F81110E9415
:10081000C903EC2FF0E0EE0FFF1FEA54FA4FA59149
:10082000B4918FB7F894EC91111108C0D095DE23E4
:10083000DC938FBFDF91CF911F910895DE2BF8CF0E
:10084000CF93DF9390E0FC01EC52FA4F2491805457
:100850009A4FFC0184918823D1F090E0880F991F72
:10086000FC01E756FB4FA591B491FC01EA54FA4F05
:10087000C591D49161110EC09FB7F8948C91E22F6D
:10088000E0958E238C932881E223E8839FBFDF913C
:10089000CF9108958FB7F894EC91E22BEC938FBF32
:1008A000F6CF1F93CF93DF93182FEB0161E00E94E7
:1008B0002004209739F460E0812FDF91CF911F91C0
:1008C0000C94F203CF3FD10511F461E0F5CFE12F95
:1008D000F0E0EF53FB4FE491E33031F140F4E130CD
:1008E000B1F0E230E1F0C038D1057CF7E4CFE73079
:1008F00029F1E83059F1E430B1F78091800080624D
:1009000080938000D0938B00C0938A0004C084B58C
:10091000806884BDC7BDDF91CF911F91089584B5D4
:10092000806284BDC8BDF7CF8091800080688093CD
:100930008000D0938900C0938800EDCF8091B000F3
:1009400080688093B000C093B300E5CF8091B00081
:1009500080628093B000C093B400DDCF2FB7F894CD
:100960006091D7017091D8018091D9019091DA01FD
:100970002FBF08951F93CF93DF930E94AE04209161
:100980001905222349F02091140530911505621BA9
:10099000730B643F714048F10E94AE0460931405EC
:1009A00070931505809316059093170581E0809349
:1009B0001905809118058F5F80931805C8E0D5E070
:1009C00010E08091180580FF14C08981823049F4BD
:1009D0008A831982E0911A05F0911B056A81812FA3
:1009E00009951F5F2396143061F7DF91CF911F9116
:1009F00008958A818230A9F71A82ECCF0895DC012C
:100A0000ED91FC910190F081E02D0994AF92BF929D
:100A1000CF92DF92EF92FF920F931F93CF93DF93CA
:100A20006C017B018B01040F151FEB015E01AE18F9
:100A3000BF08C017D10759F06991D601ED91FC911B
:100A40000190F081E02DC6010995892B79F7C50148
:100A5000DF91CF911F910F91FF90EF90DF90CF909A
:100A6000BF90AF900895FC01538D448D252F30E049
:100A7000842F90E0821B930B541710F0CF960895AB
:100A800001970895FC01918D828D981761F0A28DD8
:100A9000AE0FBF2FB11D5D968C91928D9F5F9F739E
:100AA000928F90E008958FEF9FEF0895FC01918D54
:100AB000828D981731F0828DE80FF11D858D90E0C1
:100AC00008958FEF9FEF0895FC01918D228D892F5E
:100AD00090E0805C9F4F821B91098F739927089546
:100AE00083E194E00E94640521E0892B09F420E071
:100AF000822F089580E090E0892B29F00E947005F4
:100B000081110C9400000895FC01A48DA80FB92F49
:100B1000B11DA35ABF4F2C91848D90E001968F7325
:100B20009927848FA689B7892C93A089B1898C9144
:100B3000837080648C93938D848D981306C0028893
:100B4000F389E02D80818F7D80830895EF92FF925D
:100B50000F931F93CF93DF93EC0181E0888F9B8DE0
:100B60008C8D98131AC0E889F989808185FF15C09A
:100B70009FB7F894EE89FF896083E889F9898081BD
:100B80008370806480839FBF81E090E0DF91CF918C
:100B90001F910F91FF90EF900895F62E0B8D10E0AE
:100BA0000F5F1F4F0F731127E02E8C8D8E110CC01D
:100BB0000FB607FCFACFE889F989808185FFF5CF68
:100BC000CE010E948405F1CFEB8DEC0FFD2FF11DBE
:100BD000E35AFF4FF0829FB7F8940B8FEA89FB89A5
:100BE00080818062CFCF682F83E194E00C94A605CA
:100BF000CF93DF93EC01888D8823B9F0AA89BB8954
:100C0000E889F9898C9185FD03C0808186FD0DC03E
:100C10000FB607FCF7CF8C9185FFF2CF808185FF5F
:100C2000EDCFCE010E948405E9CFDF91CF910895E9
:100C30002CB521602CBD2A989EBD0DB407FEFDCFBA
:100C40002EB530E0322F22278EBD0DB407FEFDCF2A
:100C50009EB52A9A8CB58E7F8CBDA901492BCA01FD
:100C60000895FF920F931F93CF93DF9390E080E05E
:100C70000E941806F92E90937A018091DD0184304C
:100C800009F064C080E090EB0E941806EC018091AE
:100C9000BF0163E00E94E430911114C0E091C101F2
:100CA000F0E00F2D017010E0EE0FFF1FE75FFE4F29
:100CB000E00FF11F80818093C10190E0806A946908
:100CC0000E9418068091BF01811118C0CE0124E056
:100CD000959587952A95E1F78F70992702969595B6
:100CE00087958093C0018091C001823020F080916F
:100CF000C0018B3018F082E08093C001E091BF0109
:100D000081E08E0F8093BF01F0E0EE53FE4FC08371
:100D10008091CC018C2798E021E387FF15C0880FD4
:100D200082279150D1F78093CC019091BF0180919F
:100D3000C001981350C089E092E8DF91CF911F91D4
:100D40000F91FF900C941806880FEBCF8091DD0176
:100D500087FF1FC0E091DD0181E08E0F8093DD01F0
:100D60008091C001E80FF0E0EE53FE4F808190913A
:100D7000CC01982728E031E397FF09C0990F93270A
:100D80002150D1F79093CC0190E09854D6CF990F91
:100D9000F7CF8091DD0191E0980F9093DD018230D3
:100DA00099F024F4882369F08AEAEECF853089F03F
:100DB0008630D1F78091C00181958093DD0184ED6B
:100DC000E3CF8091CC01E0CF89E092E80E94180641
:100DD000EBCF8DE2D9CFDF91CF911F910F91FF9093
:100DE0000895DC01ED91FC910084F185E02D41E056
:100DF000099581E090E008951F93CF93DF93162F1C
:100E0000EC01115040F0FE01649189E495E00E94EC
:100E1000F1062196F6CFDF91CF911F910895DC0165
:100E2000ED91FC910084F185E02D40E009940F9351
:100E30001F93CF93DF9300D000D0CDB7DEB70091E2
:100E400005011091060120910701309108010983E5
:100E50001A832B833C8390915105961710F46FEF02
:100E6000690FFE01E60FF11D6181680F606889E47A
:100E700095E00F900F900F900F90DF91CF911F9101
:100E80000F910C940F0762E089E495E00E940F0730
:100E90008BE39FE10197F1F740E150E062ED74E0F0
:100EA00089E495E00E94060561E080E00E94170752
:100EB00040E150E062EE74E089E495E00C940605B0
:100EC000FC012185222391F0653608F064E6442375
:100ED00011F0FC016287FFEF6F9FC001112464E6EF
:100EE00070E00E94F030822F0C945104089561E06C
:100EF0000E940F078BE39FE10197F1F70895EFE65A
:100F0000F0E080818D7F80835E980895CF93DF939A
:100F1000C82F0E947F0788E0C89FE0011124D0936A
:100F20007901C0937801EFE6F0E0808182608083F0
:100F3000DF91CF910895009711F0FC010994089575
:100F40001F93CF93DF93EC01162F623009F41B85BA
:100F50008A8581138B87133080F18A85181769F190
:100F6000EE81FF81309749F031962591349121151A
:100F7000310519F080E4F90109951A878A819B816E
:100F80009F838E831F86198E188EEE81FF81849138
:100F9000882331F0181721F03596FF83EE83F5CFC3
:100FA000309759F03196259134912115310599F2F8
:100FB00080E8F9010995182FCECF0E94AE04688B06
:100FC000798B8A8B9B8BDF91CF911F9108954F92E4
:100FD0005F926F927F928F929F92AF92BF92CF92C9
:100FE000DF92EF92FF921F93CF93DF93EC010E9469
:100FF000AE046B017C018C899D89AE89BF89260175
:101000003701481A590A6A0A7B0AD301C2018A3F8A
:101010009105A105B10508F488C0E885F985099511
:10102000182F81115EC04E815F8141155105D1F4A9
:101030008C8581138AC08F858F3F11F08F5F8F87DA
:101040008D859E85009709F48CC0019709F069C0D1
:101050008F85843008F465C0106182E090E09E873F
:101060008D8746C0FA013396249130E0A8EEB3E0B4
:101070000E94312F6115710581059105C9F288889B
:101080009988AA88BB8826013701481859086A0838
:101090007B0853014201681579058A059B0540F6D6
:1010A00010E24F5F5F4FFA01259134912115310510
:1010B00021F1812FF90109958130F9F0682FCE01D6
:1010C0000E94A007888D998D0E949B07EE81FF8169
:1010D000309759F13496E4911E2339F182E090E083
:1010E0004EC0CC8ADD8AEE8AFF8A803209F0A0CF1A
:1010F0004E815F8141155105A1F62C813D818A8584
:10110000412F4061F90194919923C1F298133AC09B
:101110003196E491E423E11335C0F90132968491CC
:10112000CDCFC88AD98AEA8AFB8ADF91CF911F91F5
:10113000FF90EF90DF90CF90BF90AF909F908F90F7
:101140007F906F905F904F9008951F8611110CC093
:101150002D853E852130310509F4182F1C871E8608
:101160001D86112311F3C4CFEE81FF813097B1F3B7
:101170003496E491E12391F31C8781E090E09E870F
:101180008D87D3CF2D5F3F4FBDCFDC011C96EC91F7
:101190001C97E83070F41D968C911D97E81748F461
:1011A00081E08E0F1C968C931C97EA0FFB2FF11D8C
:1011B000648381E090E00895282F8038B9F480910D
:1011C000C104893111F01092D00489E693E1909323
:1011D000CF048093CE048091D004843029F423700E
:1011E00019F088EC0E94860781E008958091D00470
:1011F000223049F490E0019665E070E00E940431ED
:101200008093D004E8CF213031F7811102C084E00F
:10121000F7CF8150F5CF803821F40E94430781E059
:10122000089582E008950F931F93CF93DF938C016D
:10123000662321F089E495E00E947707E801FE012A
:1012400064912196662329F089E495E00E94F106D5
:10125000F6CFDF91CF911F910F910895CF93DF9338
:10126000EC018FAD823099F40E94AE04FE01E05C87
:10127000FF4F20813181621B730B613283E078075D
:1012800058F01FAE61E083E094E00E941309CE01A4
:10129000DF91CF910C94E70765367105C0F361E0EB
:1012A00088EF93E0F2CF803899F461E088EE93E024
:1012B0000E94130961E087E00E94170760E08FED4C
:1012C00093E00E94130962E489E495E00E94F1062C
:1012D00081E00895DF92EF92FF920F931F93CF93D7
:1012E000DF9390916601981759F122E0D22E911167
:1012F00002C098E0D92EC82FF12CE12CD0E0C130EB
:1013000021F00CEC11E0D23010F00CED11E00E0DDC
:101310001F1D6E2D606489E495E00E940F0768E050
:10132000C8010E94FC0660E889E495E00E940F076E
:10133000DF5F88E0E80EF11CDD12E1CFC0936601AB
:10134000DF91CF911F910F91FF90EF90DF90089563
:10135000089590E080E0089560E080E00E947703C7
:1013600061E08091A7059091A805892B09F460E0C0
:101370008AE00E94770361E080915705811101C0E6
:1013800060E08BE00E94770361E08091570584362E
:1013900008F460E08DE00E94770361E080915C05D5
:1013A000823009F060E08CE00E94770361E0809178
:1013B0005C05811160E08FE00E94770361E080911D
:1013C0005C05813009F060E080E10C9477038823AC
:1013D00019F0813041F0089581E0672B09F480E035
:1013E000809387050895609311028FEF8093120216
:1013F00084E0809310020895CF92DF92EF92FF92E3
:101400001F93CF93DF93EC016A017B016C817D8197
:10141000072E000C880B990B0E94CF2D109175059B
:10142000163431F424EE38E34EE05FE30E942E2EB2
:10143000A70196010E94412F6B017C0120E030E062
:1014400048EC52EC0E94C82D181654F08CE48A83A4
:10145000DF91CF911F91FF90EF90DF90CF90089593
:1014600020E030E04AEF53E4C701B6010E94553056
:1014700087FD02C088E4EBCF1634A1F426E636E6F9
:1014800046EE5FE3C701B6010E942E2E20E030E059
:1014900040E052E40E94412F6E8B7F8B888F998FA2
:1014A0008FE4D5CFCE8ADF8AE88EF98EF9CFCF933D
:1014B000DF93282FC62FF89464E0869FF001112453
:1014C000E152FE4F63857485858596857894D0E0DA
:1014D000211110C02CE030E02C1B3D0BDC01CB01B6
:1014E00004C0B695A795979587952A95D2F7DF9171
:1014F000CF91089524E0660F771F881F991F2A95C2
:10150000D1F72091DF0130E050E040E00E94183137
:101510008EE090E08C1B9D0BB90102C0769567951B
:101520008A95E2F7CB01E3CF68E080E00E94570A9A
:101530008823B9F09BEE980F973268F093EC980FE0
:10154000973258F097E8980F973248F0815A8732CF
:1015500040F482E0089581E0089588E0089584E0F1
:10156000089580E00895809181058823E9F09091A5
:101570007D0594FF19C068E081E00E94570A9091B0
:101580008105492F481B550B9A0157FF02C02F5F59
:101590003F4F3595279580918005820F932F911DA0
:1015A000181619064CF081E0809380056091800543
:1015B00070E083E00C9451048F3F9105A9F3A4F3EC
:1015C0008FEF90E0F1CF8AE290E00E94F305609106
:1015D000B50462956F706A30B0F4605D83E194E0A9
:1015E0000E94A6056091B5046F706A3070F4605D6A
:1015F00083E194E00E94A6058AE090E00E94F30552
:101600001092B4040895695CE9CF695CF1CF1F932F
:10161000CF93DF93EC01162F8C81811107C081E0FD
:101620008C831D8284E290E00E94F3058D818127E6
:101630008D83612F83E194E0DF91CF911F910C9412
:10164000A605682F80EB94E00C94070BCF93DF93F3
:10165000EC01FE0184912196882319F00E94210B50
:10166000F8CFDF91CF9108958BE491E00E94260B93
:1016700062E480EB94E00E94FF040C94E30A8CE2A5
:101680000C94210BF999FECF92BD81BD81E08FBBF7
:1016900080B5681761F060BDF8948095862341F0AD
:1016A00084E06F3F09F484E18FBBF99A7894089540
:1016B00084E2FACFCF93DF93C82FD62FE82FF0E044
:1016C000EE0FFF1FE95AFA4F01A8F2A9E02D61833E
:1016D00085E5828313820E94250385E2C89FC02D81
:1016E0001124C35B6D2F8C2F90E0DF91CF910C9470
:1016F000420BCF93883008F050C0E82FF0E0ED5750
:10170000F44F0C943A318B0B950B9D0BA50BAD0B45
:10171000B50BBD0BC50B653608F064E66093780524
:101720008EE190E0CF910C94420B653608F064E6B0
:10173000609376058FE190E0F5CF60937B058AE0BA
:101740008093850587E290E0EDCF60937A058AE08B
:101750008093850588E290E0E5CFC62F862F0E9412
:1017600040036C2F80E290E0DDCF653608F064E640
:101770006093770582E290E0D5CF643608F060E0B0
:101780006093790589E290E0CDCF653608F064E694
:1017900060937C058AE290E0C5CFCF9108950F93C6
:1017A0001F93CF93C62F813041F1D0F08630D0F512
:1017B0008250082F10E0F801EE0FFF1FE00FF11F1D
:1017C000E85FFA4F60839281913031F4E0911A051D
:1017D000F0911B0560E009956C2FC801839608C045
:1017E00041E089E495E00E9460076C2F88E190E079
:1017F000CF911F910F910C94420B6093D104809173
:10180000C0048350833050F489E495E00E94770748
:101810008091CE049091CF040E949B076C2F81E2AF
:1018200090E0E6CFCF911F910F91089560915C05F4
:10183000633008F460E087E190E00C94420BEF9293
:10184000FF920F931F93CF939B01C42F8C01C15024
:1018500030F4CF911F910F91FF90EF900895F80110
:1018600061918F017901FFEFEF1AFF0AC9010E9410
:10187000420B9701ECCFCF93DF9300D0CDB7DEB70B
:101880007A836983982F9695E92FF0E0EE0FFF1F7A
:10189000E95AFA4F21A932A98170462F572F682F94
:1018A00070E0F901E60FF71F14A212A241155105CD
:1018B000B1F0660F771F260F371FF901578F468F3C
:1018C000943068F4880FF5E29F9F800D1124815BAE
:1018D000682F70E042E0CE0101960E941F0C0F902D
:1018E0000F90DF91CF910895CF93DF9300D0CDB7C4
:1018F000DEB777FD39C0813091F040F0823021F1C0
:101900000F900F90DF91CF91089560E06093920562
:1019100084E090E00E94420BF3CF70E060E0962FED
:10192000872F6E31710510F49EE180E0909363057E
:10193000809364057A83698342E065E070E0CE01BC
:1019400001960E941F0CDCCF672B99F081E08093F9
:101950005C05109257058091630590916405909302
:10196000A8058093A705CCCF8130B9F270F2823000
:1019700039F61092A8051092A705C2CF803881F5DC
:1019800086E396E19093CF048093CE048091C004C7
:10199000863021F1E0918A05F0918B0592819F3488
:1019A00009F481C0E0918C05F0918D0592819F34FE
:1019B00009F46AC0E0918E05F0918F0592819F3401
:1019C00009F462C086E00895853041F4E0918E0507
:1019D000F0918F0582818F3409F052C081E0089523
:1019E00090915C05813179F480E0943009F084E0D5
:1019F00080935C051092A8051092A70510925705D8
:101A00000E94160CEBCF933031F58430F1F0883022
:101A1000F1F02FEF813011F780915705022E000C65
:101A2000330B820F932F911D23E020935C051092BE
:101A3000A8051092A70597FD0CC08536910514F0F6
:101A400084E690E080935705C9CF25E0E5CF2BEFE2
:101A5000E3CF80E0F7CF813009F6943009F4BECFB0
:101A600061E070E08091A7059091A805892B11F0A5
:101A700070E060E082E00E94740C0E94AC09AECF7E
:101A800083E0089584E008958330E1F3843009F021
:101A90009BCFE0918C05F0918D0582818F3409F404
:101AA0009DCF85E00895833009F498CFEFCFCF9391
:101AB000DF9300D0CDB7DEB78430C8F4E82FF0E074
:101AC000EE0FFF1FE95AFA4F01A8F2A9E02D758326
:101AD00064837A83698365E2869F802D11248D5A01
:101AE000682F70E042E0CE0101960E941F0C0F901B
:101AF0000F90DF91CF9108950F931F93CF93DF93B2
:101B000000D0CDB7DEB78C0118161906F4F49A830D
:101B1000898342E062E070E0CE0101960E941F0CD2
:101B200010925C051092A8051092A7051092570517
:101B300010935E0500935D050E94160C0F900F90A8
:101B4000DF91CF911F910F91089583E080935C0501
:101B50001092A8051092A705119501951109053657
:101B6000110514F004E610E000935705E5CF9B0142
:101B700051E0415008F40895F999FECF32BD21BDDE
:101B80005FBB60B5FC016193CF012F5F3F4FF1CF89
:101B900065E2869F602D1124605C70E04DE087E671
:101BA00091E00C94B70D1F93CF93DF93182F809380
:101BB000DE01229A2A9A61E08BE00E94200460E014
:101BC0008CE00E94200461E08DE00E94200480E50A
:101BD0008CBD8DB581608DBD60E082E00E942004E7
:101BE00090E080E00E94180681E092E80E941806CA
:101BF00080E098EB0E941806E3ECF4E08491E6EDB7
:101C0000F5E0D491E2ECF5E0C491C11105C080E0AB
:101C1000DF91CF911F91089581110E94C903EC2F8C
:101C2000F0E0EE0FFF1FE954FB4FA591B491EC914A
:101C3000ED2369F320E1129FC0011124876C9068A5
:101C40000E9418068CE796EA123031F083ED97EA8D
:101C5000133011F080E496EA0E94180683E196ECB6
:101C60000E94180682EA94E90E9418068CEA92EC17
:101C70000E94180683E89AEC0E94180684ED9EECF8
:101C80000E94180687EB94EC0E94180680E398E9FE
:101C90000E94180686E79CEC0E94180680E090EEF1
:101CA0000E94180680E098EC0E94180680E090ECF4
:101CB0000E94180683E08093DD0181E396E0909313
:101CC000020180930101809169008C7F80936900FB
:101CD000E89A1092DE0181E09BCFE8E8F5E080E031
:101CE000A191B19111969C91923009F48F5F95E08A
:101CF000E039F907A9F7882351F080911C0581117B
:101D000006C083E00E94D30D81E080931C050895F6
:101D1000843011F0883071F481E090E02091DB0193
:101D20003091DC01232B11F090E080E09093DC01F6
:101D30008093DB0161E080E00E9417078091DB0166
:101D40009091DC01892B29F483EA94E060E00C9403
:101D5000130987EA94E0FACFCF93C82F8038B9F4FB
:101D600061E08FE293E00E94130981E090E020910E
:101D70005C05233011F090E080E09093DC018093CB
:101D8000DB018C2F0E94880E81E0CF910895803472
:101D9000C1F78091DB019091DC0131E0009709F4FB
:101DA00030E021E040915C05433009F020E032173B
:101DB00041F3892B39F480915D0590915E050E9475
:101DC0007C0DDFCF90E080E0FACFFC019FB7F89464
:101DD0006EBD0DB407FEFDCFA485B5858C9123851E
:101DE000822B8C93A485B5852C9183858095822345
:101DF0008C939FBF0895FC0164810C94E50E8111C2
:101E000003C089E00C94F2032FEF280F2230A0F4D6
:101E100081E090E001C0880F2A95EAF720914D05F6
:101E2000662339F0822B80934D0589E495E00C946C
:101E3000FB0E80958223F7CF08950F931F93CF93C6
:101E40008C01C62F68600E94E50E6C2F677FC80169
:101E5000CF911F910F910C94E50E607F0E941D0F92
:101E60008BE990E00197F1F708950F931F93CF93BB
:101E7000DF938C01D62F411144E0F801C481C42BBB
:101E80006D2F607F6C2BC8010E941D0FF0E1DF9F5A
:101E9000B00111246C2BC8010E941D0F8BE990E04A
:101EA0000197F1F7DF91CF911F910F910895FB01F9
:101EB00001900020E9F73197AF01461B570BDC0179
:101EC000ED91FC910280F381E02D09948F929F9215
:101ED000AF92BF92EF92FF920F931F93CF93DF9336
:101EE000CDB7DEB7A1970FB6F894DEBF0FBECDBF5A
:101EF0007C01FA01CB0119A2223008F42AE08E01FC
:101F00000F5D1F4F822E912CB12CA12CBF01A5017A
:101F100094010E941831F901CA016A300CF5605D24
:101F2000D8016E938D01232B242B252B79F790E07C
:101F300080E0109721F0BD01C7010E94570FA196C4
:101F40000FB6F894DEBF0FBECDBFDF91CF911F91CA
:101F50000F91FF90EF90BF90AF909F908F9008955A
:101F6000695CDECFAB0170E060E02AE00C94660FA4
:101F7000462F50E070E060E02AE00C94660FCF93AB
:101F8000DF938BEA94E00E94260B6091230580EB9F
:101F900094E00E94B80FCCE1D5E08A858F3FA9F08C
:101FA0000E943F0B6A8580EB94E00E94B80F0E946C
:101FB0003F0B6F8580EB94E00E94B80F0E943F0BAF
:101FC000688980EB94E00E94B80F299685E0C034C0
:101FD000D80719F7DF91CF910C94E30ACF93909132
:101FE000F5049923D9F18230B9F1803821F41092A7
:101FF000F4041092F304C82F89ED93E00E94260B9D
:102000006091F3047091F40480EB94E00E94B20FAD
:102010000E943F0B60E080EB94E00E94B80F0E94AA
:102020003F0B6C2F80EB94E00E94B80F0E94E30AF4
:10203000C03429F481E08093F504CF91089582E0C3
:102040008093F5040E94AE046093F6047093F70445
:102050008093F8049093F90481E0EFCF86E1EDCF0F
:10206000CF93DF9386E791E00E94260BC7E5D5E08A
:1020700069A180EB94E00E94B80F0E943F0B6F8D26
:1020800080EB94E00E94B80F0E943F0B6CA180EBA4
:1020900094E00E94B80F0E943F0B6BA180EB94E08C
:1020A0000E94B80F0E943F0B6EA180EB94E00E944B
:1020B000B80F0E943F0B68A180EB94E00E94B80F1C
:1020C0000E943F0B6AA180EB94E00E94B80F0E942F
:1020D0003F0B6DA180EB94E00E94B80FDF91CF9190
:1020E0000C94E30ACF93DF938BE691E00E94260BDA
:1020F0006091530580EB94E00E94B80F0E943F0B63
:102100006091D10480EB94E00E94B80FC8E0D5E064
:102110000E943F0B688180EB94E00E94B80F2396E9
:1021200085E0C431D807A1F7DF91CF910C94E30A81
:10213000CF93DF9385E691E00E94260BC7E5D5E0BB
:102140006BAD80EB94E00E94B80F0E943F0B6C8552
:102150007D8580EB94E00E94B20FDF91CF910C94CB
:10216000E30A0F931F93CF93DF938EE291E00E94D7
:10217000260B08E815E0C1E0D0E00E943F0BD80133
:10218000ED91FD918D018181823041F4FE01E6588F
:10219000FE4F608180EB94E00E94B80F2196C5301D
:1021A000D10559F7DF91CF911F910F910C94E30A5C
:1021B000CF92DF92EF92FF92CF93DF936C01990F52
:1021C000EE08FF08F7FE1BC06DE280EB94E00E9472
:1021D000FF04EC0144275527BA014C195D096E092B
:1021E0007F092AE080EB94E00E94660F8C0F9D1F10
:1021F000DF91CF91FF90EF90DF90CF9008952AE08C
:10220000B701A60180EB94E0DF91CF91FF90EF90B2
:10221000DF90CF900C94660F0F931F93CF93DF93B3
:1022200081E791E00E94260B08E815E0F801C191D2
:10223000D1918F010E943F0B8E8D9F8D0E94D810EF
:102240008AA1882319F08CE40E94210B0E943F0B85
:1022500088A199A10E94D8108BA1882319F088E445
:102260000E94210BF5E000391F0701F7DF91CF91A4
:102270001F910F910C94E30A803841F486E396E1B4
:102280009093CF048093CE0481E008958F70E1F3A2
:1022900070E060E0809186050E943B0C0E940C116A
:1022A00082E00895CF93DF9386E491E00E94260BAD
:1022B000C8E8D5E00E943F0BE991F99184819581AE
:1022C0000E94D81085E0C039D807A1F7DF91CF91DF
:1022D0000C94E30A2F923F924F925F926F927F92FB
:1022E0008F929F92AF92BF92CF92DF92EF92FF9226
:1022F0001F93CF93DF93EC016A017B01722EAB0138
:102300009601CB01B6010E94AA3067E571E0811108
:1023100026C046015701E894B7F82FEF3FEF4FE78B
:102320005FE7C501B4010E94AA3081110CC02FEFF4
:102330003FEF4FE75FE7C501B4010E94C82D6BE591
:1023400071E0181664F02FEF3FEF4FE75FE4C7012D
:10235000B6010E9455301816B4F46FE571E0CE0155
:10236000DF91CF911F91FF90EF90DF90CF90BF90C2
:10237000AF909F908F907F906F905F904F903F9025
:102380002F900C94570F2FEF3FEF4FE75FECC701F3
:10239000B6010E94C82D87FDE0CF20E030E0A90102
:1023A000C701B6010E94C82D312C212C87FF09C01E
:1023B0006DE2CE010E94FF041C01F7FAF094F7F8D9
:1023C000F09410E060E070E080E09FE3711641F06F
:1023D00020E030E040E251E40E94AD2F1F5FF6CFD5
:1023E000A70196010E94412F2B013C010E9426303B
:1023F0004B015C012AE0BC01A401CE010E94660FE2
:102400007C01E20CF31C1123A1F1C501B4010E946F
:10241000CD2D9B01AC01C301B2010E94402F4B01A5
:102420005C016EE2CE010E94FF04E80EF91E11501D
:1024300000F120E030E040E251E4C501B4010E9427
:102440002E2E2B013C010E9426304B01CE010E9412
:10245000B20FE80EF91EB40190E080E00E94CD2D8D
:102460009B01AC01C301B2010E94402F4B015C01F2
:10247000DECFC701DF91CF911F91FF90EF90DF90EA
:10248000CF90BF90AF909F908F907F906F905F9014
:102490004F903F902F900895CF93DF938EE391E07C
:1024A0000E94260BC7E9D5E049915991699179912C
:1024B00028E080EB94E00E946A110E943F0B85E0C7
:1024C000C33AD80789F76091750580EB94E00E94C4
:1024D000FF04DF91CF910C94E30A4F925F926F92C9
:1024E0007F929F92AF92BF92CF92DF92EF92FF9234
:1024F0000F931F93CF93DF93F82E83E391E00E9415
:10250000260B6F2D80EB94E00E94B80F0E943F0BCA
:10251000EF2DF0E0EE0FFF1FE95AFA4FC1A9D2A943
:102520008E010A5F1F4F5E0186E1A80EB11CF80103
:1025300041905190619071908F0120E030E0A901AD
:10254000C301B2010E94C82D7301620187FF04C05C
:10255000F7FAF094F7F8F094912C20E030E040E89E
:102560005FE3C701B6010E94C82D87FF15C020E0B8
:1025700030E0A901C701B6010E94C82D882361F08F
:102580009A9420E030E040E251E4C701B6010E9495
:102590002E2E6B017C01E1CF20E030E040E251E4DF
:1025A000C701B6010E94553087FD0CC0939420E00E
:1025B00030E040E251E4C701B6010E94AD2F6B014B
:1025C0007C01EACF20E030E0A901C301B2010E9402
:1025D000C82D87FF04C0F7FAF094F7F8F09427E0CD
:1025E000B701A60180EB94E00E946A1185E60E9483
:1025F000210B892D990C990B0E94D8100E943F0B3A
:102600000A151B0509F093CF698180EB94E00E94C5
:10261000B80FDF91CF911F910F91FF90EF90DF9056
:10262000CF90BF90AF909F907F906F905F904F90B2
:102630000C94E30AFC0122812F3459F4468957890E
:10264000608D718D21E080EB94E00E946A110C9402
:102650003F0B85E50E94210BFACFCF9389E391E0F0
:102660000E94260BC0E08C2F0E94C80D0E943F0BD9
:1026700067E671E080EB94E00E94570FCF5FC430B3
:1026800091F7CF910C94E30AEF92FF921F93CF93AF
:10269000DF93EC017B0110E088818823A1F08C326C
:1026A00019F41F5F2196F8CFCE010E946C29BC015E
:1026B000812FF7010995FE01EF018191882361F3D4
:1026C0008C32D1F7E9CFDF91CF911F91FF90EF903E
:1026D0000895EF92FF920F931F93CF93DF9362E0E1
:1026E00089E495E00E940F078BE39FE10197F1F7E2
:1026F000E091D004E43008F099C0F0E0EE0FFF1F45
:10270000E95AFA4FC1A9D2A98881E82FF0E0E15235
:10271000FE4F13A16EE00E94570AE881F0E0E152FB
:10272000FE4F21A5211157C023E41F921F939F93B1
:102730008F931F922F938091D0041F928F9383ECDD
:1027400093E09F938F931F9281E18F9387E691E0AF
:102750009F938F930E94A92967E671E089E495E031
:102760000E94570F61E080E00E941707E981F0E0C6
:10277000EE0FFF1FE554FC4F8591949160E00E949D
:10278000130960E289E495E00E94F1068DB79EB7D7
:102790000E960FB6F8949EBF0FBE8DBF8A818F3400
:1027A00009F03EC04E895F89688D798D10920605CB
:1027B000C6E0C093070522E08AEF94E00E946A1108
:1027C00080910605C81BC15040F060E289E495E0A5
:1027D0000E94F106F8CF22E4A8CFE0E08091060540
:1027E000E81760F4C1E0CE0FF0E0E650FB4F6481E3
:1027F00089E495E00E94F106EC2FF0CF63E671E0EA
:1028000089E495E00E94570F6091750589E495E091
:10281000DF91CF911F910F91FF90EF900C94F106F3
:1028200060E083EB93E00E941309EECF68E081E063
:102830000E94570AEC01809103021F928F932C2F64
:1028400030E0AAE9BBE00E94312F2AEE35E140E0FA
:1028500050E00E9418313F932F93DD27DF93CF93F1
:102860008EE993E09F938F931F9211E11F93C7E628
:10287000D1E0DF93CF930E94A929BE0189E495E0BE
:102880000E94570F61E080E00E941707F0900E024F
:10289000E0900F020E94940A082F68E080E00E94F6
:1028A000570AEF92FF921F920F939F938F9389E89D
:1028B00093E09F938F931F921F93DF93CF930E9478
:1028C000A9298DB79EB748960FB6F8949EBF0FBE44
:1028D0008DBFBE0189E495E0DF91CF911F910F91EB
:1028E000FF90EF900C94570F0F931F93CF93DF93AC
:1028F000CDB7DEB761970FB6F894DEBF0FBECDBF80
:102900009091C5049B3008F459C0660F660FE091A2
:10291000DB01F091DC01843009F055C06E0F7F2F90
:10292000711D7093DC016093DB018091DB0190915C
:10293000DC018417950724F45093DC014093DB01FC
:102940008091DB019091DC012817390724F4309342
:10295000DC012093DB0161E080E00E941707809199
:102960007505282F082E000C330B3F938F93809111
:10297000DC018F938091DB018F931F930F931F9244
:1029800081E18F938E010F5F1F4F1F930F930E9462
:10299000A929B80189E495E00E94570F0FB6F89471
:1029A000DEBF0FBECDBF61960FB6F894DEBF0FBE7F
:1029B000CDBFDF91CF911F910F910895963008F40C
:1029C000A6CF660FA4CF883009F0AFCFE61BF10980
:1029D000F093DC01E093DB01A8CF0F931F93CF931B
:1029E000C82F803811F561E08AE793E00E9413094F
:1029F0008091530590E09093DC018093DB0104E724
:102A000013E024E630E050E040E06AE08C2F0E94C2
:102A1000741440E06091DB0189E495E00E94600756
:102A200081E0CF911F910F910895803441F700917B
:102A3000DB011091DC018091530580171106F9F23A
:102A400041E0602F89E495E00E946007602F88E1F3
:102A500090E00E94420B0E947210D1CF0F931F93FF
:102A6000CF93C82F8038D9F461E083E693E00E94C9
:102A700013098091760590E09093DC018093DB014F
:102A800007E513E024E630E050E040E065E08C2FFD
:102A90000E94741481E0CF911F910F9108958034AA
:102AA00079F76091DB017091DC01809176058617E2
:102AB000170631F3653608F064E6609376058FE11A
:102AC00090E00E94420B0E943010DACF0F931F93C8
:102AD000CF93C82F8038E1F461E080E293E00E9458
:102AE000130980916305909164059093DC018093B4
:102AF000DB0104E113E028EE33E050E040E06AE05F
:102B00008C2F0E94741481E0CF911F910F91089532
:102B1000803479F76091DB017091DC0181E00E94E3
:102B2000740CE7CF0F931F93CF93C82F8038D9F43D
:102B300061E084E093E00E9413098091920590E0A7
:102B40009093DC018093DB0104EF12E024E630E097
:102B500050E040E061E08C2F0E94741481E0CF913E
:102B60001F910F910895803479F76091DB01709186
:102B7000DC0180E00E94740CE7CF0F931F93CF938A
:102B8000DF93D82FC091C004CE50803871F5C43087
:102B900018F48C2F0E94C80D89E495E00E947707F5
:102BA00067E671E089E495E00E94570FEC2FF0E0B2
:102BB000EE0FFF1FE95AFA4F01A8F2A9E02D848118
:102BC00095819093DC018093DB0106EE12E028EC06
:102BD00030E048E35FEF61E08D2F0E94741481E0E4
:102BE000DF91CF911F910F910895803471F760911B
:102BF000DB017091DC018C2F0E94570D0E94521155
:102C0000E4CF0F931F93CF93C82F8038F9F482E05D
:102C10000E946A0961E085ED92E00E9413098091AB
:102C20005D0590915E059093DC018093DB010EECD5
:102C300012E028EE33E050E040E065E08C2F0E9487
:102C4000741481E0CF911F910F910895803479F72A
:102C50008091DB019091DC0120915D0530915E0552
:102C60008217930721F30E947C0DE1CF6F927F9230
:102C70008F929F92AF92BF92CF92DF92EF92FF928C
:102C80000F931F93CF93DF93CDB7DEB761970FB646
:102C9000F894DEBF0FBECDBF1091C00460E080E0AD
:102CA0000E941707173009F044C01091860560E0B4
:102CB0008DEB92E010FF02C08CEA92E00E941309B3
:102CC0001695712EDE0111966D0197E6A92E91E001
:102CD000B92E28E5822E22E0922E31E1632E01E00A
:102CE000011B711608F4A3C0143078F4E12EF12C06
:102CF000EE0CFF1CF701E95AFA4F7F0101A8F2A977
:102D0000E02D82818F3409F43CC141E150E060E262
:102D100070E0C6010E944031198A602F610F80E087
:102D20000E941707B60189E495E00E94570F1F5FC4
:102D3000D8CFE091D104E43008F094C0F0E0EE0F79
:102D4000FF1FE95AFA4FE1A8F2A8D70112968C9119
:102D50008F3409F08AC081E00E946A0920E030E0E7
:102D600040E251E4F70166897789808D918D0E9458
:102D70002E2E0E941F307B0100E077FF05C0EE245D
:102D8000FF24E61AF70A01E010E15AE0C52ED12C23
:102D900066E0B62EE114F10411F419301CF1C701FC
:102DA000B6010E94F030962EA72EB89E9001B99ED3
:102DB000300D1124C901845E9D4F7C01135060E0E9
:102DC000812F0E94170763E0C7010E94FC0661E0A3
:102DD000812F0E94170763E0C70103960E94FC063B
:102DE000E92CFA2C115060E0812F0E94170760E255
:102DF00089E495E00E94F10661E0812F0E941707A7
:102E00001C3031F46EE289E495E00E94F106C2CFF5
:102E1000E114F10409F51930FCF40023E9F061E054
:102E200089E495E00E94F10600E01111B3CF6196AC
:102E30000FB6F894DEBF0FBECDBFDF91CF911F91CB
:102E40000F91FF90EF90DF90CF90BF90AF909F9049
:102E50008F907F906F90089560E289E495E00E94E2
:102E6000F106E3CF82E00E946A09E0919005F091BB
:102E70009105028160E070E00F3431F46689778952
:102E8000808D918D0E941F3090915C05DE0111961E
:102E90007D019330A1F10F34A9F041E150E06BE9DD
:102EA00072E0CD010E948A2941E150E0B70189E436
:102EB00095E00E9406058091D1048F3F09F05DC026
:102EC0001250FFCE9430D9F480917505282F082E2A
:102ED000000C330B3F938F937F936F9389E892E0BD
:102EE0009F938F931F9281E18F93BF93AF930E9423
:102EF000A9290FB6F894DEBF0FBECDBFD5CF209164
:102F0000A7053091A80580917505482F082E000C63
:102F1000550B2115310591F03F932F935F938F93BC
:102F20007F936F9387E792E09F938F931F9281E146
:102F30008F93FF92EF920E94A929DBCF9330D1F4B7
:102F400021E090E01F922F93209157051F922F931D
:102F50001F929F935F938F937F936F9382E692E08C
:102F60009F938F931F9281E18F93FF92EF920E9424
:102F7000A929BFCF2DE59BE5E5CF43E0742E11E0F5
:102F8000A1CE812F0E94C80DD701D196ED91FC9161
:102F900066897789808D918D0E941F307F936F9312
:102FA000BF92AF929F928F921F926F92DF92CF92B9
:102FB0000E94A9290FB6F894DEBF0FBECDBFADCEDB
:102FC000CF92DF92EF92FF921F93CF93DF93CDB713
:102FD000DEB7AB970FB6F894DEBF0FBECDBF182F8C
:102FE0004BE270E060E0CE0101960E94B70D111136
:102FF00005C089819A818E30904F79F04BE250E084
:103000006CE771E0CE0101960E948A294BE270E0E4
:1030100060E0CE0101960E941F0C8B819C81109272
:10302000A8051092A7051092570590935E0580930E
:103030005D058D81809392058E819F818E319105F2
:1030400010F48EE190E0909364058093630580E135
:10305000FE013896A3E9B5E001900D928A95E1F75B
:10306000888D80935C0541E0698D89E495E00E943C
:1030700060078A8D9B8DAC8DBD8D80937B01909375
:103080007C01A0937D01B0937E018E8D833409F085
:1030900086E40E9459038F8D853608F084E680937C
:1030A000780588A1853608F084E6809376058AA5A0
:1030B000843608F080E0809379058BA1853608F08E
:1030C00084E68093770589A10E9440038AA18093BA
:1030D000D1048091C0048350833050F489E495E09A
:1030E0000E9477078091CE049091CF040E949B07A5
:1030F00088A580937B058AE08093850589A58093C8
:103100007A058BA5853608F084E680937C056E01F0
:1031100084E2C80ED11C88E0E82E85E0F82E10E08D
:10312000F60181916F01F70180838281813039F44A
:10313000E0911A05F0911B0560E0812F09951F5F52
:10314000F3E0EF0EF11C143059F7AB960FB6F8947C
:10315000DEBF0FBECDBFDF91CF911F91FF90EF90EB
:10316000DF90CF900895CF92DF92EF92FF920F936E
:103170001F93CF93DF93CDB7DEB7AD970FB6F8941B
:10318000DEBF0FBECDBF082F42E06EE370E0CE0180
:1031900001960E94B70D89819A818E30904F61F01F
:1031A0008EE090EF9DA78CA742E06EE370E0CE0129
:1031B0008C960E941F0C01E088E8C82E85E0D82E6E
:1031C00010E090E4E92EF12C002309F45DC045E203
:1031D00050E067EA71E0CE0101960E948A2980E3FF
:1031E000810F8F8345E2B701CE0101960E941F0C2B
:1031F000F601819191916F012E85FC0121832C892B
:103200003D8935832483DC01169620E1FE01769604
:1032100001900D922A95E1F728893989FC0114A2C1
:1032200012A22115310511F0378F268F2A893B898B
:10323000FC0115A213A22115310511F031A320A321
:103240006F85662359F0062E000C770B812F0E94A4
:10325000570D60E0C7010E960E94420BF5E2EF0E9B
:10326000F11C1F5F143009F0AFCFAD960FB6F89484
:10327000DEBF0FBECDBFDF91CF911F910F91FF90A9
:10328000EF90DF90CF90089545E2B701CE0101960F
:103290000E94B70DADCFCF93C82F803879F461E08D
:1032A00089E493E00E9413091092DC011092DB0183
:1032B0008C2F0E94880E81E0CF9108958034C1F751
:1032C0008091DB019091DC01892B91F381E00E94D8
:1032D000E01781E00E94B3188FE393E00E94260B71
:1032E0000E94E30AE5CF8F929F92AF92BF92CF9256
:1032F000DF92EF92FF920F931F93CF93DF93EC0136
:103300008B01F090750521E4F2120AC090E080E094
:103310000E94CD2D6E8B7F8B888F998F8FE4DFC0BD
:103320008981833009F0F1C0CA88DB88EC88FD8888
:1033300020E030E048EC52E4C701B6010E94C82DFD
:1033400087FF0AC0A701960160E070E48EE495E46F
:103350000E94AD2F6B017C01E881F0E0E152FE4F4D
:1033600081A5882309F4C9C081E000389EE31907CC
:1033700008F080E081A783A120E4829FC00111248E
:10338000800F911F813E9F4308F0A8C060910E02FC
:1033900070910F0290E080E00E94CD2D9B01AC0166
:1033A00060E070EC8FE794E40E94AD2F9B01AC01CC
:1033B000C701B6010E94AD2F6B017C01B80190E0FE
:1033C00080E00E94CD2D20E030EC4FE756E40E94D3
:1033D000AD2FA70196010E942E2E6B017C0120E0EB
:1033E00030E0A9010E94C82D18160CF066C020E03C
:1033F00030E04AEA53E4C701B6010E94553087FF26
:103400005CC0C701B6010E941F30CB0164E170E0CF
:103410000E940431262F062E000C330BF901E35EC7
:10342000FE4F1491012F019560312CF4F901E25EF9
:10343000FE4F0491011B24E16202B0011124072E0A
:10344000000C880B990B0E94CF2D9B01AC01C7018A
:10345000B6010E94402F20E030E040EA51E40E9493
:10346000AD2F4B015C01602F000F770B880B990B80
:103470000E94CF2D9B01AC01C501B4010E942E2EEC
:103480004B015C01612F110F770B880B990B0E9488
:10349000CF2D9B01AC01C501B4010E94412F20E05A
:1034A00030E048EC52E40E94AD2F9B01AC01C70113
:1034B000B6010E94412F6B017C01B701A601CE012C
:1034C000DF91CF911F910F91FF90EF90DF90CF9000
:1034D000BF90AF909F908F900C94FC0985E58A83F4
:1034E000DF91CF911F910F91FF90EF90DF90CF90E0
:1034F000BF90AF909F908F90089581E0003C92E143
:10350000190708F080E081A759CFCB010197803ED1
:103510009F4320F790E080E00E94CD2D9B01AC01FD
:1035200060E070EC8FE796E40E94AD2F20E030E081
:1035300040E85FE30E94402F9B01AC016A897B89D0
:103540008C899D890E94AD2F22E5F21208C020913E
:103550009005309191052C173D0709F0DBCE0E94B4
:1035600062306B017C012E853F85488959890E9414
:103570002E2EA70196010E942E2E2A853B854C8572
:103580005D850E94412FA70196010E942E2E2E815B
:103590003F81488559850E94412F9B01AC0160E025
:1035A00070E080E89FE30E94AD2F23E333E948E811
:1035B00053E40E94402FAB01BC0181CFBF92CF9258
:1035C000DF92EF92FF920F931F93CF93DF937C01D3
:1035D000B62E98E8C92E95E0D92EC1E0D0E0F601CC
:1035E000019111916F01F8018181823031F5FE0165
:1035F000E658FE4F80818F3721F0F70192818913C1
:103600001CC0F4E070E060E0BF1689F1F701608152
:103610007181878182FF27C0072E000C880B990BD0
:103620000E94CF2D20E030E040E251E40E94AD2F17
:10363000AB01BC01C8010E94FC092196C530D1052F
:1036400071F68B2D8570B9F080911C05882399F057
:10365000DF91CF911F910F91FF90EF90DF90CF906E
:10366000BF900C94BF0F660F771F660F771FC801BE
:103670000E947319E2CFDF91CF911F910F91FF90BC
:10368000EF90DF90CF90BF9008951F920F920FB6EA
:103690000F9211242F933F938F939F93AF93BF93D8
:1036A0008091D7019091D801A091D901B091DA0110
:1036B0003091D60123E0230F2D3758F50196A11D37
:1036C000B11D2093D6018093D7019093D801A09388
:1036D000D901B093DA018091D2019091D301A091E8
:1036E000D401B091D5010196A11DB11D8093D201E5
:1036F0009093D301A093D401B093D501BF91AF9122
:103700009F918F913F912F910F900FBE0F901F901F
:10371000189526E8230F0296A11DB11DD2CF1F9246
:103720000F920FB60F9211242F933F934F935F93F5
:103730006F937F938F939F93AF93BF93EF93FF9379
:10374000E0910301F09104010995FF91EF91BF9180
:10375000AF919F918F917F916F915F914F913F9129
:103760002F910F900FBE0F901F9018951F920F92E0
:103770000FB60F9211242F933F934F935F936F9344
:103780007F938F939F93AF93BF93EF93FF93E091BA
:103790000101F09102010995FF91EF91BF91AF9165
:1037A0009F918F917F916F915F914F913F912F9159
:1037B0000F900FBE0F901F9018951F920F920FB68B
:1037C0000F9211242F933F934F935F936F937F93A7
:1037D0008F939F93AF93BF93EF93FF9383E194E015
:1037E0000E948405FF91EF91BF91AF919F918F91BE
:1037F0007F916F915F914F913F912F910F900FBEED
:103800000F901F9018951F920F920FB60F921124D0
:103810002F938F939F93EF93FF93E0912304F09165
:1038200024048081E0912904F0912A0482FD1BC0C8
:10383000908180912C048F5F8F7320912D048217CB
:1038400041F0E0912C04F0E0ED5EFB4F958F80930A
:103850002C04FF91EF919F918F912F910F900FBEAC
:103860000F901F9018958081F4CF1F920F920FB682
:103870000F9211242F933F934F935F936F937F93F6
:103880008F939F93AF93BF93EF93FF9380917801B2
:1038900090917901892B71F1809188009091890034
:1038A00086509F4F80342CE9920710F090E080E022
:1038B000909389008093880080917801909179019C
:1038C000019790937901809378018BB190E48927D7
:1038D0008BB9FF91EF91BF91AF919F918F917F91A4
:1038E0006F915F914F913F912F910F900FBE0F906D
:1038F0001F9018950E947F07ECCF1F920F920FB672
:103900000F9211242F933F934F935F936F937F9365
:103910008F939F93AF93BF93EF93FF938091E501B4
:10392000882309F470C081508093E501823081F5CD
:103930008091E80190E0FC01EE0FFF1FEE0FFF1FEA
:10394000E152FE4F4091E1015091E2016091E301AB
:103950007091E401438754876587768781529E4F33
:103960002091E6013091E701231BFC0123A3FF9185
:10397000EF91BF91AF919F918F917F916F915F91E7
:103980004F913F912F910F900FBE0F901F90189560
:103990008130D9F4909111028091E801891302C01D
:1039A0009093120280917C008F708093E8019813AD
:1039B00003C08FEF809312021092E1011092E20196
:1039C0001092E3011092E401D2CF8111D0CF109276
:1039D000E6018FEF8093E7018091E80181110EC02D
:1039E00084E08093E0018091E90190E0019666E037
:1039F00070E00E9404318093E901B9CF8091DF012A
:103A00008093E001B4CF20917C002F70E091E00121
:103A1000EE23C9F1E150E093E001809178009091AC
:103A2000790030911102321307C0F0E0EE0FFF1F52
:103A3000ED5EFD4F918380834091E1015091E20161
:103A40006091E3017091E401480F591F611D711DE0
:103A50004093E1015093E2016093E3017093E4012C
:103A60009695879596958795282F3091E60138177A
:103A700010F48093E6013091E701231708F077CF27
:103A80008093E70174CF2730F8F08091780090910F
:103A9000790090930F0280930E021092E801AE2FEE
:103AA000B0E0A152BE4F99968C91811112C080E472
:103AB00090917C00907C891771F090E39093E501E0
:103AC000E82BE0937C0053CF2111E9CFE091E9018D
:103AD000E6CF80ECEDCF93E0F1CF1F920F920FB6BF
:103AE0000F92112428980F900FBE0F901F901895D9
:103AF0001F920F920FB60F9211242F933F934F9363
:103B00006F937F938F939F9320918A0030918B00C6
:103B100040918405443620F080915C058430F9F0B2
:103B20008091820590918305BC01625E7F4F621B8C
:103B3000730B6D33710518F021153105E1F44F5FFA
:103B400040938405009759F0289A20918400309181
:103B50008500820F931F90938B0080938A009F9122
:103B60008F917F916F914F913F912F910F900FBE49
:103B70000F901F9018952817390718F4C9014E9611
:103B8000E1CFC9014E97DECF1092160410921504B2
:103B900088EE93E0A0E0B0E08093170490931804BF
:103BA000A0931904B0931A0489E191E0909314044E
:103BB0008093130485EC90E09093200480931F047D
:103BC00084EC90E0909322048093210480EC90E0B8
:103BD000909324048093230481EC90E09093260436
:103BE0008093250482EC90E090932804809327042E
:103BF00086EC90E090932A048093290410922C0480
:103C000010922D0410922E0410922F041092B304DF
:103C10001092B2048BE291E09093B1048093B004CF
:103C20001092FD041092FC048DE391E09093FB044C
:103C30008093FA048DE495E09093B9048093B804DE
:103C400085ED94E09093BB048093BA0484E99AE0F4
:103C50009093BF048093BE0487E391E09093B704F0
:103C60008093B60495E090931B0685E580931D062E
:103C700024E02093F5058093F70523E02093CF05FA
:103C80008093D10522E02093A9058093AB0580E8BD
:103C900080935F0586E48093750510924C05109221
:103CA0004B059093520589E491E090934A058093E7
:103CB000490561E08BE00E94200461E08DE00E94F4
:103CC000200461E08AE00E94200461E08AE00E9412
:103CD000F20381E58CBDE8EDF5E0E491E093540555
:103CE000E4ECF5E0E491F0E0EE0FFF1FEA54FA4F48
:103CF00085919491909356058093550561E084E0F9
:103D00000E94200460E089E495E00E94E50E88E0CE
:103D10008093510580934E0580915205882319F0B8
:103D200061E00E9420048BEF9FEFFC013197F1F7D7
:103D3000FC013197F1F70197F1F760E389E495E031
:103D40000E942D0F8BE496E40197F1F760E389E47C
:103D500095E00E942D0F83E592E00197F1F760E373
:103D600089E495E00E942D0F60E289E495E00E94CD
:103D70002D0F60914E05606289E495E00E940F0767
:103D800084E080934F056CE089E495E00E940F0782
:103D900089E495E00E94770782E08093500566E011
:103DA00089E495E00E940F078EED9AE19093220539
:103DB0008093210580E8809323058FEF809326056B
:103DC00080932F0580933805809341058FEF9EE007
:103DD00090931B0580931A050895CF93DF93CDB779
:103DE000DEB72C970FB6F894DEBF0FBECDBF789428
:103DF00084B5826084BD84B5816084BD85B58260F0
:103E000085BD85B5816085BD80916E0081608093A0
:103E10006E00109281008091810082608093810009
:103E20008091810081608093810080918000816019
:103E3000809380008091B10084608093B100809174
:103E4000B00081608093B00080917A00846080939C
:103E50007A0080917A00826080937A0080917A0063
:103E6000816080937A0080917A00806880937A00E4
:103E70001092C100219A62E080E00E9477030E94C4
:103E8000BA04E0912304F091240482E08083E0915D
:103E90001F04F09120041082E0912104F09122048B
:103EA00083E3808310922B04E0912704F09128048F
:103EB00086E08083E0912504F09126048081806172
:103EC0008083E0912504F0912604808188608083BE
:103ED000E0912504F0912604808180688083E09140
:103EE0002504F091260480818F7D80838AE090E014
:103EF0000E94F3050E94340B80E880BF8FE380931B
:103F00007E0080916400806880936400569A8BE103
:103F100096E0909389058093880585EF95E09093CE
:103F20008B0580938A058FEC95E090938D058093A7
:103F30008C0589EA95E090938F0580938E0580E04B
:103F40000E94E01780E00E94B318209A80E49CE968
:103F50009093870080938600109280008AE180937E
:103F6000810084E280936F008EE480937C0080E483
:103F700080937B008FEE80937A000E9425038FEF61
:103F8000809311020E946D0E82E00E946A096BE12B
:103F900086EB94E00E94A007EFE7F1E0019000209B
:103FA000E9F7E058F140E98383E194E00E94640579
:103FB0008C01892B09F45AC283E194E00E944205E6
:103FC0008A3019F08D3009F045C22981211108C0CD
:103FD00090E0E92FF0E0E158FE4F10829983E4CFA2
:103FE00080917F018F32A1F7A0E8B1E00D90002011
:103FF000E9F7A158B140BB83AA838091F5048111F0
:1040000003C081E08093F50447E050E064E774E08A
:1040100080E891E00E949329892B11F5EA81FB81C8
:10402000FF27E158FE4FF081F9838F2F0E9459033B
:104030002981233411F0263429F469818DE190E03F
:104040000E94420B0E944C12809187018A330CF02F
:10405000BFCF87E891E00E946C290E947C0DB8CF09
:1040600047E050E06CE674E080E891E00E9493291C
:10407000892B49F46FEC7BE087E891E00E944413C0
:104080000E947210A5CF47E050E064E674E080E83B
:1040900091E00E949329892B49F464E77CE087E84A
:1040A00091E00E9444130E94981092CF47E050E0A4
:1040B0006CE574E080E891E00E949329892B49F433
:1040C00067E57DE087E891E00E9444130E94521169
:1040D0007FCF47E050E064E574E080E891E00E9423
:1040E0009329892B09F051C04A814A3060F089E850
:1040F00091E00E94682920918701243609F443C089
:104100002CF4223649F00E944C1262CF2936C9F1B4
:104110002037C9F721E001C020E0A22FB0E0BB8327
:10412000AA83FD01EE0FFF1FEE0FFF1FED56FA4FA2
:104130006083718382839383223079F420E030E0BE
:10414000A9010E94C82D811108C010926D0510921E
:104150006E0510926F05109270056A817B81660F63
:10416000771F660F771F695F7F4F8A819B81880F5A
:10417000991F880F991F44E08D569A4F0E941F0C7B
:10418000C2CF22E0CACF23E0C8CF46E050E06DE4C2
:1041900074E080E891E00E949329892BB1F4BA8100
:1041A000B93080F0609186016053643058F4E5E2E4
:1041B0006E9F602D1124605C70E04DE088E891E016
:1041C0000E941F0C0E942D1303CF46E050E066E4CE
:1041D00074E080E891E00E949329892B09F07AC06D
:1041E000FA81F83008F476C080918601A0ED9A2E0D
:1041F000980E23E0291508F4EBCE35E2939E802D2E
:104200001124E5E58E2E880E712C48E851E05B8381
:104210004A83092D10E0000F111F08571A4FAA8179
:10422000BB818C91882309F451C0B3E0B71508F421
:1042300071C78C3249F47394EA81FB813196FB8318
:10424000EA83F4E08F0EEBCFD801AD90BC90B4E0E0
:104250007B9E700111246701E6E0CE0ED11CCA0CD2
:10426000DB1C8A819B810E946829EA0CFB1CD70118
:1042700016966D937D938D939C931997682D70E09E
:1042800044E0C6010E941F0CEA81FB81FB83EA83A4
:104290008191882321F28C32C9F7C1CFE616B1F0A3
:1042A000892D0E945A0BB2E0EB1210C0EA81FB810B
:1042B000E558FE4F2FE720836FE78A819B8149965F
:1042C0000E94420B0E94B1100E946D0E892D0E9427
:1042D0006D127ECE47E050E06EE374E080E891E03E
:1042E0000E949329892B49F46BE37CE087E891E0F5
:1042F0000E9444130E940C116BCE47E050E066E32D
:1043000074E080E891E00E949329892B49F469E7E1
:104310007BE087E891E00E9444130E94301058CE61
:1043200047E050E06EE274E080E891E00E9493295B
:10433000892B71F487E891E00E94A3038091C00467
:104340008831E1F168E186EB94E00E94A00740CE5D
:1043500047E050E066E274E080E891E00E94932933
:10436000892B39F467EE79E087E891E00E944413E5
:104370002FCE47E050E06EE174E080E891E00E94CB
:104380009329892BF1F48091F504823009F020CE35
:1043900081E08093F50487E891E00E946C29909376
:1043A000F4048093F304E7E8F1E0CF0121912223A4
:1043B00019F0CF012C32C9F70E94A3030E944307D2
:1043C00007CE46E050E067E174E080E891E00E94AB
:1043D0009329892BF9F40E94340B0E944C120E94FD
:1043E00030100E942D1380E00E946D1281E00E9427
:1043F0006D1282E00E946D1283E00E946D120E9495
:1044000052110E9498100E9472100E940C110E947A
:10441000B110DECD44E050E062E174E080E891E06C
:104420000E949329892B19F40E94340BD1CD45E0C9
:1044300050E06BE074E080E891E00E949329892BC2
:1044400009F0C6CDF89488E18093600089E08093FC
:104450006000FFCF99819F5F2981E22FF0E0E15852
:10446000FE4F8083903408F0B3CDB3CDA0901C05EF
:10447000A11087C20E94AE042091580530915905C1
:10448000DB01A21BB30BBB83AA83809161059091D2
:1044900062050097A1F08A179B0788F480917D053B
:1044A00080FF03C00091760510E0B80183E00E9410
:1044B000510410926205109261051092810580915D
:1044C0005F054DE451E0849F9001859F300D1124DC
:1044D000EA81FB812E173F0728F48F5F80935F05E9
:1044E0000E94B30A2A813B81283E334008F476C5F6
:1044F00081E080935F050E94AE046093580570933D
:10450000590580935A0590935B055FEF509386059C
:1045100007E515E0F12CEE24E394D801D1960D9037
:10452000BC91A02DBB83AA8311968C9111978D7F8E
:10453000813049F46EE08C910E94570ABC018A8157
:104540009B810E947319F80101A8F2A9E02DFB8359
:10455000EA8382818F3409F0F0C266897789808D81
:10456000918D23812111B4C2628F738F848F958FB7
:10457000E38280915C05843009F4DFC2EA81FB812B
:1045800066897789808D918D0E941F30AA81BB81B9
:104590005E968D919C915F971816190634F48617D4
:1045A00097070CF0B2C29496EC92AA81BB819096C8
:1045B0008D919C919197181619064CF49C012150ED
:1045C0003109621773070CF0ACC29596EC9280919A
:1045D000A7059091A805892B39F0AA81BB819396F4
:1045E0001C92939792961C92AA81BB8192968C9171
:1045F000882309F4A9C2F09286050E5F1F4FF39439
:10460000F394F8E0FF1289CF20915C0529832330D1
:1046100008F058C1309157053B87109257054091DB
:104620009005509191055B834A832090A7053090B7
:10463000A805DA0156964D905D906D907C90599743
:10464000E0915D05F0915E05FA87E98712968C91FD
:104650008F3409F002C12114310409F0FEC0BF01FA
:10466000FF0F880B990B0E94CF2D6C837D838E8367
:104670009F83A30192010E94402F4B015C01C090D7
:104680009705D0909805E0909905F0909A0520E064
:1046900030E0A901C701B6010E94C82D87FF5FC2A3
:1046A0002DEC3CEC4CEC5EEB6C817D818E819F812E
:1046B0000E942E2EA30192010E94412FA701960174
:1046C0000E942E2E6093690570936A0580936B0596
:1046D00090936C05F981F23009F446C22091770578
:1046E000288720E030E0A901C501B4010E94C82D4F
:1046F00087FF03C04B8541110FC020E030E0A901C6
:10470000C501B4010E94553018160CF067C05B85D6
:104710008885581708F062C020919B0530919C0550
:1047200040919D0550919E05C501B4010E942E2E19
:1047300020916D0530916E0540916F055091700587
:104740000E94412F8B018C879B87A8856A2F70E080
:1047500090E080E00E94CD2D4B015C0120E030E034
:10476000A901C701B6010E94C82D87FF16C02AE91A
:1047700039E949E15FEBC701B6010E942E2E2C8179
:104780003D814E815F810E942E2E9B01AC01B401C0
:10479000C5010E94412F4B015C0120E030E0A901DE
:1047A000B8018C859B850E94C82D87FDE0C19401CE
:1047B000A501B8018C859B850E94553018161CF404
:1047C0008401AC86BB86C801AC85BB8580936D0532
:1047D00090936E05A0936F05B0937005A3019201AD
:1047E000EA81FB81628D738D848D958D0E94402FAF
:1047F00020919F053091A0054091A1055091A205FF
:104800000E942E2E6B017C01C0927105D092720520
:10481000E0927305F092740520916D0530916E055C
:1048200040916F05509170056091690570916A051E
:1048300080916B0590916C050E94412FA701960114
:104840000E94412F0E941F3077FD96C16536710589
:1048500014F064E670E060935705C301B2010E9452
:104860001F3029853A85261B370B121613060CF4C8
:1048700085C18091630590916405821993094E97D3
:1048800008F47CC1F981F11116C020E030E040E06D
:104890005FE360916D0570916E0580916F05909159
:1048A00070050E942E2E60936D0570936E058093A7
:1048B0006F059093700582E080935C051092A805C7
:1048C0001092A705809157058983C090A305D090C9
:1048D000A405E090A505F090A605682F70E090E093
:1048E00080E00E94CD2DA70196010E94402F21E873
:1048F00037EF47E05CE30E942E2EA70196010E944D
:10490000412F6093A3057093A4058093A505909310
:10491000A60580917905998130E09817A8F064E6A2
:10492000681B90915C05911161C190917705A981F7
:10493000A81BBB0B9A9FA0019B9F500D112470E0F8
:10494000CA010E94F030362F109262051092610564
:1049500020917805321708F44CC110926005232F7E
:1049600080917D0580FF04C080917605821B282FF1
:1049700020937E05211165C1109281050E94B30A22
:104980007BC1F12C43E0D42E54E6C52E6AE0B62E4E
:1049900068C40E94D30D811168C444E255E05B8372
:1049A0004A83EA81FB8182818F3F31F10E94AE040C
:1049B000AA81BB8113968D909D90AD90BC90169767
:1049C000681979098A099B0961327F4B82409105F8
:1049D00098F0E0912105F0912205309721F064E0F4
:1049E0008A819B810995EA81FB8182818F3F21F039
:1049F0002FEF2283118210824A815B81475F5F4FD4
:104A00005B834A834854554061F6FF2009F432CD58
:104A100062E089E00E9477032DCDD092DD010E94F3
:104A2000AE0460931D0570931E0580931F0590933F
:104A300020059091CC0180912305992339F088239A
:104A400009F40EC48150809323050AC48F3F19F0E6
:104A50008F5F809323058091C20154E0859FC00140
:104A60001124982F9C738091C30182958695869519
:104A70008370892B40912605841709F475C3309102
:104A80002F05831709F474C320913805821709F4A0
:104A900074C390914105891709F474C34F3F09F419
:104AA0000BC43F3F09F40CC42F3F09F40DC49F3FD2
:104AB00009F0D6C393E09A83A3E062C3472F50E086
:104AC000542F442744275F70462B51874087C0C32B
:104AD000EA81FB81828C938CA48CB58CA501940116
:104AE0000E94402F2AE83BE446E05DE30E942E2E20
:104AF000A50194010E94412FAA81BB815A966D9312
:104B00007D938D939C935D9734CD681779070CF056
:104B10004CCDEA81FB8184A1882309F446CDE2A231
:104B200044CD681779070CF452CDEA81FB8185A149
:104B3000882309F44CCDE3A24ACDEA81FB8114A27B
:104B400012A215A213A250CDEA81FB8183A1882372
:104B500009F453CD81E08F0D809386054ECDA701DA
:104B60009601C501B401ACCD34E63887BACD00E07A
:104B700010E01C861B8627CE60E06DCEC101019738
:104B8000232879F540919205442309F49BCE59815D
:104B9000523009F097CE54E6529FC001539F900DBA
:104BA000112469857A850E9404314617170611F091
:104BB0000CF088CE6091A3057091A4058091A505A5
:104BC0009091A6050E941F306A3571050CF07ACECF
:104BD00081E080935C051092570580916305909168
:104BE00064059093A8058093A7056CCE90917605F7
:104BF0009ECE4091600588EE93E0489FF001499F6A
:104C0000F00D1124622F70E080E197E20E940431E0
:104C1000369FC001379F900D1124E817F90760F403
:104C20008E1B9F0B90936205809361054F5F4A3006
:104C300028F44093600594CE20E0F8CF10926005F0
:104C40008FCE3091810580917D0584FFA9C0B7E8A2
:104C50002B9FC001112464E670E00E940431625A67
:104C60006093810531118ACE6FEF70E083E00E947E
:104C7000510480E8809380058091570560917C0500
:104C8000861708F496C084E680937F0580917D05A1
:104C900081FF06C090917F0584E6891B80937F0584
:104CA00020917B0540917A05421B550B30917F0581
:104CB000349FC001359F900D112464E670E00E947E
:104CC0000431260F44E1249F900111248091850531
:104CD0008F3F19F08F5F80938505809182059091B9
:104CE000830528173907A9F08C599F4F821B930B16
:104CF000893C910520F4809185058B3050F0F89423
:104D00001092840530938305209382057894109245
:104D10008505809111028F3F09F456C080911002E1
:104D20008F5F80931002853008F44EC0F894909104
:104D3000120280911102981346C05FEF5093110246
:104D40007894109210028CE794E00E94260B8091D8
:104D5000120294E0C92E8111C090DF0103E112E03C
:104D6000D12CF12CE12CDC1409F4ADC1D801ED916A
:104D7000FD918D01FB83EA83EE16FF0608F08AC1E0
:104D80008BE20E94210B6A817B816E197F09623060
:104D9000710508F490C180EB94E00E94B20F8BC1C2
:104DA000EFEF2E9FC001112464E670E00E940431F1
:104DB00057CFF4E68F9FC001112470E00E94F030BD
:104DC00060937F0563CF78948091CE049091CF0457
:104DD0000E949B078091CD018F5F8093CD018F71E1
:104DE00029F480911C0581110E94BF0F88E894E08E
:104DF0000E94260B80915C05843009F06BC185E52B
:104E00000E94210B0E943F0B80919005909191058B
:104E10000E941A1380918A0590918B050E941A13A3
:104E200080918C0590918D050E941A1380918E05BA
:104E300090918F050E941A136091570580EB94E0C2
:104E40000E94B80F0E943F0B6091A3057091A405CA
:104E50008091A5059091A6050E941F30CB010E946C
:104E6000D8100E943F0B6091A7057091A80580EBB8
:104E700094E00E94B20F0E943F0B60917E0580EB90
:104E800094E00E94B80F0E943F0B60917F0580EB79
:104E900094E00E94B80F0E94E30A8091870588235E
:104EA000D9F180919005909191059B838A83DC01D3
:104EB00012968C918F3481F582E894E00E94260B43
:104EC00005E615E0F80141915191619171918F01D1
:104ED00022E080EB94E00E946A110E943F0BF5E013
:104EE00005371F0779F7AA81BB815A962D913D910D
:104EF0004D915C915D9756966D917D918D919C91B0
:104F000059970E94402FAB01BC0122E080EB94E056
:104F10000E946A110E94E30AE8E8F5E0FB83EA8355
:104F200011E0AA81BB81ED91FD91BB83AA8362A1AF
:104F3000812F0E947703EA81FB8132970190F081F3
:104F4000E02D63A181E0810F0E9477031E5F19307D
:104F500041F7B0918605B98361E0BF3F09F460E095
:104F60008EE00E94770380910001E981EF3F09F410
:104F7000BCC08F3F59F41092CE011092CF01109215
:104F8000D0011092D10184E0809300010E940C11A5
:104F900067E086EB94E00E94A0078091CD018370CA
:104FA0008130D1F48EE894E00E94260B22E032E0BA
:104FB0003B832A830E943F0BAA81BB816D91BB83F7
:104FC000AA8380EB94E00E94B80FEA81FB81E8504D
:104FD000F24081F70E94E30A0E94AC0986EB94E05C
:104FE0000E942E093091000139833F3F09F440C0EF
:104FF0000E94AE045981452F50E05B834A83FA0139
:10500000ED56FB4FE4912091CE013091CF01AB01E1
:10501000421B530B1AE0E19FF0011124E417F5073E
:1050200038F50E94AE046093CE017093CF01809357
:10503000D0019093D1018A819B81019666E070E056
:105040000E94F0308093000140E06091530580FDA4
:105050000BC08D569B4FFC018491819F802D1124A4
:105060000E94860740E060E089E495E00E946007C6
:105070000E94BA0480E090E0892B11F40C94CC1FBC
:105080000E947005882311F40C94CC1F0E9400002C
:105090000C94CC1F2A813B812E153F0580F48DE2B4
:1050A0000E94210BB7014A815B81641B750B613043
:1050B000710509F070CED394EA80FB8054CE8EE265
:1050C0000E94210BF8CF0E94E30A80911202809384
:1050D00011027ACE833011F48DE292CE80915D057B
:1050E00090915E050E94D8108DCE8F3F61F0F981BE
:1050F000F09300010E947F0740E06091530589E42E
:1051000095E00E9460078091C004873009F045CF88
:1051100062E03FCF8A819B810E946C29682F292DF4
:1051200030E03B832A83F901EE0FFF1FE95AFA4F63
:1051300001A8F2A9E02DE18067FFB0C870E8F72E62
:10514000F60E0A811B8105581E4F32E0E31204C09F
:10515000D8018C91F81621F062E0892D0E945A0B3B
:10516000F801F0826F2DA9C81A8232E039830EC08F
:1051700041E04A8352E0598309C092E09A83A2E059
:10518000A98304C0B3E0BA83E2E0E983BA81EB2EDD
:10519000F12C29E02E9DF0012F9DF00D1124E45EED
:1051A000FA4F9285891719F08287118610860E941E
:1051B000AE04A9E0AE9DF001AF9DF00D1124E45EB8
:1051C000FA4F63877487858796877091C301272F6D
:1051D000207275FD22E08091C50187FD21608F77E7
:1051E0008F3709F02460BA81E9E0BE9FC001112425
:1051F0008C5D9A4F39E03E9DF0013F9DF00D1124EA
:10520000E45EFA4F27872091C1012695208B60919B
:10521000C401DC0117962C9122FF50CC6A3A01F1AF
:105220007F70462F50E034E0559547953A95E1F769
:10523000B49E9001B59E300D11247C9D200D311D32
:1052400011246F70260F311D20593140318720877E
:10525000E0912105F0912205309711F069810995BF
:10526000FA2C8091DE01811194CB8091DD01843094
:1052700039F49091C0018091BF01981709F4CDCB0A
:105280008091DD01833009F088CB1092BF0110922C
:10529000CC013FEF3093C00194E09093DD01F8948E
:1052A0008093C10183EA94E90E94180689ED92E88F
:1052B0000E941806789471CB1A82F3E0F98366CFC6
:1052C00021E02A8333E052CF42E04A8353E053CFB8
:1052D000662777270C94B32BFC0188279927E8943D
:1052E00021912032E9F3293010F02E30C8F32B320F
:1052F00041F02D3239F4689404C00E94A129820F34
:10530000911D219120532A30C0F31EF49095819570
:105310009F4F0895FB01DC0102C005900D924150A2
:105320005040D8F70895FB01DC014150504030F067
:105330008D910590801919F40020B9F7881B990BFD
:1053400008957AE0979F902D879F802D910D1124CD
:105350000895AEE0B0E0EFEAF9E20C94082F0D8971
:105360001E898F89988D2EE02C831A83098397FFDD
:1053700002C080E090E801979E838D83AE01455E78
:105380005F4F698D7A8DCE0101960E94D9294D819A
:105390005E8157FD0AC02F813885421753070CF4F0
:1053A0009A01020F131FF80110822E96E4E00C946C
:1053B000242FABE0B0E0EFEDF9E20C94FA2E7C0183
:1053C0003B018A01FC0117821682838181FFC8C1DB
:1053D000CE0101965C01F7019381F30193FD859164
:1053E00093FF81913F01882309F453C1853239F439
:1053F00093FD859193FF81913F01853229F4B70197
:1054000090E00E943A2DE7CF912C212C312CFFE126
:10541000F31538F08B3211F190F4803209F18332B8
:1054200029F137FC3CC020ED280F2A3050F536FE1C
:1054300020C08AE0989E200D1124922E06C08D3245
:1054400091F0803371F7689430F8F30193FD859102
:1054500093FF81913F018111DACF21C0689431F827
:10546000689432F8F2CF689433F8EFCF689434F848
:10547000ECCFEAE02E9E200D1124222E689435F800
:10548000E4CF8E3229F436FC04C1689436F8DDCFBF
:105490008C3619F4689437F8D8CF8836B1F2982F43
:1054A0009F7D95549330E0F08336A1F18337C1F1AD
:1054B000833509F063C02801F2E04F0E511CF8015A
:1054C000C080D180692D70E036FC02C06FEF7FEFA5
:1054D000C6010E94242D4C01689437F882010AC04D
:1054E0000C5F1F4FFFE3F98388248394912C65019F
:1054F000E89437F833FE2DC0522C8114910471F5D5
:10550000552009F468CFB70180E290E00E943A2D5F
:105510005A94F6CFF801808189830E5F1F4FE4CF44
:105520002801F2E04F0E511CF801C080D180692D96
:1055300070E036FC02C06FEF7FEFC6010E942F2D96
:105540004C018201D5CFB70180E290E00E943A2D54
:105550002A942814190409F0B0F7CECFF60137FCCD
:10556000859137FE81916F01B70190E00E943A2D3D
:1055700051105A94F1E08F1A9108BFCF843619F078
:10558000893609F077C0F80137FE6BC06081718100
:10559000828193810C5F1F4FF32DFF763F2E97FF83
:1055A00009C090958095709561957F4F8F4F9F4F63
:1055B000689437F82AE030E0A5010E946A2DC82ED1
:1055C000CA188C2C432C36FE0CC0E89440F8C91441
:1055D00040F434FE05C032FC03C0F32DFE7E4F2E96
:1055E000892C44FE95C0FE01EC0DF11D80818033B5
:1055F00009F087C0242D297E422E842D8870582ED4
:1056000043FC95C040FE8FC09C2C821418F42C0CD7
:10561000922C981844FE91C0B70180E390E00E945C
:105620003A2D42FE09C088E790E041FE02C088E5BD
:1056300090E0B7010E943A2DC91408F48AC0CA94B8
:10564000D12C9FEFC91AD90ACA0CDB1CF601829132
:105650006F01B70190E00E943A2DAC14BD04B1F780
:105660004FCF60817181072E000C880B990B0E5F64
:105670001F4F92CFD32CE894D4F82AE030E085373E
:1056800039F1232D297FD22E8F3601F148F4883548
:10569000A9F0F701868197812B96E2E10C94162FF1
:1056A000803749F08837A9F7D4FE02C06894D2F851
:1056B00020E130E00DC06894D4F8F6CF34FE03C08A
:1056C000822F8660D82E20E132E002C028E030E050
:1056D000F801D7FE0FC060817181828193810C5FD8
:1056E0001F4FA5010E946A2DC82ECA183D2CE894B0
:1056F00037F867CF6081718190E080E00E5F1F4FC7
:10570000F0CF42FC02C0839478CF8394839475CF0A
:10571000842D867809F471CFF6CFB70180E290E04E
:105720000E943A2D83948214C0F3512C73CF522CD3
:105730005818821408F46ECFF8CF842D867809F4B7
:105740007BCF8BE241FE80E247FC8DE2B70190E027
:1057500071CFB70180E390E00E943A2D9A946CCF0C
:105760008FEF9FEF99CFB0E0A0E0E9EBFBE20C9464
:10577000002F5C017B016115710519F0DB018D9330
:105780009C9385010F5F1F4FF501D0818D2F90E015
:105790000E94032D6C01892BB9F5DD32B9F50F5F3D
:1057A0001F4FD5011196DC91C1E05801F1E0AF1A0D
:1057B000B10843E050E06AEC70E0C5010E940C2D96
:1057C000892B69F5680182E0C80ED11C45E050E0E4
:1057D00065EC70E0C6010E940C2D892B21F4680154
:1057E00097E0C90ED11CE114F10419F0D701CD9254
:1057F000DC9260E070E080E89FEFC111FFC060E0E4
:1058000070E080E89FE7FAC05801BBCFDB3229F493
:1058100085010E5F1F4FF501D181C0E0C6CF43E087
:1058200050E062EC70E0C5010E940C2D892BE9F07C
:10583000F80110E000E020E030E0A9015F01B0EDE8
:105840008B2E8D0E89E08815C8F19C2E689491F8F6
:105850008C2F8870C2FF16C0811102C00F5F1F4FCE
:105860003196D501DC91C92DE9CFE114F10429F07D
:105870000E5F1F4FF7011183008360E070E080EC42
:105880009FE7BCC0882311F001501109A5E0B0E0EA
:105890000E94EF2E9B01AC01220F331F441F551FA6
:1058A000280D311D411D511D283999E93907490736
:1058B00099E15907A8F2C6609C2ED2CFAEEF8A12AA
:1058C00006C0C3FD3CC09C2E689493F8C9CFDF7D11
:1058D000D534A9F580818D3239F4C061DF0112968B
:1058E000818162E070E006C0DF018B32C1F3119666
:1058F00061E070E080535D01A61AB70A8A30F8F4BF
:10590000E0E8CE16ECE0DE065CF4B601660F771F29
:10591000660F771FC60ED71ECC0CDD1CC80ED11C1F
:105920005D01FFEFAF1ABF0A8C9180538A30A8F156
:10593000C4FF03C0D194C194D1080C0D1D1DC1FF3B
:1059400009C0E114F10431F081E0A81AB108D701CF
:10595000AD92BC92CA01B9010E94CD2DC370C33073
:1059600009F490584B015C0120E030E0A9010E944D
:10597000C82D882309F440C0C9EFD0E017FF05C047
:10598000119501951109C1EED0E06E01B8E1CB1A75
:10599000D10880E2E82EF12C0FC0D501B1CFFE0175
:1059A00025913591459154910E191F09C501B401F6
:1059B0000E942E2E4B015C01D501C4010E151F055E
:1059C00074F72497F594E794CC16DD06A9F78A2F8F
:1059D000880F8B2F881F8F3F49F020E030E0A9010E
:1059E000C501B4010E94C82D811106C082E290E079
:1059F0009093420680934106C501B401CDB7DEB74E
:105A0000ECE00C941C2F91110C949B2E803219F019
:105A100089508550C8F70895FB01DC014150504082
:105A200088F08D9181341CF08B350CF4805E65918B
:105A300061341CF06B350CF4605E861B611171F3F0
:105A4000990B0895881BFCCFFC01059061507040B4
:105A50000110D8F7809590958E0F9F1F0895FC0137
:105A60006150704001900110D8F7809590958E0F8D
:105A70009F1F08950F931F93CF93DF93182F092F24
:105A8000EB018B8181FD09C01FEF0FEF812F902F5C
:105A9000DF91CF911F910F91089582FF14C02E8145
:105AA0003F818C819D81281739073CF4E881F98179
:105AB000CF0101969983888310838E819F810196FF
:105AC0009F838E83E3CFE885F985812F0995892B04
:105AD000A1F3DACFFA01AA27283051F1203181F160
