:100000000C9401030C945C1C0C94351C0C942F0371
:100010000C942F030C942F030C942F030C942F0398
:100020000C942F030C942F030C941E1E0C94DB1CB9
:100030000C94131E0C942F030C942F030C942F0379
:100040000C94EB1B0C942F030C94A91C0C94831C94
:100050000C942F030C94231D0C942F030C942F034A
:100060000C942F030C942F0308000000BE92244927
:10007000123EABAAAA2ABECDCCCC4C3E00000080DA
:10008000BEABAAAAAA3E00000000BF000000803F4D
:100090000000000000084178D3BB4387D1133D190D
:1000A0000E3CC3BD4282AD2B3E68EC8276BED98F3A
:1000B000E1A93E4C80EFFFBE01C4FF7F3F0000007E
:1000C00000004E414E494E495459494E46CDCCCC84
:1000D0003D0AD7233C17B7D13877CC2B329595E61C
:1000E000241FB14F0A000020410000C84200401CFC
:1000F0004620BCBE4CCA1B0E5AAEC59D744B636FE6
:1001000075706C65005246576972656C005468657D
:10011000726D69730044697361626C6500C10000AF
:10012000ECD8B29D9CC3EC143D51654F3B14484D37
:10013000524D00484D50432C00484D504E00484D04
:1001400050442C302C00484D504F00554349442C0E
:100150004865617465724D657465722C3230323653
:10016000303631302D686D3400484D4C442C0048F9
:100170004D4C422C00484D414C00484D464E2C0001
:100180000FF0E10006F00000000000000080400ACF
:10019000D7A33C0000A04000327F7F7F7F460064F1
:1001A00010FF640D0A0B0064C8006450726F626532
:1001B00020200000000000000000000000000000FF
:1001C00000000100D8FF38FF0000FB7E403A4239B2
:1001D00062390959CC3300401C4600040E1F040448
:1001E0000400000404041F0E0400070F1F1F1F1F3C
:1001F0001F1F1F1F1F00000000001C1E1F1F1F1FAE
:100200001F1F1F1F1F1F1F1F0F0700000000001FC1
:100210001F1F1F1F1F1F1F1F1E1C1F1F1F0000004F
:100220001F1F1F000000001F1F1F00010203040505
:100230000102202005200606020307070606020722
:100240000705030402202005FF0606070705000630
:10025000060307050101022000200006020307052E
:10026000000602202005257320253364DF00506935
:10027000743A253364DF25632025632533752525EE
:100280002563005069743A253364DF2563204C6987
:1002900064253375005069743A253364DF25632083
:1002A000205B4F66665D002D204E6F2050697420E4
:1002B00050726F6265202D002A2A20414C41524D18
:1002C0002048494748202A2A002A2A20414C4152E6
:1002D0004D204C4F5720202A2A00253364DF256308
:1002E000005365742074656D706572617475726514
:1002F0003A004F666673657420253464DF25630019
:1003000025336425252062656C6F77207365740042
:100310004C6964206F70656E206F6666736574004B
:10032000253364207365636F6E6473004C696420C9
:100330006F70656E2074696D6572004D616E7561D8
:100340006C2066616E206D6F646500484D52432CD1
:100350005553455200526573657420636F6E66692C
:10036000673F007370656564202533642525004D63
:100370006178696D756D206175746F2066616E00BE
:100380002533642525004C434420627269676874F4
:100390006E6573730042746E253033753D2531757B
:1003A0002020204247253033750046616E253033CA
:1003B000753D253033755620253032754E7A002034
:1003C0002020202020200015010D010501FD0050F6
:1003D0002531752041442531632530357520253080
:1003E00032754E7A00484D48492C00323032363052
:1003F0003631302D686D34003E2048656174657279
:100400004D65746572203C0057616974696E672E92
:100410002E2E004F66666C696E65007265626F6FA6
:1004200074007563696400636F6E66696700736565
:10043000743F68693D007365743F74703D00736577
:10044000743F74743D007365743F666E3D00736560
:10045000743F616C3D007365743F68723D00736565
:10046000743F7063007365743F706E007365743F12
:10047000706964007365743F706F3D007365743F0D
:100480006C643D007365743F6C623D007365743F3E
:1004900073703D00484D4E442C00484D50532C0085
:1004A000484D53552C00484D4152000A050A050A93
:1004B0003200000000240027002A004E6F2000595F
:1004C000657300484D52462C3235352C302C0000D7
:1004D000000000230026002900000000080002019F
:1004E000000003040700000000000000001B2F06AE
:1004F00003280403020A03040504280504020A046D
:10050000040305280305020A05040406280306025D
:100510000A0604050A21030A0214142103141119FE
:1005200014021A1A21031A021616210316021717AB
:10053000210317020E0E21030E020F0F21030F02DB
:1005400010102103100211112103110212122103B4
:1005500012021313210313021515210315020A19A0
:10056000110300000003DE0C050104DE0C0501058B
:10057000DE0C050106DE0C0101075C1100000A21FA
:10058000160A0014CC0E0A010EDD150A000FDD1547
:100590000A0010DD150A0011DD150A0012B2150A55
:1005A000001386150A0015F1190A00174E150A00E6
:1005B000160D150A00182209140019F30800011A73
:1005C0000E100A001B73090100000000000000006B
:1005D0000000250028002B00040404040404040483
:1005E00002020202020203030303030301020408DE
:1005F000102040800102040810200102040810208D
:100600006A1E11241FBECFEFD8E0DEBFCDBF14BEDF
:10061000E0E6F0E088E18083108226E0A6E6B1E023
:1006200001C01D92A037B207E1F711E0A0E0B1E0F0
:10063000EAEFF4E602C005900D92A636B107D9F7AD
:1006400013E0C1E0D3E004C02197FE010E946332B1
:10065000C030D107C9F70E94991F0C947B320C94CB
:1006600000008091B5059091B6059093BE058093EA
:10067000BD05E5EBF5E0A191B19111968C91119733
:10068000882329F0B093BE05A093BD05089585E0A9
:10069000ED3BF80781F708958093AA0590EC85FD5E
:1006A00003C09FEF86FD90EAF8949093090293E0CF
:1006B00090930F0278949093B00084FF04C081E07F
:1006C0008093B100089585E0FBCF863429F064F46F
:1006D000813411F0833461F48093A205E091BD056B
:1006E000F091BE05138208958F3419F08235A1F37D
:1006F000089584E0809389051092D5051092D40561
:1007000010928405F5CFFF920F931F93CF93DF9341
:10071000F82E062FC5E3D5E010E06881862F8F778D
:100720008F1113C009838A81823079F0023069F019
:10073000661F6627661F6027861739F06A83E09177
:100740004705F0914805812F09951F5F23961430C6
:1007500021F7DF91CF911F910F91FF900895DC0158
:1007600090E080E22D9121110AC0E92FF0E0E150E4
:10077000FB4F80E29132C0F49F5F8193FBCF9132B7
:1007800098F4E92FF0E0293034F42150E052FB4F87
:10079000278F9F5FE7CF2C32C9F7E150FB4F903195
:1007A00008F79F5F8193FBCF0895833081F028F491
:1007B000813099F08230A9F008958730A9F088300F
:1007C000C9F08430B1F4809180008F7D03C08091A6
:1007D00080008F7780938000089584B58F7784BDE3
:1007E000089584B58F7DFBCF8091B0008F77809383
:1007F000B00008958091B0008F7DF9CF1F93CF9303
:10080000DF93282F30E0F901E752FB4F8491F90183
:10081000E451FA4FD491F901E852FA4FC491CC2334
:10082000A9F0162F81110E94D503EC2FF0E0EE0FF6
:10083000FF1FE253FA4FA591B4918FB7F894EC9152
:10084000111108C0D095DE23DC938FBFDF91CF91CB
:100850001F910895DE2BF8CFCF93DF9390E0FC013A
:10086000E451FA4F249188529A4FFC0184918823D5
:10087000D1F090E0880F991FFC01EF54FB4FA59138
:10088000B491FC01E253FA4FC591D49161110EC0AD
:100890009FB7F8948C91E22FE0958E238C9328815A
:1008A000E223E8839FBFDF91CF9108958FB7F8943B
:1008B000EC91E22BEC938FBFF6CF1F93CF93DF9396
:1008C000182FEB0161E00E942C04209739F460E0BE
:1008D000812FDF91CF911F910C94FE03CF3FD10563
:1008E00011F461E0F5CFE12FF0E0E752FB4FE49126
:1008F000E33031F140F4E130B1F0E230E1F0C03802
:10090000D1057CF7E4CFE73029F1E83059F1E43044
:10091000B1F780918000806280938000D0938B003B
:10092000C0938A0004C084B5806884BDC7BDDF91D0
:10093000CF911F91089584B5806284BDC8BDF7CF63
:1009400080918000806880938000D0938900C0935C
:100950008800EDCF8091B00080688093B000C09394
:10096000B300E5CF8091B00080628093B000C09367
:10097000B400DDCF2FB7F8946091010270910202AC
:1009800080910302909104022FBF08951F93CF938B
:10099000DF930E94BA0420914605222349F020915A
:1009A000410530914205621B730B643F714048F171
:1009B0000E94BA04609341057093420580934305F9
:1009C0009093440581E080934605809145058F5FB3
:1009D00080934505C5E3D5E010E08091450580FF93
:1009E00014C08981823049F48A831982E0914705D5
:1009F000F09148056A81812F09951F5F2396143075
:100A000061F7DF91CF911F9108958A818230A9F714
:100A10001A82ECCF0895DC01ED91FC910190F081F8
:100A2000E02D0994AF92BF92CF92DF92EF92FF92A6
:100A30000F931F93CF93DF936C017B018B01040F06
:100A4000151FEB015E01AE18BF08C017D10759F0A2
:100A50006991D601ED91FC910190F081E02DC601E4
:100A60000995892B79F7C501DF91CF911F910F91DE
:100A7000FF90EF90DF90CF90BF90AF900895FC0172
:100A8000538D448D252F30E0842F90E0821B930BF3
:100A9000541710F0CF96089501970895FC01918D99
:100AA000828D981761F0A28DAE0FBF2FB11D5D969C
:100AB0008C91928D9F5F9F73928F90E008958FEF3E
:100AC0009FEF0895FC01918D828D981731F0828DF2
:100AD000E80FF11D858D90E008958FEF9FEF089549
:100AE000FC01918D228D892F90E0805C9F4F821BAD
:100AF00091098F73992708958DE394E00E94700502
:100B000021E0892B09F420E0822F089580E090E015
:100B1000892B29F00E947C0581110C940000089516
:100B2000FC01A48DA80FB92FB11DA35ABF4F2C9162
:100B3000848D90E001968F739927848FA689B78959
:100B40002C93A089B1898C91837080648C93938D50
:100B5000848D981306C00288F389E02D80818F7DF3
:100B600080830895EF92FF920F931F93CF93DF93AB
:100B7000EC0181E0888F9B8D8C8D98131AC0E889D9
:100B8000F989808185FF15C09FB7F894EE89FF89A8
:100B90006083E889F98980818370806480839FBF46
:100BA00081E090E0DF91CF911F910F91FF90EF9046
:100BB0000895F62E0B8D10E00F5F1F4F0F73112756
:100BC000E02E8C8D8E110CC00FB607FCFACFE88991
:100BD000F989808185FFF5CFCE010E949005F1CF84
:100BE000EB8DEC0FFD2FF11DE35AFF4FF0829FB705
:100BF000F8940B8FEA89FB8980818062CFCF682FC0
:100C00008DE394E00C94B205CF93DF93EC01888DD3
:100C10008823B9F0AA89BB89E889F9898C9185FD77
:100C200003C0808186FD0DC00FB607FCF7CF8C9105
:100C300085FFF2CF808185FFEDCFCE010E94900528
:100C4000E9CFDF91CF9108952CB521602CBD2A9872
:100C50009EBD0DB407FEFDCF2EB530E0322F22270A
:100C60008EBD0DB407FEFDCF9EB52A9A8CB58E7F42
:100C70008CBDA901492BCA010895FF920F931F93C0
:100C8000CF93DF9390E080E00E942406F92E9093AA
:100C9000840180910702843009F064C080E090EB09
:100CA0000E942406EC018091E90163E00E940D326C
:100CB000911114C0E091EB01F0E00F2D017010E0F4
:100CC000EE0FFF1FE65FFE4FE00FF11F8081809364
:100CD000EB0190E0806A94690E9424068091E9010A
:100CE000811118C0CE0124E0959587952A95E1F7EA
:100CF0008F7099270296959587958093EA01809148
:100D0000EA01823020F08091EA018B3018F082E015
:100D10008093EA01E091E90181E08E0F8093E9017F
:100D2000F0E0E451FE4FC0838091F6018C2798E0FB
:100D300021E387FF15C0880F82279150D1F7809358
:100D4000F6019091E9018091EA01981350C089E081
:100D500092E8DF91CF911F910F91FF900C942406A0
:100D6000880FEBCF8091070287FF1FC0E091070239
:100D700081E08E0F809307028091EA01E80FF0E096
:100D8000E451FE4F80819091F601982728E031E3ED
:100D900097FF09C0990F93272150D1F79093F6013F
:100DA00090E09854D6CF990FF7CF8091070291E049
:100DB000980F90930702823099F024F4882369F009
:100DC0008AEAEECF853089F08630D1F78091EA014A
:100DD00081958093070284EDE3CF8091F601E0CF07
:100DE00089E092E80E942406EBCF8DE2D9CFDF9113
:100DF000CF911F910F91FF900895DC01ED91FC912F
:100E00000084F185E02D41E0099581E090E00895AE
:100E10001F93CF93DF93162FEC01115040F0FE018A
:100E2000649186E795E00E94FD062196F6CFDF915A
:100E3000CF911F910895DC01ED91FC910084F18523
:100E4000E02D40E009940F931F93CF93DF9300D0E0
:100E500000D0CDB7DEB700910601109107012091B7
:100E600008013091090109831A832B833C839091F7
:100E70007E05961710F46FEF690FFE01E60FF11D66
:100E80006181680F606886E795E00F900F900F9082
:100E90000F90DF91CF911F910F910C941B0762E08F
:100EA00086E795E00E941B078BE39FE10197F1F72E
:100EB00040E150E06FEF74E086E795E00E94120594
:100EC00061E080E00E94230740E150E06FE075E0C0
:100ED00086E795E00C941205FC012185222391F010
:100EE000653608F064E6442311F0FC016287FFEFE9
:100EF0006F9FC001112464E670E00E941932822FB6
:100F00000C945D04089561E00E941B078BE39FE150
:100F10000197F1F70895EFE6F0E080818D7F8083FF
:100F20005E980895CF93DF93C82F0E948B0788E0C7
:100F3000C89FE0011124D0938301C0938201EFE6A2
:100F4000F0E0808182608083DF91CF9108950097E7
:100F500011F0FC01099408951F93CF93DF93EC01E6
:100F6000162F623009F41B858A8581138B87133015
:100F700080F18A85181769F1EE81FF81309749F079
:100F80003196259134912115310519F080E4F9014C
:100F900009951A878A819B819F838E831F86198E6C
:100FA000188EEE81FF818491882331F0181721F08B
:100FB0003596FF83EE83F5CF309759F03196259122
:100FC00034912115310599F280E8F9010995182F1E
:100FD000CECF0E94BA04688B798B8A8B9B8BDF9172
:100FE000CF911F9108958F929F92AF92BF92CF920F
:100FF000DF92EF92FF921F93CF93DF93EC010E9459
:10100000BA046B017C018C899D89AE89BF89A701D7
:101010009601281B390B4A0B5B0BDA01C9018A3F89
:101020009105A105B10508F479C0E885F985099510
:10103000182F811168C02C8D222309F439C08A85AC
:101040009A8D891708F434C09B8D981788F130E089
:10105000A8EEB3E00E945A3088889988AA88BB8895
:10106000A7019601281939094A095B0949015A0162
:10107000681579058A059B05F8F410E2EE81FF8179
:10108000309709F074C02C813D818A85412F4061E1
:10109000F9019491992309F477C089138AC0319694
:1010A000E491E4231E1385C0F901329684916CC04B
:1010B000EE81FF813097C1F48C8581133BC08F8511
:1010C0008F3F11F08F5F8F878D859E85009709F484
:1010D0003DC00197F9F48F858430E0F0106182E023
:1010E00090E09E878D87CACF3396E4912E2F30E013
:1010F000A8EEB3E00E945A30611571058105910593
:1011000009F0AACFD9CFCC8ADD8AEE8AFF8A803255
:1011100099F6B3CFC88AD98AEA8AFB8ADF91CF9140
:101120001F91FF90EF90DF90CF90BF90AF909F9076
:101130008F9008951F8611110CC02D853E8521309A
:10114000310509F4182F1C871E861D86112331F3E3
:1011500095CFEE81FF813097B1F33496E491E1238E
:1011600091F31C8781E090E09E878D87D7CF3196E1
:10117000259134912115310509F485CF812FF9018D
:101180000995813009F47FCF682FCE010E94AC070A
:10119000888D998D0E94A707EE81FF81309709F411
:1011A000BDCF3496E4911E2309F4B8CF82E090E0DD
:1011B000DBCF2D5F3F4F6CCFDC011C96EC911C9771
:1011C000E83070F41D968C911D97E81748F481E083
:1011D0008E0F1C968C931C97EA0FFB2FF11D6483D6
:1011E00081E090E00895282F8038B9F48091EB04D5
:1011F000893111F01092FD0489E893E19093F9048C
:101200008093F8048091FD04843029F4237019F050
:1012100088EC0E94920781E008958091FD042230BD
:1012200049F490E0019665E070E00E942D328093D1
:10123000FD04E8CF213031F7811102C084E0F7CFFF
:101240008150F5CF803821F40E944F0781E0089546
:1012500082E008950F931F93CF93DF938C01662351
:1012600021F086E795E00E948307E801FE01649182
:101270002196662329F086E795E00E94FD06F6CFC9
:10128000DF91CF911F910F9108950F931F93CF93EB
:10129000DF93EC018C010E5B1F4FF80180818230DF
:1012A000A1F40E94BA04FE01ED5BFF4F2081318161
:1012B000621B730B6132F3E07F0770F0F80110825C
:1012C00061E083E194E00E942A09CE01DF91CF9191
:1012D0001F910F910C94F30765367105B0F361E02F
:1012E00088E094E0F0CF803899F461E088EF93E0F3
:1012F0000E942A0961E083E00E94230760E08BEEF0
:1013000093E00E942A0962E486E795E00E94FD06C8
:1013100081E00895DF92EF92FF920F931F93CF9396
:10132000DF9390916601981759F122E0D22E911126
:1013300002C098E0D92EC82FF12CE12CD0E0C130AA
:1013400021F00AED11E0D23010F00AEE11E00E0D9E
:101350001F1D6E2D606486E795E00E941B0768E004
:10136000C8010E94080760E886E795E00E941B0715
:10137000DF5F88E0E80EF11CDD12E1CFC09366016B
:10138000DF91CF911F910F91FF90EF90DF90089523
:10139000089590E080E0089560E080E00E9483037B
:1013A00061E08091D4059091D505892B09F460E026
:1013B0008AE00E94830361E080918405811101C06D
:1013C00060E08BE00E94830361E0809184058436B5
:1013D00008F460E08DE00E94830361E0809189055C
:1013E000823009F060E08CE00E94830361E080912C
:1013F0008905811160E08FE00E94830361E08091A4
:101400008905813009F060E080E10C948303882332
:1014100019F0813041F0089581E0672B09F480E0F4
:101420008093B405089560933B028FEF80933C0254
:1014300084E080933A020895CF92DF92EF92FF9278
:101440001F93CF93DF93EC016A017B016C817D8157
:10145000072E000C880B990B0E94F82E1091A20504
:10146000163431F424EE38E34EE05FE30E94572F48
:10147000A70196010E946A306B017C0120E030E0F8
:1014800048EC52EC0E94F12E181654F08CE48A833A
:10149000DF91CF911F91FF90EF90DF90CF90089553
:1014A00020E030E04AEF53E4C701B6010E947E31EC
:1014B00087FD02C088E4EBCF1634A1F426E636E6B9
:1014C00046EE5FE3C701B6010E94572F20E030E0EF
:1014D00040E052E40E946A306E8B7F8B888F998F38
:1014E0008FE4D5CFCE8ADF8AE88EF98EF9CFCF93FD
:1014F000DF93282FC62FF89464E0869FF001112413
:10150000E75FFD4F63857485858596857894D0E087
:10151000211110C02CE030E02C1B3D0BDC01CB0175
:1015200004C0B695A795979587952A95D2F7DF9130
:10153000CF91089524E0660F771F881F991F2A9581
:10154000D1F72091090230E050E040E00E944132A2
:101550008EE090E08C1B9D0BB90102C076956795DB
:101560008A95E2F7CB01E3CF68E080E00E94770A3A
:101570008823B9F09BEE980F973268F093EC980FA0
:10158000973258F097E8980F973248F0815A87328F
:1015900040F482E0089581E0089588E0089584E0B1
:1015A000089580E008958091AE058823E9F0909138
:1015B000AA0594FF19C068E081E00E94770A909123
:1015C000AE05492F481B550B9A0157FF02C02F5FEC
:1015D0003F4F359527958091AD05820F932F911D33
:1015E000181619064CF081E08093AD056091AD05A9
:1015F00070E083E00C945D048F3F9105A9F3A4F3A0
:101600008FEF90E0F1CF8AE290E00E94FF056091B9
:10161000DF0462956F706A30B0F4605D8DE394E032
:101620000E94B2056091DF046F706A3070F4605DF3
:101630008DE394E00E94B2058AE090E00E94FF05ED
:101640001092DE040895695CE9CF695CF1CF1F93C5
:10165000CF93DF93EC01162F8C81811107C081E0BD
:101660008C831D8284E290E00E94FF058D8181279A
:101670008D83612F8DE394E0DF91CF911F910C94C6
:10168000B205682F8AED94E00C94270BCF93DF937B
:10169000EC01FE0184912196882319F00E94410BF0
:1016A000F8CFDF91CF9108958BE491E00E94460B33
:1016B00062E48AED94E00E940B050C94030B8CE22B
:1016C0000C94410BF999FECF92BD81BD81E08FBB97
:1016D00080B5681761F060BDF8948095862341F06D
:1016E00084E06F3F09F484E18FBBF99A7894089500
:1016F00084E2FACFCF93DF93C82FD62FE82FF0E004
:10170000EE0FFF1FEC57FA4F01A8F2A9E02D6183FD
:1017100085E5828313820E9431038FE2C89FC02D2A
:101720001124C95A6D2F8C2F90E0DF91CF910C942A
:10173000620BCF93883008F050C0E82FF0E0ED55F1
:10174000F44F0C946332AB0BB50BBD0BC50BCD0B3B
:10175000D50BDD0BE50B653608F064E66093A50557
:101760008EE190E0CF910C94620B653608F064E650
:101770006093A3058FE190E0F5CF6093A8058AE020
:101780008093B20587E290E0EDCF6093A7058AE0F1
:101790008093B20588E290E0E5CFC62F862F0E94A5
:1017A0004C036C2F80E290E0DDCF653608F064E6F4
:1017B0006093A40582E290E0D5CF643608F060E043
:1017C0006093A60589E290E0CDCF653608F064E627
:1017D0006093A9058AE290E0C5CFCF9108950F9359
:1017E0001F93CF93C62F813041F1D0F08630D0F5D2
:1017F0008250082F10E0F801EE0FFF1FE00FF11FDD
:10180000EB5CFA4F60839281913031F4E0914705AF
:10181000F091480560E009956C2FC801839608C0D7
:1018200041E086E795E00E946C076C2F88E190E02C
:10183000CF911F910F910C94620B6093FE048091E5
:10184000EA048350833050F486E795E00E948307D2
:101850008091F8049091F9040E94A7076C2F81E20F
:1018600090E0E6CFCF911F910F9108956091890587
:10187000633008F460E087E190E00C94620BEF9233
:10188000FF920F931F93CF939B01C42F8C01C150E4
:1018900030F4CF911F910F91FF90EF900895F801D0
:1018A00061918F017901FFEFEF1AFF0AC9010E94D0
:1018B000620B9701ECCFCF93DF9300D0CDB7DEB7AB
:1018C0007A836983982F9695E92FF0E0EE0FFF1F3A
:1018D000EC57FA4F21A932A98170462F572F682F54
:1018E00070E0F901E60FF71F14A212A2411551058D
:1018F000B1F0660F771F260F371FF901578F468FFC
:10190000943068F4880FFFE29F9F800D1124875A5E
:10191000682F70E042E0CE0101960E943F0C0F90CC
:101920000F90DF91CF910895CF93DF9300D0CDB783
:10193000DEB777FD39C0813091F040F0823021F17F
:101940000F900F90DF91CF91089560E06093BF05F5
:1019500084E090E00E94620BF3CF70E060E0962F8D
:10196000872F6E31710510F49EE180E09093900511
:10197000809391057A83698342E065E070E0CE014F
:1019800001960E943F0CDCCF672B99F081E0809399
:10199000890510928405809190059091910590930E
:1019A000D5058093D405CCCF8130B9F270F2823066
:1019B00039F61092D5051092D405C2CF803881F542
:1019C00086E596E19093F9048093F8048091EA0407
:1019D000863021F1E091B705F091B80592819F34EE
:1019E00009F481C0E091B905F091BA0592819F3464
:1019F00009F46AC0E091BB05F091BC0592819F3467
:101A000009F462C086E00895853041F4E091BB0599
:101A1000F091BC0582818F3409F052C081E00895B5
:101A200090918905813179F480E0943009F084E067
:101A3000809389051092D5051092D40510928405E3
:101A40000E94360CEBCF933031F58430F1F08830C2
:101A5000F1F02FEF813011F780918405022E000CF8
:101A6000330B820F932F911D23E020938905109251
:101A7000D5051092D40597FD0CC08536910514F05C
:101A800084E690E080938405C9CF25E0E5CF2BEF75
:101A9000E3CF80E0F7CF813009F6943009F4BECF70
:101AA00061E070E08091D4059091D505892B11F00B
:101AB00070E060E082E00E94940C0E94CC09AECFFE
:101AC00083E0089584E008958330E1F3843009F0E1
:101AD0009BCFE091B905F091BA0582818F3409F46A
:101AE0009DCF85E00895833009F498CFEFCFCF9351
:101AF000DF9300D0CDB7DEB78430C8F4E82FF0E034
:101B0000EE0FFF1FEC57FA4F01A8F2A9E02D7583E5
:101B100064837A8369836FE2869F802D1124835AC0
:101B2000682F70E042E0CE0101960E943F0C0F90BA
:101B30000F90DF91CF9108950F931F93CF93DF9371
:101B400000D0CDB7DEB78C0118161906F4F49A83CD
:101B5000898342E062E070E0CE0101960E943F0C72
:101B6000109289051092D5051092D4051092840523
:101B700010938B0500938A050E94360C0F900F90EE
:101B8000DF91CF911F910F91089583E08093890594
:101B90001092D5051092D4051195019511090536BD
:101BA000110514F004E610E000938405E5CF9B01D5
:101BB00051E0415008F40895F999FECF32BD21BD9E
:101BC0005FBB60B5FC016193CF012F5F3F4FF1CF49
:101BD0006FE2869F602D1124605C70E047E18BE628
:101BE00091E00C94D70D1F93CF93DF93182F809320
:101BF0000802229A2A9A61E08BE00E942C0460E09D
:101C00008CE00E942C0461E08DE00E942C0480E5B1
:101C10008CBD8DB581608DBD60E082E00E942C049A
:101C200090E080E00E94240681E092E80E94240671
:101C300080E098EB0E942406EBEDF4E08491EEEE58
:101C4000F5E0D491EAEDF5E0C491C11105C080E062
:101C5000DF91CF911F91089581110E94D503EC2F40
:101C6000F0E0EE0FFF1FE153FB4FA591B491EC9113
:101C7000ED2369F320E1129FC0011124876C906865
:101C80000E9424068CE796EA123031F083ED97EA41
:101C9000133011F080E496EA0E94240683E196EC6A
:101CA0000E94240682EA94E90E9424068CEA92ECBF
:101CB0000E94240683E89AEC0E94240684ED9EECA0
:101CC0000E94240687EB94EC0E94240680E398E9A6
:101CD0000E94240686E79CEC0E94240680E090EE99
:101CE0000E94240680E098EC0E94240680E090EC9C
:101CF0000E94240683E0809307028DE396E0909390
:101D0000030180930201809169008C7F80936900B8
:101D1000E89A1092080281E09BCFE5EBF5E080E0C5
:101D2000A191B19111969C91923009F48F5F95E049
:101D3000ED3BF907A9F7882351F0809149058111FE
:101D400006C083E00E94F30D81E080934905089569
:101D5000843011F0883071F481E090E02091050228
:101D600030910602232B11F090E080E09093060260
:101D70008093050261E080E00E94230780910502C4
:101D800090910602892B29F48BEB94E060E00C948F
:101D90002A098FEB94E0FACFCF93C82F8038B9F49B
:101DA00061E08BE393E00E942A0981E090E02091BA
:101DB0008905233011F090E080E090930602809333
:101DC00005028C2F0E94A80E81E0CF9108958034E7
:101DD000C1F7809105029091060231E0009709F465
:101DE00030E021E040918905433009F020E03217CE
:101DF00041F3892B39F480918A0590918B050E94DB
:101E00009C0DDFCF90E080E0FACFFC019FB7F89403
:101E10006EBD0DB407FEFDCFA485B5858C912385DD
:101E2000822B8C93A485B5852C9183858095822304
:101E30008C939FBF0895FC0164810C94050F811160
:101E400003C089E00C94FE032FEF280F2230A0F48A
:101E500081E090E001C0880F2A95EAF720917A0589
:101E6000662339F0822B80937A0586E795E00C94FF
:101E70001B0F80958223F7CF08950F931F93CF9365
:101E80008C01C62F68600E94050F6C2F677FC80108
:101E9000CF911F910F910C94050F607F0E943D0F11
:101EA0008BE990E00197F1F708950F931F93CF937B
:101EB000DF938C01D62F411144E0F801C481C42B7B
:101EC0006D2F607F6C2BC8010E943D0FF0E1DF9FFA
:101ED000B00111246C2BC8010E943D0F8BE990E0EA
:101EE0000197F1F7DF91CF911F910F910895FB01B9
:101EF00001900020E9F73197AF01461B570BDC0139
:101F0000ED91FC910280F381E02D09948F929F92D4
:101F1000AF92BF92EF92FF920F931F93CF93DF93F5
:101F2000CDB7DEB7A1970FB6F894DEBF0FBECDBF19
:101F30007C01FA01CB0119A2223008F42AE08E01BB
:101F40000F5D1F4F822E912CB12CA12CBF01A5013A
:101F500094010E944132F901CA016A300CF5605DBA
:101F6000D8016E938D01232B242B252B79F790E03C
:101F700080E0109721F0BD01C7010E94770FA19664
:101F80000FB6F894DEBF0FBECDBFDF91CF911F918A
:101F90000F91FF90EF90BF90AF909F908F9008951A
:101FA000695CDECFAB0170E060E02AE00C94860F44
:101FB000462F50E070E060E02AE00C94860FCF934B
:101FC000DF9383EC94E00E94460B609150058AED0C
:101FD00094E00E94D80FC9E4D5E08A858F3FA9F02C
:101FE0000E945F0B6A858AED94E00E94D80F0E94E0
:101FF0005F0B6F858AED94E00E94D80F0E945F0B03
:1020000068898AED94E00E94D80F299685E0CD3644
:10201000D80719F7DF91CF910C94030BCF939091D0
:1020200022059923D9F18230B9F1803821F4109238
:10203000210510922005C82F85EE93E00E94460BE3
:1020400060912005709121058AED94E00E94D20FE5
:102050000E945F0B60E08AED94E00E94D80F0E941E
:102060005F0B6C2F8AED94E00E94D80F0E94030B47
:10207000C03429F481E080932205CF91089582E055
:10208000809322050E94BA0460932305709324056F
:10209000809325059093260581E0EFCF86E1EDCF73
:1020A000CF93DF938AE791E00E94460BC4E8D5E026
:1020B00069A18AED94E00E94D80F0E945F0B6F8D9A
:1020C0008AED94E00E94D80F0E945F0B6CA18AED0C
:1020D00094E00E94D80F0E945F0B6BA18AED94E000
:1020E0000E94D80F0E945F0B6EA18AED94E00E94BF
:1020F000D80F0E945F0B68A18AED94E00E94D80F70
:102100000E945F0B6AA18AED94E00E94D80F0E94A2
:102110005F0B6DA18AED94E00E94D80FDF91CF9103
:102120000C94030BCF93DF938FE691E00E94460B54
:10213000609180058AED94E00E94D80F0E945F0BA9
:102140006091FE048AED94E00E94D80FC5E3D5E0CB
:102150000E945F0B68818AED94E00E94D80F23965D
:1021600085E0C134D807A1F7DF91CF910C94030B20
:10217000CF93DF9389E691E00E94460BC4E8D5E057
:102180006BAD8AED94E00E94D80F0E945F0B6C85C6
:102190007D858AED94E00E94D20FDF91CF910C945F
:1021A000030B0F931F93CF93DF938EE291E00E9476
:1021B000460B05EB15E0C1E0D0E00E945F0BD801B3
:1021C000ED91FD918D018181823041F4FE01EC574A
:1021D000FE4F60818AED94E00E94D80F2196C530B1
:1021E000D10559F7DF91CF911F910F910C94030BFB
:1021F000CF92DF92EF92FF92CF93DF936C01990F12
:10220000EE08FF08F7FE1BC06DE28AED94E00E9425
:102210000B05EC0144275527BA014C195D096E09DD
:102220007F092AE08AED94E00E94860F8C0F9D1FA3
:10223000DF91CF91FF90EF90DF90CF9008952AE04B
:10224000B701A6018AED94E0DF91CF91FF90EF9066
:10225000DF90CF900C94860F0F931F93CF93DF9353
:1022600085E791E00E94460B05EB15E0F801C1916E
:10227000D1918F010E945F0B8E8D9F8D0E94F8106F
:102280008AA1882319F08CE40E94410B0E945F0B05
:1022900088A199A10E94F8108BA1882319F088E4E5
:1022A0000E94410BF5E00D3B1F0701F7DF91CF9135
:1022B0001F910F910C94030B803841F486E596E151
:1022C0009093F9048093F80481E008958F70E1F30E
:1022D00070E060E08091B3050E945B0C0E942C11BD
:1022E00082E00895CF93DF9386E491E00E94460B4D
:1022F000C5EBD5E00E945F0BE991F991848195814E
:102300000E94F81085E0CD3BD807A1F7DF91CF916F
:102310000C94030B2F923F924F925F926F927F9299
:102320008F929F92AF92BF92CF92DF92EF92FF92E5
:102330001F93CF93DF93EC016A017B01722EAB01F7
:102340009601CB01B6010E94D33168E571E081119D
:1023500026C046015701E894B7F82FEF3FEF4FE74B
:102360005FE7C501B4010E94D33181110CC02FEF8A
:102370003FEF4FE75FE7C501B4010E94F12E6CE526
:1023800071E0181664F02FEF3FEF4FE75FE4C701ED
:10239000B6010E947E311816B4F460E671E0CE01F9
:1023A000DF91CF911F91FF90EF90DF90CF90BF9082
:1023B000AF909F908F907F906F905F904F903F90E5
:1023C0002F900C94770F2FEF3FEF4FE75FECC70193
:1023D000B6010E94F12E87FDE0CF20E030E0A90198
:1023E000C701B6010E94F12E312C212C87FF09C0B4
:1023F0006DE2CE010E940B051C01F7FAF094F7F88C
:10240000F09410E060E070E080E09FE3711641F02E
:1024100020E030E040E251E40E94D6301F5FF6CF6A
:10242000A70196010E946A302B013C010E944F31A6
:102430004B015C012AE0BC01A401CE010E94860F81
:102440007C01E20CF31C1123A1F1C501B4010E942F
:10245000F62E9B01AC01C301B2010E9469304B0111
:102460005C016EE2CE010E940B05E80EF91E1150D0
:1024700000F120E030E040E251E4C501B4010E94E7
:10248000572F2B013C010E944F314B01CE010E947E
:10249000D20FE80EF91EB40190E080E00E94F62E03
:1024A0009B01AC01C301B2010E9469304B015C0188
:1024B000DECFC701DF91CF911F91FF90EF90DF90AA
:1024C000CF90BF90AF909F908F907F906F905F90D4
:1024D0004F903F902F900895CF93DF938EE391E03C
:1024E0000E94460BC4ECD5E04991599169917991CC
:1024F00028E08AED94E00E948A110E945F0B85E03B
:10250000C03DD80789F76091A2058AED94E00E944A
:102510000B05DF91CF910C94030B4F925F926F925A
:102520007F929F92AF92BF92CF92DF92EF92FF92F3
:102530000F931F93CF93DF93F82E83E391E00E94D4
:10254000460B6F2D8AED94E00E94D80F0E945F0B1E
:10255000EF2DF0E0EE0FFF1FEC57FA4FC1A9D2A903
:102560008E010A5F1F4F5E0186E1A80EB11CF801C3
:1025700041905190619071908F0120E030E0A9016D
:10258000C301B2010E94F12E7301620187FF04C0F2
:10259000F7FAF094F7F8F094912C20E030E040E85E
:1025A0005FE3C701B6010E94F12E87FF15C020E04E
:1025B00030E0A901C701B6010E94F12E882361F025
:1025C0009A9420E030E040E251E4C701B6010E9455
:1025D000572F6B017C01E1CF20E030E040E251E475
:1025E000C701B6010E947E3187FD0CC0939420E0A4
:1025F00030E040E251E4C701B6010E94D6306B01E1
:102600007C01EACF20E030E0A901C301B2010E94C1
:10261000F12E87FF04C0F7FAF094F7F8F09427E062
:10262000B701A6018AED94E00E948A1185E60E9416
:10263000410B892D990C990B0E94F8100E945F0B99
:102640000A151B0509F093CF69818AED94E00E9479
:10265000D80FDF91CF911F910F91FF90EF90DF90F6
:10266000CF90BF90AF909F907F906F905F904F9072
:102670000C94030BFC0122812F3459F446895789AD
:10268000608D718D21E08AED94E00E948A110C9496
:102690005F0B85E50E94410BFACFCF9389E391E070
:1026A0000E94460BC0E08C2F0E94E80D0E945F0B39
:1026B0006BE671E08AED94E00E94770FCF5FC43043
:1026C00091F7CF910C94030BEF92FF921F93CF934E
:1026D000DF93EC017B0110E088818823A1F08C322C
:1026E00019F41F5F2196F8CFCE010E94952ABC01F4
:1026F000812FF7010995FE01EF018191882361F394
:102700008C32D1F7E9CFDF91CF911F91FF90EF90FD
:102710000895EF92FF920F931F93CF93DF9362E0A0
:1027200086E795E00E941B078BE39FE10197F1F795
:10273000E091FD04E43008F099C0F0E0EE0FFF1FD7
:10274000EC57FA4FC1A9D2A98881E82FF0E0E75FE2
:10275000FD4F13A16EE00E94770AE881F0E0E75F89
:10276000FD4F21A5211157C023E41F921F939F9372
:102770008F931F922F938091FD041F928F938FEC64
:1027800093E09F938F931F9287E18F938BE691E065
:102790009F938F930E94D22A6BE671E086E795E0C3
:1027A0000E94770F61E080E00E942307E981F0E05A
:1027B000EE0FFF1FE953FC4F8591949160E00E945A
:1027C0002A0960E286E795E00E94FD068DB79EB774
:1027D0000E960FB6F8949EBF0FBE8DBF8A818F34C0
:1027E00009F03EC04E895F89688D798D109233055E
:1027F000C6E0C093340522E087E295E00E948A118A
:1028000080913305C81BC15040F060E286E795E037
:102810000E94FD06F8CF22E4A8CFE0E080913305C6
:10282000E81760F4C1E0CE0FF0E0E95DFA4F648193
:1028300086E795E00E94FD06EC2FF0CF64E671E09C
:1028400086E795E00E94770F6091A20586E795E004
:10285000DF91CF911F910F91FF90EF900C94FD06A7
:1028600060E08FEB93E00E942A09EECF68E081E000
:102870000E94770AEC0180912D021F928F932C2FDA
:1028800030E0AAE9BBE00E945A302AEE35E140E090
:1028900050E00E9441323F932F93DD27DF93CF9387
:1028A0008AEA93E09F938F931F9217E11F93CBE6E1
:1028B000D1E0DF93CF930E94D22ABE0186E795E054
:1028C0000E94770F61E080E00E942307F0903802B9
:1028D000E09039020E94B40A082F68E080E00E946C
:1028E000770AEF92FF921F920F939F938F9385E940
:1028F00093E09F938F931F921F93DF93CF930E9438
:10290000D22A8DB79EB748960FB6F8949EBF0FBED9
:102910008DBFBE0186E795E0DF91CF911F910F91AA
:10292000FF90EF900C94770F0F931F93CF93DF934B
:10293000CDB7DEB761970FB6F894DEBF0FBECDBF3F
:102940009091EF049B3008F459C0660F660FE09138
:102950000502F0910602843009F055C06E0F7F2FFA
:10296000711D70930602609305028091050290919B
:1029700006028417950724F450930602409305023B
:1029800080910502909106022817390724F43093AC
:1029900006022093050261E080E00E9423078091F7
:1029A000A205282F082E000C330B3F938F938091A4
:1029B00006028F93809105028F931F930F931F92AE
:1029C00081E18F938E010F5F1F4F1F930F930E9422
:1029D000D22AB80186E795E00E94770F0FB6F894E7
:1029E000DEBF0FBECDBF61960FB6F894DEBF0FBE3F
:1029F000CDBFDF91CF911F910F910895963008F4CC
:102A0000A6CF660FA4CF883009F0AFCFE61BF1093F
:102A1000F0930602E0930502A8CF0F931F93CF9384
:102A2000C82F803811F561E086E893E00E942A09FA
:102A30008091800590E0909306028093050200E863
:102A400013E024E630E050E040E06AE08C2F0E9482
:102A5000941440E06091050286E795E00E946C07BF
:102A600081E0CF911F910F910895803441F700913B
:102A70000502109106028091800580171106F9F277
:102A800041E0602F86E795E00E946C07602F88E1A7
:102A900090E00E94620B0E949210D1CF0F931F937F
:102AA000CF93C82F8038D9F461E08FE693E00E947D
:102AB0002A098091A30590E0909306028093050275
:102AC00003E613E024E630E050E040E065E08C2FC0
:102AD0000E94941481E0CF911F910F91089580344A
:102AE00079F760910502709106028091A30586171F
:102AF000170631F3653608F064E66093A3058FE1AD
:102B000090E00E94620B0E945010DACF0F931F9347
:102B1000CF93C82F8038E1F461E08CE293E00E940B
:102B20002A098091900590919105909306028093D7
:102B3000050200E213E028EE33E050E040E06AE0F6
:102B40008C2F0E94941481E0CF911F910F910895D2
:102B5000803479F7609105027091060281E00E944D
:102B6000940CE7CF0F931F93CF93C82F8038D9F4DD
:102B700061E080E193E00E942A098091BF0590E026
:102B8000909306028093050200E013E024E630E013
:102B900050E040E061E08C2F0E94941481E0CF91DE
:102BA0001F910F910895803479F76091050270911B
:102BB000060280E00E94940CE7CF0F931F93CF93FF
:102BC000DF93D82FC091EA04CE50803871F5C4301D
:102BD00018F48C2F0E94E80D86E795E00E94830789
:102BE0006BE671E086E795E00E94770FEC2FF0E04E
:102BF000EE0FFF1FEC57FA4F01A8F2A9E02D8481D8
:102C00009581909306028093050202EF12E028EC72
:102C100030E048E35FEF61E08D2F0E94941481E083
:102C2000DF91CF911F910F910895803471F76091DA
:102C30000502709106028C2F0E94770D0E9472117E
:102C4000E4CF0F931F93CF93C82F8038F9F482E01D
:102C50000E948A0961E081EE92E00E942A09809137
:102C60008A0590918B0590930602809305020AEDE8
:102C700012E028EE33E050E040E065E08C2F0E9447
:102C8000941481E0CF911F910F910895803479F7CA
:102C9000809105029091060220918A0530918B0562
:102CA0008217930721F30E949C0DE1CF2F923F9250
:102CB0004F925F926F927F928F929F92AF92BF924C
:102CC000CF92DF92EF92FF920F931F93CF93DF93F8
:102CD000CDB7DEB7A0970FB6F894DEBF0FBECDBF5D
:102CE0001091EA0460E080E00E942307173009F0A9
:102CF0004CC01091B30560E089EC92E010FF02C077
:102D000088EB92E00E942A091695012FDE011196A8
:102D10004D01FE0172966F01AA24AA941E01FDE1E5
:102D20002F0E311C9EE5492E55245394612C712C95
:102D300081E0811B88A3011708F4A5C0143088F432
:102D4000812F90E09C01220F331F3F8F2E8FF901BE
:102D5000EC57FA4F01A8F2A9E02D82818F3409F4D3
:102D60003FC141E150E060E270E0C4010E9469327D
:102D7000198A68A1610F80E00E942307B40186E7E9
:102D800095E00E94770F1F5FD6CFE091FE04E430FC
:102D900008F098C0F0E0EE0FFF1FEC57FA4FE1A8E3
:102DA000F2A8D70112968C918F3409F08EC081E081
:102DB0000E948A0920E030E040E251E4F701668990
:102DC0007789808D918D0E94572F0E9448317B0119
:102DD00000E077FF05C0EE24FF24E61AF70A01E0C1
:102DE00010E12AE0C22ED12C36E0B32EE114F1041A
:102DF00011F419301CF1C701B6010E941932962E48
:102E0000A72EB89E9001B99E300D1124C901865D90
:102E10009D4F7C01135060E0812F0E94230763E0E7
:102E2000C7010E94080761E0812F0E94230763E029
:102E3000C70103960E940807E92CFA2C115060E0A4
:102E4000812F0E94230760E286E795E00E94FD063D
:102E500061E0812F0E9423071C3031F46EE286E787
:102E600095E00E94FD06C2CFE114F10429F5193066
:102E70001CF5002309F161E086E795E00E94FD065C
:102E800000E01111B3CFA0960FB6F894DEBF0FBECD
:102E9000CDBFDF91CF911F910F91FF90EF90DF9009
:102EA000CF90BF90AF909F908F907F906F905F90EA
:102EB0004F903F902F90089560E286E795E00E9442
:102EC000FD06DFCF82E00E948A09E091BD05F09106
:102ED000BE05028160E070E00F3431F466897789C5
:102EE000808D918D0E94483190918905DE01119667
:102EF0007D019330A1F10F34A9F041E150E067EA80
:102F000072E0CD010E94B32A41E150E0B70186E7AB
:102F100095E00E9412058091FE048F3F09F05DC08C
:102F20001250F3CE9430D9F48091A205282F082EA8
:102F3000000C330B3F938F937F936F9385E992E05F
:102F40009F938F931F9281E18F93BF93AF930E94C2
:102F5000D22A0FB6F894DEBF0FBECDBFD5CF2091D9
:102F6000D4053091D5058091A205482F082E000C7C
:102F7000550B2115310591F03F932F935F938F935C
:102F80007F936F9383E892E09F938F931F9281E1E9
:102F90008F93FF92EF920E94D22ADBCF9330D1F42D
:102FA00021E090E01F922F93209184051F922F9390
:102FB0001F929F935F938F937F936F938EE692E020
:102FC0009F938F931F9281E18F93FF92EF920E94C4
:102FD000D22ABFCF2DE59BE5E5CF03E011E096CEE9
:102FE000812F0E94E80DEBE6F1E001900020E9F767
:102FF000CF018C5691407C01B82E9BE09E1508F0C5
:1030000074C080910001811761F0109300010E944B
:10301000BA0460936701709368018093690190938B
:103020006A01E394E3940E94BA042091670130910D
:1030300068014091690150916A01621B730B840B16
:10304000950B6C3DA5E07A078105910508F449C010
:103050006C5D754081099109A30192010E94413282
:10306000CA01B9012E2D30E050E040E00E9441320B
:10307000F601262F30E02C193D09F12CC9018E0FE5
:103080009F1FB7010E942D328B1568F585599E4F01
:10309000DC018C9181932E163F0681F71D8EEE8DFB
:1030A000FF8DEC57FA4F01A8F2A9E02D66897789C8
:1030B000808D918D0E9448317F936F93DF92CF92E4
:1030C000E6E6F2E0FF93EF931F9231E13F939F9288
:1030D0008F920E94D22A0FB6F894DEBF0FBECDBFEA
:1030E00048CE60E0C5CF80E2D5CFD601EBE6F1E077
:1030F00080E090E28B1508F490819D938F5F31966C
:103100008B30B9F7A0920001C9CFCF92DF92EF9236
:10311000FF921F93CF93DF93CDB7DEB7AF970FB674
:10312000F894DEBF0FBECDBF182F4BE270E060E019
:10313000CE0101960E94D70D111105C089819A8197
:103140008F30904F79F04BE250E060E871E0CE01B3
:1031500001960E94B32A4BE270E060E0CE01019636
:103160000E943F0C8B819C811092D5051092D40552
:103170001092840590938B0580938A058D818093AE
:10318000BF058E819F818E31910510F48EE190E014
:10319000909391058093900580E1FE013896A0EC14
:1031A000B5E001900D928A95E1F7888D80938905AD
:1031B00041E0698D86E795E00E946C078A8D9B8DC2
:1031C000AC8DBD8D8093850190938601A09387017E
:1031D000B09388018E8D833409F086E40E946503E4
:1031E0008F8D853608F084E68093A50588A1853605
:1031F00008F084E68093A3058AA5843608F080E071
:103200008093A6058BA1853608F084E68093A405FB
:1032100089A10E944C038AA18093FE048091EA0454
:103220008350833050F486E795E00E9483078091B5
:10323000F8049091F9040E94A70788A58093A80537
:103240008AE08093B20589A58093A7058BA5853672
:1032500008F084E68093A9056E0184E2C80ED11CB3
:1032600085E3E82E85E0F82E10E0F60181916F01EC
:10327000F70180838281813039F4E0914705F09134
:10328000480560E0812F09951F5FF3E0EF0EF11C08
:10329000143059F7AF960FB6F894DEBF0FBECDBF0E
:1032A000DF91CF911F91FF90EF90DF90CF90089525
:1032B000CF92DF92EF92FF920F931F93CF93DF9302
:1032C000CDB7DEB7E1970FB6F894DEBF0FBECDBF26
:1032D000E82E42E06EE370E0CE0101960E94D70D29
:1032E00089819A818F30904F69F08FE090EF99AB90
:1032F00088AB42E06EE370E0CE01C0960E943F0CC6
:10330000EE24E39485EBC82E85E0D82EF12C00E462
:1033100010E0EE2009F45EC04FE250E06BEA71E08D
:10332000CE0101960E94B32A80E38F0D8F834FE276
:10333000B801CE0101960E943F0CF6018191919156
:103340006F01288DFC0121832E8D3F8D35832483D1
:10335000DC01169620E1FE01B09601900D922A95AF
:10336000E1F72A8D3B8DFC0114A212A22115310533
:1033700011F0378F268F2C8D3D8DFC0115A213A2E5
:103380002115310511F031A320A3698D662361F069
:10339000062E000C770B8F2D0E94770D60E088E1E0
:1033A000800F90E00E94620B015D1F4FF3940C3F71
:1033B000110509F0AECFE1960FB6F894DEBF0FBE4F
:1033C000CDBFDF91CF911F910F91FF90EF90DF90D4
:1033D000CF9008954FE2B801CE0101960E94D70D1B
:1033E000ACCFCF93C82F803879F461E085E593E0C6
:1033F0000E942A0910920602109205028C2F0E9448
:10340000A80E81E0CF9108958034C1F78091050224
:1034100090910602892B91F381E00E94851881E04A
:103420000E9458198BE493E00E94460B0E94030B04
:10343000E5CF8F929F92AF92BF92CF92DF92EF92A1
:10344000FF920F931F93CF93DF93EC018B01F090CA
:10345000A20521E4F2120AC090E080E00E94F62E5C
:103460006E8B7F8B888F998F8FE4DFC0898183304B
:1034700009F0F1C0CA88DB88EC88FD8820E030E0E4
:1034800048EC52E4C701B6010E94F12E87FF0AC042
:10349000A701960160E070E48EE495E40E94D630C6
:1034A0006B017C01E881F0E0E75FFD4F81A5882397
:1034B00009F4C9C081E000389EE3190708F080E0F4
:1034C00081A783A120E4829FC0011124800F911F56
:1034D000813E9F4308F0A8C0609138027091390284
:1034E00090E080E00E94F62E9B01AC0160E070EC61
:1034F0008FE794E40E94D6309B01AC01C701B6016E
:103500000E94D6306B017C01B80190E080E00E94FF
:10351000F62E20E030EC4FE756E40E94D630A701AB
:1035200096010E94572F6B017C0120E030E0A90139
:103530000E94F12E18160CF066C020E030E04AEA36
:1035400053E4C701B6010E947E3187FF5CC0C7010A
:10355000B6010E944831CB0164E170E00E942D3237
:10356000262F062E000C330BF901E35EFE4F14915B
:10357000012F019560312CF4F901E25EFE4F0491B8
:10358000011B24E16202B0011124072E000C880BFC
:10359000990B0E94F82E9B01AC01C701B6010E9455
:1035A000693020E030E040EA51E40E94D6304B011F
:1035B0005C01602F000F770B880B990B0E94F82E8F
:1035C0009B01AC01C501B4010E94572F4B015C0166
:1035D000612F110F770B880B990B0E94F82E9B011E
:1035E000AC01C501B4010E946A3020E030E048EC33
:1035F00052E40E94D6309B01AC01C701B6010E9483
:103600006A306B017C01B701A601CE01DF91CF9139
:103610001F910F91FF90EF90DF90CF90BF90AF90F0
:103620009F908F900C941C0A85E58A83DF91CF913F
:103630001F910F91FF90EF90DF90CF90BF90AF90D0
:103640009F908F90089581E0003C92E1190708F067
:1036500080E081A759CFCB010197803E9F4320F79F
:1036600090E080E00E94F62E9B01AC0160E070ECDF
:103670008FE796E40E94D63020E030E040E85FE338
:103680000E9469309B01AC016A897B898C899D8984
:103690000E94D63022E5F21208C02091BD0530917B
:1036A000BE052C173D0709F0DBCE0E948B316B0164
:1036B0007C012E853F85488959890E94572FA70193
:1036C00096010E94572F2A853B854C855D850E9477
:1036D0006A30A70196010E94572F2E813F814885AD
:1036E00059850E946A309B01AC0160E070E080E87F
:1036F0009FE30E94D63023E333E948E853E40E9475
:103700006930AB01BC0181CFBF92CF92DF92EF92C3
:10371000FF920F931F93CF93DF937C01B62E95EB0F
:10372000C92E95E0D92EC1E0D0E0F60101911191AA
:103730006F01F8018181823031F5FE01EC57FE4FB7
:1037400080818F3721F0F701928189131CC0F4E04A
:1037500070E060E0BF1689F1F701608171818781B7
:1037600082FF27C0072E000C880B990B0E94F82EB1
:1037700020E030E040E251E40E94D630AB01BC01D1
:10378000C8010E941C0A2196C530D10571F68B2D07
:103790008570B9F080914905882399F0DF91CF9128
:1037A0001F910F91FF90EF90DF90CF90BF900C94FE
:1037B000DF0F660F771F660F771FC8010E94191A67
:1037C000E2CFDF91CF911F910F91FF90EF90DF90AB
:1037D000CF90BF9008951F920F920FB60F921124B1
:1037E0002F933F938F939F93AF93BF938091010249
:1037F00090910202A0910302B09104023091000264
:1038000023E0230F2D3758F50196A11DB11D2093FC
:1038100000028093010290930202A0930302B093EE
:1038200004028091FC019091FD01A091FE01B091F4
:10383000FF010196A11DB11D8093FC019093FD0134
:10384000A093FE01B093FF01BF91AF919F918F9123
:103850003F912F910F900FBE0F901F90189526E863
:10386000230F0296A11DB11DD2CF1F920F920FB64A
:103870000F9211242F933F934F935F936F937F93F6
:103880008F939F93AF93BF93EF93FF93E0910401C6
:10389000F09105010995FF91EF91BF91AF919F9133
:1038A0008F917F916F915F914F913F912F910F90E9
:1038B0000FBE0F901F9018951F920F920FB60F9288
:1038C00011242F933F934F935F936F937F938F9325
:1038D0009F93AF93BF93EF93FF93E0910201F09119
:1038E00003010995FF91EF91BF91AF919F918F9146
:1038F0007F916F915F914F913F912F910F900FBEEC
:103900000F901F9018951F920F920FB60F921124CF
:103910002F933F934F935F936F937F938F939F93D7
:10392000AF93BF93EF93FF938DE394E00E949005D4
:10393000FF91EF91BF91AF919F918F917F916F9187
:103940005F914F913F912F910F900FBE0F901F905D
:1039500018951F920F920FB60F9211242F938F93E9
:103960009F93EF93FF93E0914D04F0914E0480817B
:10397000E0915304F091540482FD1BC0908180912A
:1039800056048F5F8F7320915704821741F0E091A6
:103990005604F0E0E35CFB4F958F80935604FF9153
:1039A000EF919F918F912F910F900FBE0F901F90CD
:1039B00018958081F4CF1F920F920FB60F921124A9
:1039C0002F933F934F935F936F937F938F939F9327
:1039D000AF93BF93EF93FF93809182019091830106
:1039E000892B71F1809188009091890086509F4FBA
:1039F00080342CE9920710F090E080E090938900E9
:103A00008093880080918201909183010197909327
:103A10008301809382018BB190E489278BB9FF9158
:103A2000EF91BF91AF919F918F917F916F915F9136
:103A30004F913F912F910F900FBE0F901F901895AF
:103A40000E948B07ECCF1F920F920FB60F9211249A
:103A50002F933F934F935F936F937F938F939F9396
:103A6000AF93BF93EF93FF9380910F02882309F4E4
:103A700070C0815080930F02823081F580911202D4
:103A800090E0FC01EE0FFF1FEE0FFF1FE75FFD4F01
:103A900040910B0250910C0260910D0270910E0248
:103AA0004387548765877687875F9D4F20911002F3
:103AB00030911102231BFC0123A3FF91EF91BF91D1
:103AC000AF919F918F917F916F915F914F913F91B6
:103AD0002F910F900FBE0F901F9018958130D9F441
:103AE00090913B0280911202891302C090933C0294
:103AF00080917C008F7080931202981303C08FEF27
:103B000080933C0210920B0210920C0210920D0254
:103B100010920E02D2CF8111D0CF109210028FEFEF
:103B2000809311028091120281110EC084E0809373
:103B30000A028091130290E0019666E070E00E9414
:103B40002D3280931302B9CF8091090280930A022B
:103B5000B4CF20917C002F70E0910A02EE23C9F1CE
:103B6000E150E0930A0280917800909179003091C1
:103B70003B02321307C0F0E0EE0FFF1FE35CFD4F86
:103B80009183808340910B0250910C0260910D0251
:103B900070910E02480F591F611D711D40930B0259
:103BA00050930C0260930D0270930E0296958795C8
:103BB00096958795282F30911002381710F480932E
:103BC000100230911102231708F077CF8093110271
:103BD00074CF2730F8F0809178009091790090931D
:103BE00039028093380210921202AE2FB0E0A75F24
:103BF000BD4F99968C91811112C080E490917C0008
:103C0000907C891771F090E390930F02E82BE0937A
:103C10007C0053CF2111E9CFE0911302E6CF80EC75
:103C2000EDCF93E0F1CF1F920F920FB60F921124B8
:103C300028980F900FBE0F901F9018951F920F920B
:103C40000FB60F9211242F933F934F936F937F934F
:103C50008F939F9320918A0030918B004091B10502
:103C6000443620F0809189058430F9F08091AF05C9
:103C70009091B005BC01625E7F4F621B730B6D3388
:103C8000710518F021153105E1F44F5F4093B1053E
:103C9000009759F0289A2091840030918500820F76
:103CA000931F90938B0080938A009F918F917F91B7
:103CB0006F914F913F912F910F900FBE0F901F90DA
:103CC00018952817390718F4C9014E96E1CFC90194
:103CD0004E97DECF1092400410923F0488EE93E09E
:103CE000A0E0B0E08093410490934204A093430489
:103CF000B09344048AE191E090933E0480933D04A4
:103D000085EC90E090934A048093490484EC90E021
:103D100090934C0480934B0480EC90E090934E047D
:103D200080934D0481EC90E09093500480934F0475
:103D300082EC90E0909352048093510486EC90E0E2
:103D40009093540480935304109256041092570495
:103D500010925804109259041092DD041092DC0461
:103D60008CE291E09093DB048093DA0410922A05B0
:103D7000109229058EE391E0909328058093270502
:103D800085E695E09093E3048093E2048DEE94E061
:103D90009093E5048093E40484EB9AE09093E90423
:103DA0008093E8041092FA041092FB041092FC0431
:103DB00088E391E09093E1048093E00495E0909390
:103DC000480685E580934A0624E0209322068093E6
:103DD000240623E02093FC058093FE0522E0209337
:103DE000D6058093D80580E880938C0586E480937F
:103DF000A205109279051092780590937F058AE4C8
:103E000091E0909377058093760561E08BE00E94C6
:103E10002C0461E08DE00E942C0461E08AE00E94A5
:103E20002C0461E08AE00E94FE0381E58CBDE0EF96
:103E3000F5E0E491E0938105ECEDF5E0E491F0E04C
:103E4000EE0FFF1FE253FA4F8591949190938305F3
:103E50008093820561E084E00E942C0460E086E7A4
:103E600095E00E94050F88E080937E0580937B0596
:103E700080917F05882319F061E00E942C048BEF6C
:103E80009FEFFC013197F1F7FC013197F1F70197B2
:103E9000F1F760E386E795E00E944D0F8BE496E42E
:103EA0000197F1F760E386E795E00E944D0F83E507
:103EB00092E00197F1F760E386E795E00E944D0FED
:103EC00060E286E795E00E944D0F60917B0560629D
:103ED00086E795E00E941B0784E080937C056CE0F8
:103EE00086E795E00E941B0786E795E00E9483071E
:103EF00082E080937D0566E086E795E00E941B07DF
:103F000084E89BE190934F0580934E0580E8809371
:103F100050058FEF8093530580935C058093650572
:103F200080936E058FE19FE090934805809347054D
:103F30000895CF93DF93CDB7DEB72C970FB6F894E3
:103F4000DEBF0FBECDBF789484B5826084BD84B5DA
:103F5000816084BD85B5826085BD85B5816085BD84
:103F600080916E00816080936E001092810080913C
:103F700081008260809381008091810081608093C4
:103F80008100809180008160809380008091B100E9
:103F900084608093B1008091B00081608093B00014
:103FA00080917A00846080937A0080917A008260A8
:103FB00080937A0080917A00816080937A0080916A
:103FC0007A00806880937A001092C100219A62E0A2
:103FD00080E00E9483030E94C604E0914D04F091AA
:103FE0004E0482E08083E0914904F0914A041082FB
:103FF000E0914B04F0914C0483E3808310925504CC
:10400000E0915104F091520486E08083E0914F04E6
:10401000F0915004808180618083E0914F04F091A1
:104020005004808188608083E0914F04F0915004B7
:10403000808180688083E0914F04F09150048081FA
:104040008F7D80838AE090E00E94FF050E94540BE0
:1040500080E880BF8FE380937E0080916400806859
:1040600080936400569A88E496E09093B605809316
:10407000B50582E296E09093B8058093B7058CEF82
:1040800095E09093BA058093B90586ED95E09093FD
:10409000BC058093BB0580E00E94851880E00E94EB
:1040A0005819209A80E49CE99093870080938600B9
:1040B000109280008AE18093810084E280936F00F7
:1040C0008EE480937C0080E480937B008FEE80936D
:1040D0007A000E9431038FEF80933B020E948D0E85
:1040E00082E00E948A096BE180EE94E00E94AC07B6
:1040F00088E199E20FB6F894A895809360000FBE0E
:1041000090936000A895E9E8F1E001900020E9F7BC
:10411000EA58F140E9838DE394E00E9470058C0138
:10412000892B09F4BAC28DE394E00E944E058A30CF
:1041300019F08D3009F0A5C22981211108C090E045
:10414000E92FF0E0E757FE4F10829983E4CF80918A
:1041500089018F32A1F76AE270E089E891E00E945C
:104160007032FC01009769F1DC0111969C012D5F12
:104170003F4F80E09D9140ED490F4A3030F04FEBCA
:10418000490F4630A8F449EC490F50E1859FC00122
:104190001124842BA217B30769F793819111CFCF14
:1041A000A9E8B1E0EA17FB0749F02D919227FACF71
:1041B0004FE9490F463018F649EAE6CF8913BFCFD9
:1041C0001082AAE8B1E00D900020E9F7AB58B140A9
:1041D000BB83AA8380912205811103C081E0809373
:1041E000220547E050E06CE874E08AE891E00E9424
:1041F000BC2A892B11F5EA81FB81FF27E757FE4F87
:10420000F081F9838F2F0E9465032981233411F0F7
:10421000263429F469818DE190E00E94620B0E94AE
:104220006C12809191018A330CF089CF81E991E081
:104230000E94952A0E949C0D82CF47E050E064E8DE
:1042400074E08AE891E00E94BC2A892B49F46FEE61
:104250007BE081E991E00E9464130E9492106FCF8D
:1042600047E050E06CE774E08AE891E00E94BC2AE5
:10427000892B49F464E97CE081E991E00E946413B0
:104280000E94B8105CCF47E050E064E774E08AE831
:1042900091E00E94BC2A892B49F467E77DE081E91F
:1042A00091E00E9464130E94721149CF47E050E0F0
:1042B0006CE674E08AE891E00E94BC2A892B09F040
:1042C00051C04A814A3060F083E991E00E94912A0E
:1042D00020919101243609F443C02CF4223649F090
:1042E0000E946C122CCF2936C9F12037C9F721E082
:1042F00001C020E0A22FB0E0BB83AA83FD01EE0F36
:10430000FF1FEE0FFF1FE054FA4F6083718382831B
:104310009383223079F420E030E0A9010E94F12E4D
:10432000811108C010929A0510929B0510929C056D
:1043300010929D056A817B81660F771F660F771F3C
:10434000695F7F4F8A819B81880F991F880F991F12
:1043500044E080549A4F0E943F0CC2CF22E0CACF63
:1043600023E0C8CF46E050E065E674E08AE891E0DB
:104370000E94BC2A892BB1F4BA81B93080F06091D7
:1043800090016053643058F4EFE26E9F602D112469
:10439000605C70E047E182E991E00E943F0C0E947E
:1043A0004D13CDCE46E050E06EE574E08AE891E032
:1043B0000E94BC2A892B09F086C0FA81F83008F4E3
:1043C00082C08091900160ED962E980E23E0291511
:1043D00008F46CC03FE2939E802D11244FE5842E9B
:1043E000880E712C42E951E05B834A83092D10E06D
:1043F000000F111F0B541A4FAA81BB818C91882387
:1044000009F451C0B3E0B71508F4B1C78C3249F4D0
:104410007394EA81FB813196FB83EA83F4E08F0E8B
:10442000EBCFD801AD90BC90B4E07B9E700111241D
:104430006701E6E0CE0ED11CCA0CDB1C8A819B8191
:104440000E94912AEA0CFB1CD70116966D937D936E
:104450008D939C931997682D70E044E0C6010E94EB
:104460003F0CEA81FB81FB83EA838191882321F25F
:104470008C32C9F7C1CF6F15B1F0892D0E947A0B2C
:10448000B2E0FB1210C0EA81FB81EB57FE4F2FE731
:1044900020836FE78A819B8149960E94620B0E946C
:1044A000D1100E948D0E892D0E948D1280E00E94F5
:1044B0008D1281E00E948D1282E00E948D1283E0B5
:1044C0000E948D123CCE47E050E066E574E08AE839
:1044D00091E00E94BC2A892BA1F481E991E00E941D
:1044E000952A882361F08D3308F08CE393E0909354
:1044F000FA04F5E0F093FB048093FC0420CE81E005
:10450000F5CF47E050E06EE474E08AE891E00E9465
:10451000BC2A892B49F46BE57CE081E991E00E949B
:1045200064130E942C110BCE47E050E066E474E067
:104530008AE891E00E94BC2A892B49F469E97BE072
:1045400081E991E00E9464130E945010F8CD47E089
:1045500050E06EE374E08AE891E00E94BC2A892B67
:1045600071F481E991E00E94AF038091EA048831FF
:10457000E1F168E180EE94E00E94AC07E0CD47E015
:1045800050E066E374E08AE891E00E94BC2A892B3F
:1045900039F467E07AE081E991E00E946413CFCDBD
:1045A00047E050E06EE274E08AE891E00E94BC2AA5
:1045B000892BF1F480912205823009F0C0CD81E091
:1045C0008093220581E991E00E94952A909321052C
:1045D00080932005E1E9F1E0CF012191222319F038
:1045E000CF012C32C9F70E94AF030E944F07A7CD1D
:1045F00046E050E067E274E08AE891E00E94BC2A5D
:10460000892BF9F40E94540B0E946C120E945010E6
:104610000E944D1380E00E948D1281E00E948D1255
:1046200082E00E948D1283E00E948D120E9472111E
:104630000E94B8100E9492100E942C110E94D1106A
:104640007ECD44E050E062E274E08AE891E00E94AE
:10465000BC2A892B19F40E94540B71CD45E050E01F
:104660006BE174E08AE891E00E94BC2A892B09F092
:1046700066CDF89488E18093600089E080936000C3
:10468000FFCF99819F5F2981E22FF0E0E757FE4F2E
:104690008083903608F053CD53CDD0904905D1108A
:1046A00085C20E94BA042091850530918605DB0100
:1046B000A21BB30BBB83AA8380918E0590918F05BB
:1046C0000097A1F08A179B0788F48091AA0580FFC4
:1046D00003C00091A30510E0B80183E00E945D04CF
:1046E00010928F0510928E051092AE0580918C0568
:1046F000EDE4F1E08E9F90018F9F300D11244A81EF
:104700005B812417350728F48F5F80938C050E9406
:10471000D30A8A819B81883E934008F48CC581E04E
:1047200080938C050E94BA0460938505709386057A
:1047300080938705909388058FEF8093B30524E8D5
:10474000E22E25E0F22E10E001E0F70101A8F2A927
:10475000E02DFB83EA8381818D7F813049F46EE017
:1047600080810E94770ABC018A819B810E94191A6C
:10477000D701D1960D90BC91A02DBB83AA83129630
:104780008C9112978F3409F0F5C256966D917D91F8
:104790008D919C91599713962C9113972111AFC22B
:1047A000FD01628F738F848F958F038380918905BC
:1047B000843009F4DFC2AA81BB8156966D917D9148
:1047C0008D919C9159970E944831EA81FB81868D99
:1047D000978D181619062CF4861797070CF0ACC2A3
:1047E00004A3EA81FB8180A191A11816190644F463
:1047F0009C0121503109621773070CF0ACC205A36C
:104800008091D4059091D505892B21F0EA81FB8117
:1048100013A212A2EA81FB8182A1882309F4B8C203
:104820001093B305B2E0EB0EF11C1E5F183009F0D7
:104830008CCFE0918905E983E33008F058C1F0910D
:104840008405FB87109284052091BD053091BE053B
:104850003D832C832090D4053090D505D901569600
:104860004D905D906D907C905997E0918A05F09104
:104870008B05FB83EA8312968C918F3409F002C179
:104880002114310409F0FEC0BF01FF0F880B990B02
:104890000E94F82E6E837F8388879987A3019201F7
:1048A0000E9469304B015C01C090C405D090C505E1
:1048B000E090C605F090C70520E030E0A901C701EF
:1048C000B6010E94F12E87FF6FC22DEC3CEC4CEC40
:1048D0005EEB6E817F81888599850E94572FA301A9
:1048E00092010E946A30A70196010E94572F60939F
:1048F0009605709397058093980590939905F98193
:10490000F23009F456C22091A4052A8720E030E055
:10491000A901C501B4010E94F12E87FF03C04B8598
:1049200041110FC020E030E0A901C501B4010E948F
:104930007E3118160CF067C05A858B85851708F0F4
:1049400062C02091C8053091C9054091CA055091B7
:10495000CB05C501B4010E94572F20919A053091D3
:104960009B0540919C0550919D050E946A308B01EA
:104970008C879B87AA856A2F70E090E080E00E9478
:10498000F62E4B015C0120E030E0A901C701B60121
:104990000E94F12E87FF16C02AE939E949E15FEB51
:1049A000C701B6010E94572F2E813F814885598546
:1049B0000E94572F9B01AC01B401C5010E946A30CF
:1049C0004B015C0120E030E0A901B8018C859B859A
:1049D0000E94F12E87FDF0C19401A501B8018C85DC
:1049E0009B850E947E3118161CF48401AC86BB8620
:1049F000C801AC85BB8580939A0590939B05A093D5
:104A00009C05B0939D05A3019201EC81FD81628D0F
:104A1000738D848D958D0E9469302091CC053091E5
:104A2000CD054091CE055091CF050E94572F6B01C7
:104A30007C01C0929E05D0929F05E092A005F09265
:104A4000A10520919A0530919B0540919C055091BC
:104A50009D056091960570919705809198059091BC
:104A600099050E946A30A70196010E946A300E944F
:104A7000483177FDA6C16536710514F064E670E033
:104A800060938405C301B2010E9448312A813B81B1
:104A9000261B370B121613060CF495C18091900556
:104AA00090919105821993094E9708F48CC1F98170
:104AB000F11116C020E030E040E05FE360919A051C
:104AC00070919B0580919C0590919D050E94572FA8
:104AD00060939A0570939B0580939C0590939D0528
:104AE00082E0809389051092D5051092D4058091BB
:104AF00084058983C090D005D090D105E090D2057F
:104B0000F090D305682F70E090E080E00E94F62ED0
:104B1000A70196010E94693021E837EF47E05CE386
:104B20000E94572FA70196010E946A306093D0051A
:104B30007093D1058093D2059093D3058091A605FB
:104B4000998130E09817A8F064E6681B9091890578
:104B5000911171C19091A405A981A81BBB0B9A9FCB
:104B6000A0019B9F500D112470E0CA010E941932D0
:104B7000362F10928F0510928E052091A5053217C1
:104B800008F45CC110928D05232F8091AA0580FF47
:104B900004C08091A305821B282F2093AB0521110F
:104BA00075C11092AE050E94D30A8BC1F12CB3E0FF
:104BB000CB2E89E0982E94E6B92E2AE0A22E7AC454
:104BC0000E94F30D81117AC441E555E05B834A836D
:104BD000EE24EA94EA81FB8182818F3F29F10E94D1
:104BE000BA04AA81BB8113968D909D90AD90BC9024
:104BF0001697681979098A099B0961327F4B8240AF
:104C0000910590F0E0914E05F0914F05309721F01D
:104C100064E08A819B810995EA81FB8182818F3FD3
:104C200019F0E282118210822A813B81275F3F4F77
:104C30003B832A832557354069F6FF2009F431CD9F
:104C400062E089E00E9483032CCDC09207020E949B
:104C5000BA0460934A0570934B0580934C0590937A
:104C60004D059091F60180915005992339F08823E4
:104C700009F41FC48150809350051BC48F3F19F065
:104C80008F5F809350058091EC0154E0859FC001B7
:104C900011248C739091ED01929596959695937051
:104CA000892B40915305841709F48BC330915C051F
:104CB000831709F48AC320916505821709F48AC312
:104CC00090916E05891709F48AC34F3F09F41DC4FA
:104CD0003F3F09F41EC42F3F09F41FC49F3F09F052
:104CE000E8C393E09A83A3E078C3472F50E0542FA2
:104CF000442744275F70462B51874087D2C3AA813F
:104D0000BB815A968D909D90AD90BC905D97A5010A
:104D100094010E9469302AE83BE446E05DE30E948A
:104D2000572FA50194010E946A30EA81FB81628FAE
:104D3000738F848F958F3ACD681779070CF051CD1A
:104D4000AA81BB8194968C919497882309F449CDCC
:104D500092960C9346CD681779070CF451CDAA8131
:104D6000BB8195968C919597882309F449CD9396AC
:104D70000C9346CDAA81BB8194961C9294979296EF
:104D80001C92929795961C92959793961C9242CD61
:104D9000AA81BB8193968C91882309F443CD81E04D
:104DA000810F8093B3053ECDA7019601C501B401E3
:104DB0009CCD34E63A87AACD00E010E01C861B8625
:104DC00017CE60E05DCEC1010197232879F54091AF
:104DD000BF05442309F48BCE5981523009F087CEA8
:104DE00054E6529FC001539F900D11246A817B812C
:104DF0000E942D324617170611F00CF078CE609104
:104E0000D0057091D1058091D2059091D3050E9473
:104E100048316A3571050CF06ACE81E080938905CE
:104E20001092840580919005909191059093D505FD
:104E30008093D4055CCE9091A3058ECE40918D05D4
:104E400088EE93E0489FF001499FF00D1124622FF6
:104E500070E080E197E20E942D32369FC001379FBB
:104E6000900D1124E817F90760F48E1B9F0B9093A7
:104E70008F0580938E054F5F4A3028F440938D054F
:104E800084CE20E0F8CF10928D057FCE3091AE0514
:104E90008091AA0584FFA9C0B7E82B9FC001112407
:104EA00064E670E00E942D32625A6093AE053111C3
:104EB0007ACE6FEF70E083E00E945D0480E880931B
:104EC000AD05809184056091A905861708F496C008
:104ED00084E68093AC058091AA0581FF06C090917D
:104EE000AC0584E6891B8093AC052091A805409110
:104EF000A705421B550B3091AC05349FC001359F6F
:104F0000900D112464E670E00E942D32260F44E1DA
:104F1000249F900111248091B2058F3F19F08F5F7B
:104F20008093B2058091AF059091B005281739079D
:104F3000A9F08C599F4F821B930B893C910520F45B
:104F40008091B2058B3050F0F8941092B1053093F7
:104F5000B0052093AF0578941092B20580913B0282
:104F60008F3F09F456C080913A028F5F80933A02D6
:104F7000853008F44EC0F89490913C0280913B0239
:104F8000981346C08FEF80933B02789410923A02B8
:104F900084E994E00E94460B80913C0294E0C92E83
:104FA0008111C09009020DE312E0D12CF12CE12C0B
:104FB000DC1409F4B5C1D801ED91FD918D01FB839D
:104FC000EA83EE16FF0608F092C18BE20E94410BC5
:104FD0006A817B816E197F096230710508F498C17E
:104FE0008AED94E00E94D20F93C1EFEF2E9FC00193
:104FF000112464E670E00E942D3257CFF4E68F9FB3
:10500000C001112470E00E9419326093AC0563CF97
:1050100078948091F8049091F9040E94A7078091F8
:10502000F7018F5F8093F7018F7129F48091490513
:1050300081110E94DF0F80EA94E00E94460B80916C
:105040008905843009F073C185E50E94410B0E94F7
:105050005F0B8091BD059091BE050E943A1380912F
:10506000B7059091B8050E943A138091B9059091C7
:10507000BA050E943A138091BB059091BC050E942D
:105080003A13609184058AED94E00E94D80F0E9443
:105090005F0B6091D0057091D1058091D205909100
:1050A000D3050E944831CB010E94F8100E945F0B8B
:1050B0006091D4057091D5058AED94E00E94D20FDD
:1050C0000E945F0B6091AB058AED94E00E94D80FBF
:1050D0000E945F0B6091AC058AED94E00E94D80FAE
:1050E0000E945F0B609189058AED94E00E94D80FC1
:1050F0000E94030B8091B4058823D9F18091BD05EE
:105100009091BE059B838A83DC0112968C918F342B
:1051100081F58AE994E00E94460B02E915E0F80166
:1051200041915191619171918F0122E08AED94E05A
:105130000E948A110E945F0BF5E0023A1F0779F77F
:10514000AA81BB815A962D913D914D915C915D97BD
:1051500056966D917D918D919C9159970E946930E1
:10516000AB01BC0122E08AED94E00E948A110E940A
:10517000030BE5EBF5E0FB83EA8311E0AA81BB8139
:10518000ED91FD91BB83AA8362A1812F0E948303CD
:10519000EA81FB8132970190F081E02D63A181E0EB
:1051A000810F0E9483031E5F193041F7B091B30550
:1051B000B98361E0BF3F09F460E08EE00E948303A1
:1051C00080910101E981EF3F09F4BCC08F3F59F4A0
:1051D0001092F8011092F9011092FA011092FB015D
:1051E00084E0809301010E942C1167E080EE94E03E
:1051F0000E94AC078091F70183708130D1F486EA78
:1052000094E00E94460B2CE232E03B832A830E940A
:105210005F0BAA81BB816D91BB83AA838AED94E069
:105220000E94D80FEA81FB81E253F24081F70E948D
:10523000030B0E94CC0980EE94E00E944509309156
:10524000010139833F3F09F440C00E94BA045981EB
:10525000452F50E05B834A83FA01E555FB4FE4910B
:105260002091F8013091F901AB01421B530B1AE078
:10527000E19FF0011124E417F50738F50E94BA0404
:105280006093F8017093F9018093FA019093FB0108
:105290008A819B81019666E070E00E9419328093BA
:1052A000010140E06091800580FD0BC085559B4F5A
:1052B000FC018491819F802D11240E94920740E07F
:1052C00060E086E795E00E946C070E94C60480E0DB
:1052D00090E0892B11F40C9482200E947C05882395
:1052E00011F40C9482200E9400000C9482202A81E8
:1052F0003B812E153F0580F48DE20E94410BB701E2
:105300004A815B81641B750B6130710509F068CEC1
:10531000D394EA80FB804CCE8EE20E94410BF8CF02
:105320000E94030B80913C0280933B0272CE83303B
:1053300011F48DE28ACE80918A0590918B050E94AE
:10534000F81085CE8F3F61F0F981F09301010E9442
:105350008B0740E06091800586E795E00E946C072E
:105360008091EA04873009F045CF62E03FCF8A811F
:105370009B810E94952A682F292D30E03B832A8348
:10538000F901EE0FFF1FEC57FA4F01A8F2A9E02D2B
:10539000F18067FF70C830E8E32EE60E0A811B81BA
:1053A0000B571E4F32E0F31204C0D8018C91E8165F
:1053B00021F062E0892D0E947A0BF801E0826E2DC7
:1053C00069C81A8232E039830EC041E04A8352E054
:1053D000598309C092E09A83A2E0A98304C0B3E094
:1053E000BA83E2E0E983BA81EB2EF12C9E9CF001B6
:1053F0009F9CF00D1124E75BFA4F9285891719F0F5
:105400008287118610860E94BA049E9CF0019F9CA0
:10541000F00D1124E75BFA4F6387748785879687C1
:105420007091ED01272F207275FD22E08091EF0130
:1054300087FD21608F778F3709F02460AA81A99DAD
:10544000C00111248F5A9A4F9E9CF0019F9CF00D31
:105450001124E75BFA4F27872091EB012695208BDB
:105460006091EE01DC0117962C9122FF3ECC6A3A46
:1054700001F17F70462F50E0A4E055954795AA951D
:10548000E1F7A49E9001A59E300D11247B9D200D77
:10549000311D11246F70260F311D20593140318785
:1054A0002087E0914E05F0914F05309711F069810A
:1054B0000995FD2C80910802811182CB8091070211
:1054C000843039F49091EA018091E901981709F448
:1054D000BCCB80910702833009F076CB1092E901B2
:1054E0001092F6019FEF9093EA0194E090930702E7
:1054F000F8948093EB0183EA94E90E94240689EDF5
:1055000092E80E94240678945FCB1A82F3E0F98334
:105510006ACF21E02A8333E056CF42E04A8353E04A
:1055200057CF662777270C94DC2CFC018827992716
:10553000E89421912032E9F3293010F02E30C8F39D
:105540002B3241F02D3239F4689404C00E94CA2AEB
:10555000820F911D219120532A30C0F31EF49095A3
:1055600081959F4F0895FB01DC0102C005900D92CB
:1055700041505040D8F70895FB01DC0141505040A4
:1055800030F08D910590801919F40020B9F7881B2F
:10559000990B08957AE0979F902D879F802D910D0C
:1055A00011240895AEE0B0E0E8EDFAE20C94313059
:1055B0000D891E898F89988D2EE02C831A8309838B
:1055C00097FF02C080E090E801979E838D83AE0133
:1055D000455E5F4F698D7A8DCE0101960E94022B48
:1055E0004D815E8157FD0AC02F81388542175307D0
:1055F0000CF49A01020F131FF80110822E96E4E0BA
:105600000C944D30ABE0B0E0E8E0FBE20C942330CA
:105610007C013B018A01FC0117821682838181FF94
:10562000C8C1CE0101965C01F7019381F30193FD9E
:10563000859193FF81913F01882309F453C18532FD
:1056400039F493FD859193FF81913F01853229F4CF
:10565000B70190E00E94632EE7CF912C212C312CD2
:10566000FFE1F31538F08B3211F190F4803209F13B
:10567000833229F137FC3CC020ED280F2A3050F549
:1056800036FE20C08AE0989E200D1124922E06C07E
:105690008D3291F0803371F7689430F8F30193FD07
:1056A000859193FF81913F018111DACF21C06894E8
:1056B00031F8689432F8F2CF689433F8EFCF6894F9
:1056C00034F8ECCFEAE02E9E200D1124222E6894AF
:1056D00035F8E4CF8E3229F436FC04C1689436F8EC
:1056E000DDCF8C3619F4689437F8D8CF8836B1F20C
:1056F000982F9F7D95549330E0F08336A1F1833746
:10570000C1F1833509F063C02801F2E04F0E511C4E
:10571000F801C080D180692D70E036FC02C06FEFC7
:105720007FEFC6010E944D2E4C01689437F882012C
:105730000AC00C5F1F4FFFE3F98388248394912CE8
:105740006501E89437F833FE2DC0522C8114910482
:1057500071F5552009F468CFB70180E290E00E940E
:10576000632E5A94F6CFF801808189830E5F1F4F14
:10577000E4CF2801F2E04F0E511CF801C080D18027
:10578000692D70E036FC02C06FEF7FEFC6010E940A
:10579000582E4C018201D5CFB70180E290E00E94E3
:1057A000632E2A942814190409F0B0F7CECFF6011D
:1057B00037FC859137FE81916F01B70190E00E941F
:1057C000632E51105A94F1E08F1A9108BFCF84369E
:1057D00019F0893609F077C0F80137FE6BC0608197
:1057E0007181828193810C5F1F4FF32DFF763F2ED5
:1057F00097FF09C090958095709561957F4F8F4F69
:105800009F4F689437F82AE030E0A5010E94932E5C
:10581000C82ECA188C2C432C36FE0CC0E89440F8D5
:10582000C91440F434FE05C032FC03C0F32DFE7EE3
:105830004F2E892C44FE95C0FE01EC0DF11D808198
:10584000803309F087C0242D297E422E842D887054
:10585000582E43FC95C040FE8FC09C2C821418F437
:105860002C0C922C981844FE91C0B70180E390E074
:105870000E94632E42FE09C088E790E041FE02C00C
:1058800088E590E0B7010E94632EC91408F48AC02D
:10589000CA94D12C9FEFC91AD90ACA0CDB1CF60195
:1058A00082916F01B70190E00E94632EAC14BD0499
:1058B000B1F74FCF60817181072E000C880B990BD7
:1058C0000E5F1F4F92CFD32CE894D4F82AE030E03B
:1058D000853739F1232D297FD22E8F3601F148F4F7
:1058E0008835A9F0F701868197812B96E2E10C9427
:1058F0003F30803749F08837A9F7D4FE02C068945A
:10590000D2F820E130E00DC06894D4F8F6CF34FE30
:1059100003C0822F8660D82E20E132E002C028E04A
:1059200030E0F801D7FE0FC06081718182819381E0
:105930000C5F1F4FA5010E94932EC82ECA183D2C44
:10594000E89437F867CF6081718190E080E00E5F66
:105950001F4FF0CF42FC02C0839478CF839483948E
:1059600075CF842D867809F471CFF6CFB70180E228
:1059700090E00E94632E83948214C0F3512C73CF65
:10598000522C5818821408F46ECFF8CF842D8678E4
:1059900009F47BCF8BE241FE80E247FC8DE2B70148
:1059A00090E071CFB70180E390E00E94632E9A945B
:1059B0006CCF8FEF9FEF99CFB0E0A0E0E2EEFCE27A
:1059C0000C9429305C017B016115710519F0DB0134
:1059D0008D939C9385010F5F1F4FF501D0818D2F13
:1059E00090E00E942C2E6C01892BB9F5DD32B9F5BF
:1059F0000F5F1F4FD5011196DC91C1E05801F1E016
:105A0000AF1AB10843E050E06AEC70E0C5010E94B3
:105A1000352E892B69F5680182E0C80ED11C45E05E
:105A200050E065EC70E0C6010E94352E892B21F410
:105A3000680197E0C90ED11CE114F10419F0D701F7
:105A4000CD92DC9260E070E080E89FEFC111FFC072
:105A500060E070E080E89FE7FAC05801BBCFDB321E
:105A600029F485010E5F1F4FF501D181C0E0C6CF3B
:105A700043E050E062EC70E0C5010E94352E892BB6
:105A8000E9F0F80110E000E020E030E0A9015F015A
:105A9000B0ED8B2E8D0E89E08815C8F19C2E689490
:105AA00091F88C2F8870C2FF16C0811102C00F5F61
:105AB0001F4F3196D501DC91C92DE9CFE114F104D6
:105AC00029F00E5F1F4FF7011183008360E070E043
:105AD00080EC9FE7BCC0882311F001501109A5E0BC
