:100000000C94FD020C94131C0C94EC1B0C942B030D
:100010000C942B030C942B030C942B030C942B03A8
:100020000C942B030C942B030C94D51D0C94921C54
:100030000C94CA1D0C942B030C942B030C942B03CF
:100040000C94A21B0C942B030C94601C0C943A1C73
:100050000C942B030C94DA1C0C942B030C942B03A0
:100060000C942B030C942B0308000000BE9224492F
:10007000123EABAAAA2ABECDCCCC4C3E00000080DA
:10008000BEABAAAAAA3E00000000BF000000803F4D
:100090000000000000084178D3BB4387D1133D190D
:1000A0000E3CC3BD4282AD2B3E68EC8276BED98F3A
:1000B000E1A93E4C80EFFFBE01C4FF7F3F0000007E
:1000C00000004E414E494E495459494E46CDCCCC84
:1000D0003D0AD7233C17B7D13877CC2B329595E61C
:1000E000241FB14F0A000020410000C84200401CFC
:1000F0004620BCBE4CCA1B0E5AAEC59D744B636FE6
:1001000075706C65005246576972656C005468657D
:10011000726D69730044697361626C6500C10000AF
:10012000ECD8B29D9CC3EC143D51654F3B14484D37
:10013000524D00484D50432C00484D504E00484D04
:1001400050442C302C00484D504F00554349442C0E
:100150004865617465724D657465722C3230323653
:10016000303630322D686D3200484D4C442C0048FA
:100170004D4C422C00484D414C00484D464E2C0001
:100180000FF0E10006F00000000000000080400ACF
:10019000D7A33C0000A04000327F7F7F7F460064F1
:1001A00010FF640D0A0B0064C8006450726F626532
:1001B00020200000000000000000000000000000FF
:1001C00000000100D8FF38FF0000FB7E403A4239B2
:1001D00062390959CC3300401C4600040E1F040448
:1001E0000400000404041F0E0400070F1F1F1F1F3C
:1001F0001F1F1F1F1F00000000001C1E1F1F1F1FAE
:100200001F1F1F1F1F1F1F1F0F0700000000001FC1
:100210001F1F1F1F1F1F1F1F1E1C1F1F1F0000004F
:100220001F1F1F000000001F1F1F00010203040505
:100230000102202005200606020307070606020722
:100240000705030402202005FF0606070705000630
:10025000060307050101022000200006020307052E
:10026000000602202005257320253364DF00506935
:10027000743A253364DF25632025632533752525EE
:100280002563005069743A253364DF2563204C6987
:1002900064253375005069743A253364DF25632083
:1002A000205B4F66665D002D204E6F2050697420E4
:1002B00050726F6265202D002A2A20414C41524D18
:1002C0002048494748202A2A002A2A20414C4152E6
:1002D0004D204C4F5720202A2A00253364DF256308
:1002E000005365742074656D706572617475726514
:1002F0003A004F666673657420253464DF25630019
:1003000025336425252062656C6F77207365740042
:100310004C6964206F70656E206F6666736574004B
:10032000253364207365636F6E6473004C696420C9
:100330006F70656E2074696D6572004D616E7561D8
:100340006C2066616E206D6F646500484D52432CD1
:100350005553455200526573657420636F6E66692C
:10036000673F007370656564202533642525004D63
:100370006178696D756D206175746F2066616E00BE
:100380002533642525004C434420627269676874F4
:100390006E6573730042746E253033753D2531757B
:1003A0002020204247253033750046616E253033CA
:1003B000753D253033755620253032754E7A002034
:1003C0002020202020200015010D010501FD0050F6
:1003D0002531752041442531632530357520253080
:1003E00032754E7A00484D48492C00323032363052
:1003F0003630322D686D32003E204865617465727A
:100400004D65746572203C0057616974696E672E92
:100410002E2E004F66666C696E65007265626F6FA6
:1004200074007563696400636F6E66696700736565
:10043000743F68693D007365743F74703D00736577
:10044000743F74743D007365743F666E3D00736560
:10045000743F616C3D007365743F70630073657435
:100460003F706E007365743F706964007365743F1C
:10047000706F3D007365743F6C643D007365743F3D
:100480006C623D007365743F73703D00484D4E448F
:100490002C00484D50532C00484D53552C00484DCE
:1004A0004152000A050A050A320000000024002714
:1004B000002A004E6F200059657300484D52462CAB
:1004C0003235352C302C0000000000230026002996
:1004D0000000000008000201000003040700000003
:1004E00000000000001B2F0603280403020A030477
:1004F0000504280504020A04040305280305020A6A
:1005000005040406280306020A0604050A21030A54
:10051000021414210314111914021A1A21031A02C5
:100520001616210316021717210317020E0E2103B8
:100530000E020F0F21030F021010210310021111E0
:1005400021031102121221031202131321031302B9
:100550001515210315020A19110300000003C60C2A
:10056000050104C60C050105C60C050106C60C01F3
:100570000107441100000A09160A0014B40E0A010A
:100580000EC5150A000FC5150A0010C5150A001181
:10059000C5150A00129A150A00136E150A0015A84F
:1005A000190A001736150A0016F5140A001813095F
:1005B000140019E40800011AF60F0A001B5B090178
:1005C00000000000000000000000250028002B00B3
:1005D00004040404040404040202020202020303E9
:1005E00003030303010204081020408001020408F1
:1005F0001020010204081020211E11241FBECFEF7D
:10060000D8E0DEBFCDBF14BEE0E6F0E088E1808335
:10061000108226E0A6E6B1E001C01D92AA36B2071C
:10062000E1F711E0A0E0B1E0EAE8F3E602C00590EE
:100630000D92A636B107D9F712E0CDEFD2E004C093
:100640002197FE010E94B631CC3FD107C9F70E9425
:100650004A1F0C94C3310C9400008091AF05909117
:10066000B0059093B8058093B705EFEAF5E0A19146
:10067000B19111968C911197882329F0B093B80508
:10068000A093B705089585E0E73BF80781F7089543
:100690008093A40590EC85FD03C09FEF86FD90EA52
:1006A000F8949093060293E090930C0278949093C0
:1006B000B00084FF04C081E08093B100089585E01C
:1006C000FBCF863429F064F4813411F0833461F473
:1006D00080939C05E091B705F091B80513820895C9
:1006E0008F3419F08235A1F3089584E08093830557
:1006F0001092CF051092CE0510927E05F5CFFF9295
:100700000F931F93CF93DF93F82E062FCFE2D5E000
:1007100010E06881862F8F778F1113C009838A813B
:10072000823079F0023069F0661F6627661F602705
:10073000861739F06A83E0914105F0914205812FD7
:1007400009951F5F2396143021F7DF91CF911F91F8
:100750000F91FF900895DC0190E080E22D9121112E
:100760000AC0E92FF0E0E750FB4F80E29132C0F47D
:100770009F5F8193FBCF913298F4E92FF0E029300D
:1007800034F42150E352FB4F248F9F5FE7CF2C328C
:10079000C9F7E750FB4F903108F79F5F8193FBCF7C
:1007A0000895833081F028F4813099F08230A9F0E7
:1007B00008958730A9F08830C9F08430B1F4809171
:1007C00080008F7D03C0809180008F7780938000B0
:1007D000089584B58F7784BD089584B58F7DFBCF50
:1007E0008091B0008F778093B00008958091B00021
:1007F0008F7DF9CF1F93CF93DF93282F30E0F9013E
:10080000EF52FB4F8491F901EC51FA4FD491F90169
:10081000E053FA4FC491CC23A9F0162F81110E9406
:10082000D103EC2FF0E0EE0FFF1FEA53FA4FA59132
:10083000B4918FB7F894EC91111108C0D095DE23D4
:10084000DC938FBFDF91CF911F910895DE2BF8CFFE
:10085000CF93DF9390E0FC01EC51FA4F2491805349
:100860009A4FFC0184918823D1F090E0880F991F62
:10087000FC01E755FB4FA591B491FC01EA53FA4FF7
:10088000C591D49161110EC09FB7F8948C91E22F5D
:10089000E0958E238C932881E223E8839FBFDF912C
:1008A000CF9108958FB7F894EC91E22BEC938FBF22
:1008B000F6CF1F93CF93DF93182FEB0161E00E94D7
:1008C0002804209739F460E0812FDF91CF911F91A8
:1008D0000C94FA03CF3FD10511F461E0F5CFE12F7D
:1008E000F0E0EF52FB4FE491E33031F140F4E130BE
:1008F000B1F0E230E1F0C038D1057CF7E4CFE73069
:1009000029F1E83059F1E430B1F78091800080623C
:1009100080938000D0938B00C0938A0004C084B57C
:10092000806884BDC7BDDF91CF911F91089584B5C4
:10093000806284BDC8BDF7CF8091800080688093BD
:100940008000D0938900C0938800EDCF8091B000E3
:1009500080688093B000C093B300E5CF8091B00071
:1009600080628093B000C093B400DDCF2FB7F894BD
:100970006091FE017091FF0180910002909101024F
:100980002FBF08951F93CF93DF930E94B604209149
:100990004005222349F020913B0530913C05621B24
:1009A000730B643F714048F10E94B60460933B05AD
:1009B00070933C0580933D0590933E0581E08093C4
:1009C000400580913F058F5F80933F05CFE2D5E0E2
:1009D00010E080913F0580FF14C08981823049F486
:1009E0008A831982E0914105F09142056A81812F45
:1009F00009951F5F2396143061F7DF91CF911F9106
:100A000008958A818230A9F71A82ECCF0895DC011B
:100A1000ED91FC910190F081E02D0994AF92BF928D
:100A2000CF92DF92EF92FF920F931F93CF93DF93BA
:100A30006C017B018B01040F151FEB015E01AE18E9
:100A4000BF08C017D10759F06991D601ED91FC910B
:100A50000190F081E02DC6010995892B79F7C50138
:100A6000DF91CF911F910F91FF90EF90DF90CF908A
:100A7000BF90AF900895FC01538D448D252F30E039
:100A8000842F90E0821B930B541710F0CF9608959B
:100A900001970895FC01918D828D981761F0A28DC8
:100AA000AE0FBF2FB11D5D968C91928D9F5F9F738E
:100AB000928F90E008958FEF9FEF0895FC01918D44
:100AC000828D981731F0828DE80FF11D858D90E0B1
:100AD00008958FEF9FEF0895FC01918D228D892F4E
:100AE00090E0805C9F4F821B91098F739927089536
:100AF0008AE394E00E946C0521E0892B09F420E050
:100B0000822F089580E090E0892B29F00E947805DB
:100B100081110C9400000895FC01A48DA80FB92F39
:100B2000B11DA35ABF4F2C91848D90E001968F7315
:100B30009927848FA689B7892C93A089B1898C9134
:100B4000837080648C93938D848D981306C0028883
:100B5000F389E02D80818F7D80830895EF92FF924D
:100B60000F931F93CF93DF93EC0181E0888F9B8DD0
:100B70008C8D98131AC0E889F989808185FF15C08A
:100B80009FB7F894EE89FF896083E889F9898081AD
:100B90008370806480839FBF81E090E0DF91CF917C
:100BA0001F910F91FF90EF900895F62E0B8D10E09E
:100BB0000F5F1F4F0F731127E02E8C8D8E110CC00D
:100BC0000FB607FCFACFE889F989808185FFF5CF58
:100BD000CE010E948C05F1CFEB8DEC0FFD2FF11DA6
:100BE000E35AFF4FF0829FB7F8940B8FEA89FB8995
:100BF00080818062CFCF682F8AE394E00C94AE05A9
:100C0000CF93DF93EC01888D8823B9F0AA89BB8943
:100C1000E889F9898C9185FD03C0808186FD0DC02E
:100C20000FB607FCF7CF8C9185FFF2CF808185FF4F
:100C3000EDCFCE010E948C05E9CFDF91CF910895D1
:100C40002CB521602CBD2A989EBD0DB407FEFDCFAA
:100C50002EB530E0322F22278EBD0DB407FEFDCF1A
:100C60009EB52A9A8CB58E7F8CBDA901492BCA01ED
:100C70000895FF920F931F93CF93DF9390E080E04E
:100C80000E942006F92E9093810180910402843005
:100C900009F064C080E090EB0E942006EC01809196
:100CA000E60163E00E946031911114C0E091E80117
:100CB000F0E00F2D017010E0EE0FFF1FE65FFE4F1A
:100CC000E00FF11F80818093E80190E0806A9469D1
:100CD0000E9420068091E601811118C0CE0124E017
:100CE000959587952A95E1F78F70992702969595A6
:100CF00087958093E7018091E701823020F0809111
:100D0000E7018B3018F082E08093E701E091E60183
:100D100081E08E0F8093E601F0E0E751FE4FC08343
:100D20008091F3018C2798E021E387FF15C0880F9D
:100D300082279150D1F78093F3019091E601809141
:100D4000E701981350C089E092E8DF91CF911F919D
:100D50000F91FF900C942006880FEBCF8091040236
:100D600087FF1FC0E091040281E08E0F8093040290
:100D70008091E701E80FF0E0E751FE4F808190910C
:100D8000F301982728E031E397FF09C0990F9327D3
:100D90002150D1F79093F30190E09854D6CF990F5A
:100DA000F7CF8091040291E0980F90930402823073
:100DB00099F024F4882369F08AEAEECF853089F02F
:100DC0008630D1F78091E70181958093040284ED0C
:100DD000E3CF8091F301E0CF89E092E80E94200602
:100DE000EBCF8DE2D9CFDF91CF911F910F91FF9083
:100DF0000895DC01ED91FC910084F185E02D41E046
:100E0000099581E090E008951F93CF93DF93162F0B
:100E1000EC01115040F0FE01649180E795E00E94E2
:100E2000F9062196F6CFDF91CF911F910895DC014D
:100E3000ED91FC910084F185E02D40E009940F9341
:100E40001F93CF93DF9300D000D0CDB7DEB70091D2
:100E500006011091070120910801309109010983D1
:100E60001A832B833C8390917805961710F46FEFCB
:100E7000690FFE01E60FF11D6181680F606880E770
:100E800095E00F900F900F900F90DF91CF911F91F1
:100E90000F910C94170762E080E795E00E94170716
:100EA0008BE39FE10197F1F740E150E069EF74E0D7
:100EB00080E795E00E940E0561E080E00E941F0738
:100EC00040E150E069E075E080E795E00C940E05A4
:100ED000FC012185222391F0653608F064E6442365
:100EE00011F0FC016287FFEF6F9FC001112464E6DF
:100EF00070E00E946C31822F0C945904089561E0D7
:100F00000E9417078BE39FE10197F1F70895EFE641
:100F1000F0E080818D7F80835E980895CF93DF938A
:100F2000C82F0E94870788E0C89FE0011124D09352
:100F30008001C0937F01EFE6F0E0808182608083D2
:100F4000DF91CF910895009711F0FC010994089565
:100F50001F93CF93DF93EC01162F623009F41B85AA
:100F60008A8581138B87133080F18A85181769F180
:100F7000EE81FF81309749F031962591349121150A
:100F8000310519F080E4F90109951A878A819B815E
:100F90009F838E831F86198E188EEE81FF81849128
:100FA000882331F0181721F03596FF83EE83F5CFB3
:100FB000309759F03196259134912115310599F2E8
:100FC00080E8F9010995182FCECF0E94B604688BEE
:100FD000798B8A8B9B8BDF91CF911F9108954F92D4
:100FE0005F926F927F928F929F92AF92BF92CF92B9
:100FF000DF92EF92FF921F93CF93DF93EC010E9459
:10100000B6046B017C018C899D89AE89BF8926015C
:101010003701481A590A6A0A7B0AD301C2018A3F7A
:101020009105A105B10508F488C0E885F985099501
:10103000182F81115EC04E815F8141155105D1F499
:101040008C8581138AC08F858F3F11F08F5F8F87CA
:101050008D859E85009709F48CC0019709F069C0C1
:101060008F85843008F465C0106182E090E09E872F
:101070008D8746C0FA013396249130E0A8EEB3E0A4
:101080000E94AD2F6115710581059105C9F288880F
:101090009988AA88BB8826013701481859086A0828
:1010A0007B0853014201681579058A059B0540F6C6
:1010B00010E24F5F5F4FFA01259134912115310500
:1010C00021F1812FF90109958130F9F0682FCE01C6
:1010D0000E94A807888D998D0E94A307EE81FF8149
:1010E000309759F13496E4911E2339F182E090E073
:1010F0004EC0CC8ADD8AEE8AFF8A803209F0A0CF0A
:101100004E815F8141155105A1F62C813D818A8573
:10111000412F4061F90194919923C1F298133AC08B
:101120003196E491E423E11335C0F90132968491BC
:10113000CDCFC88AD98AEA8AFB8ADF91CF911F91E5
:10114000FF90EF90DF90CF90BF90AF909F908F90E7
:101150007F906F905F904F9008951F8611110CC083
:101160002D853E852130310509F4182F1C871E86F8
:101170001D86112311F3C4CFEE81FF813097B1F3A7
:101180003496E491E12391F31C8781E090E09E87FF
:101190008D87D3CF2D5F3F4FBDCFDC011C96EC91E7
:1011A0001C97E83070F41D968C911D97E81748F451
:1011B00081E08E0F1C968C931C97EA0FFB2FF11D7C
:1011C000648381E090E00895282F8038B9F48091FD
:1011D000E804893111F01092F70481E793E19093CC
:1011E000F6048093F5048091F704843029F4237089
:1011F00019F088EC0E948E0781E008958091F70431
:10120000223049F490E0019665E070E00E94803160
:101210008093F704E8CF213031F7811102C084E0D8
:10122000F7CF8150F5CF803821F40E944B0781E041
:10123000089582E008950F931F93CF93DF938C015D
:10124000662321F080E795E00E947F07E801FE0118
:1012500064912196662329F080E795E00E94F906C3
:10126000F6CFDF91CF911F910F910895CF93DF9328
:10127000EC018FAD823099F40E94B604FE01E05C6F
:10128000FF4F20813181621B730B613283E078074D
:1012900058F01FAE61E083E194E00E941B09CE018B
:1012A000DF91CF910C94EF0765367105C0F361E0D3
:1012B00088E094E0F2CF803899F461E088EF93E021
:1012C0000E941B0961E083E00E941F0760E08BEE33
:1012D00093E00E941B0962E480E795E00E94F90612
:1012E00081E00895DF92EF92FF920F931F93CF93C7
:1012F000DF9390916601981759F122E0D22E911157
:1013000002C098E0D92EC82FF12CE12CD0E0C130DA
:1013100021F00AED11E0D23010F00AEE11E00E0DCE
:101320001F1D6E2D606480E795E00E94170768E03E
:10133000C8010E94040760E880E795E00E94170753
:10134000DF5F88E0E80EF11CDD12E1CFC09366019B
:10135000DF91CF911F910F91FF90EF90DF90089553
:10136000089590E080E0089560E080E00E947F03AF
:1013700061E08091CE059091CF05892B09F460E062
:101380008AE00E947F0361E080917E05811101C0A7
:1013900060E08BE00E947F0361E080917E058436EF
:1013A00008F460E08DE00E947F0361E08091830596
:1013B000823009F060E08CE00E947F0361E0809160
:1013C0008305811160E08FE00E947F0361E08091DE
:1013D0008305813009F060E080E10C947F0388236D
:1013E00019F0813041F0089581E0672B09F480E025
:1013F0008093AE050895609338028FEF8093390291
:1014000084E0809337020895CF92DF92EF92FF92AB
:101410001F93CF93DF93EC016A017B016C817D8187
:10142000072E000C880B990B0E944B2E10919C05E7
:10143000163431F424EE38E34EE05FE30E94AA2E26
:10144000A70196010E94BD2F6B017C0120E030E0D6
:1014500048EC52EC0E94442E181654F08CE48A8317
:10146000DF91CF911F91FF90EF90DF90CF90089583
:1014700020E030E04AEF53E4C701B6010E94D130CA
:1014800087FD02C088E4EBCF1634A1F426E636E6E9
:1014900046EE5FE3C701B6010E94AA2E20E030E0CD
:1014A00040E052E40E94BD2F6E8B7F8B888F998F16
:1014B0008FE4D5CFCE8ADF8AE88EF98EF9CFCF932D
:1014C000DF93282FC62FF89464E0869FF001112443
:1014D000EA5FFD4F63857485858596857894D0E0B5
:1014E000211110C02CE030E02C1B3D0BDC01CB01A6
:1014F00004C0B695A795979587952A95D2F7DF9161
:10150000CF91089524E0660F771F881F991F2A95B1
:10151000D1F72091060230E050E040E00E94943183
:101520008EE090E08C1B9D0BB90102C0769567950B
:101530008A95E2F7CB01E3CF68E080E00E945F0A82
:101540008823B9F09BEE980F973268F093EC980FD0
:10155000973258F097E8980F973248F0815A8732BF
:1015600040F482E0089581E0089588E0089584E0E1
:10157000089580E008958091A8058823E9F090916E
:10158000A40594FF19C068E081E00E945F0A909171
:10159000A805492F481B550B9A0157FF02C02F5F22
:1015A0003F4F359527958091A705820F932F911D69
:1015B000181619064CF081E08093A7056091A705E5
:1015C00070E083E00C9459048F3F9105A9F3A4F3D4
:1015D0008FEF90E0F1CF8AE290E00E94FB056091EE
:1015E000DC0462956F706A30B0F4605D8AE394E069
:1015F0000E94AE056091DC046F706A3070F4605D2B
:101600008AE394E00E94AE058AE090E00E94FB0528
:101610001092DB040895695CE9CF695CF1CF1F93F8
:10162000CF93DF93EC01162F8C81811107C081E0ED
:101630008C831D8284E290E00E94FB058D818127CE
:101640008D83612F8AE394E0DF91CF911F910C94F9
:10165000AE05682F87ED94E00C940F0BCF93DF93CA
:10166000EC01FE0184912196882319F00E94290B38
:10167000F8CFDF91CF9108958BE491E00E942E0B7B
:1016800062E487ED94E00E9407050C94EB0A8CE27B
:101690000C94290BF999FECF92BD81BD81E08FBBDF
:1016A00080B5681761F060BDF8948095862341F09D
:1016B00084E06F3F09F484E18FBBF99A7894089530
:1016C00084E2FACFCF93DF93C82FD62FE82FF0E034
:1016D000EE0FFF1FE258FA4F01A8F2A9E02D618337
:1016E00085E5828313820E942D038FE2C89FC02D5F
:1016F0001124C95A6D2F8C2F90E0DF91CF910C945B
:101700004A0BCF93883008F050C0E82FF0E0E5573F
:10171000F44F0C94B631930B9D0BA50BAD0BB50B91
:10172000BD0BC50BCD0B653608F064E660939F05D5
:101730008EE190E0CF910C944A0B653608F064E698
:1017400060939D058FE190E0F5CF6093A2058AE05C
:101750008093AC0587E290E0EDCF6093A1058AE02D
:101760008093AC0588E290E0E5CFC62F862F0E94DB
:1017700048036C2F80E290E0DDCF653608F064E628
:1017800060939E0582E290E0D5CF643608F060E079
:101790006093A00589E290E0CDCF653608F064E65D
:1017A0006093A3058AE290E0C5CFCF9108950F938F
:1017B0001F93CF93C62F813041F1D0F08630D0F502
:1017C0008250082F10E0F801EE0FFF1FE00FF11F0D
:1017D000E15DFA4F60839281913031F4E0914105EF
:1017E000F091420560E009956C2FC801839608C00E
:1017F00041E080E795E00E9468076C2F88E190E067
:10180000CF911F910F910C944A0B6093F804809133
:10181000E7048350833050F480E795E00E947F070F
:101820008091F5049091F6040E94A3076C2F81E249
:1018300090E0E6CFCF911F910F91089560918305BD
:10184000633008F460E087E190E00C944A0BEF927B
:10185000FF920F931F93CF939B01C42F8C01C15014
:1018600030F4CF911F910F91FF90EF900895F80100
:1018700061918F017901FFEFEF1AFF0AC9010E9400
:101880004A0B9701ECCFCF93DF9300D0CDB7DEB7F3
:101890007A836983982F9695E92FF0E0EE0FFF1F6A
:1018A000E258FA4F21A932A98170462F572F682F8D
:1018B00070E0F901E60FF71F14A212A241155105BD
:1018C000B1F0660F771F260F371FF901578F468F2C
:1018D000943068F4880FFFE29F9F800D1124875A8F
:1018E000682F70E042E0CE0101960E94270C0F9015
:1018F0000F90DF91CF910895CF93DF9300D0CDB7B4
:10190000DEB777FD39C0813091F040F0823021F1AF
:101910000F900F90DF91CF91089560E06093B9052B
:1019200084E090E00E944A0BF3CF70E060E0962FD5
:10193000872F6E31710510F49EE180E090938A0547
:1019400080938B057A83698342E065E070E0CE0185
:1019500001960E94270CDCCF672B99F081E08093E1
:10196000830510927E0580918A0590918B05909356
:10197000CF058093CE05CCCF8130B9F270F28230A2
:1019800039F61092CF051092CE05C2CF803881F57E
:101990008EE396E19093F6048093F5048091E7043A
:1019A000863021F1E091B105F091B20592819F342A
:1019B00009F481C0E091B305F091B40592819F34A0
:1019C00009F46AC0E091B505F091B60592819F34A3
:1019D00009F462C086E00895853041F4E091B505D0
:1019E000F091B60582818F3409F052C081E00895EC
:1019F00090918305813179F480E0943009F084E09E
:101A0000809383051092CF051092CE0510927E052B
:101A10000E941E0CEBCF933031F58430F1F088300A
:101A2000F1F02FEF813011F780917E05022E000C2E
:101A3000330B820F932F911D23E020938305109287
:101A4000CF051092CE0597FD0CC08536910514F098
:101A500084E690E080937E05C9CF25E0E5CF2BEFAB
:101A6000E3CF80E0F7CF813009F6943009F4BECFA0
:101A700061E070E08091CE059091CF05892B11F047
:101A800070E060E082E00E947C0C0E94B409AECF5E
:101A900083E0089584E008958330E1F3843009F011
:101AA0009BCFE091B305F091B40582818F3409F4A6
:101AB0009DCF85E00895833009F498CFEFCFCF9381
:101AC000DF9300D0CDB7DEB78430C8F4E82FF0E064
:101AD000EE0FFF1FE258FA4F01A8F2A9E02D75831F
:101AE00064837A8369836FE2869F802D1124835AF1
:101AF000682F70E042E0CE0101960E94270C0F9003
:101B00000F90DF91CF9108950F931F93CF93DF93A1
:101B100000D0CDB7DEB78C0118161906F4F49A83FD
:101B2000898342E062E070E0CE0101960E94270CBA
:101B3000109283051092CF051092CE0510927E056B
:101B400010938505009384050E941E0C0F900F9042
:101B5000DF91CF911F910F91089583E080938305CA
:101B60001092CF051092CE051195019511090536F9
:101B7000110514F004E610E000937E05E5CF9B010B
:101B800051E0415008F40895F999FECF32BD21BDCE
:101B90005FBB60B5FC016193CF012F5F3F4FF1CF79
:101BA0006FE2869F602D1124605C70E047E188E65B
:101BB00091E00C94BF0D1F93CF93DF93182F809368
:101BC0000502229A2A9A61E08BE00E94280460E0D4
:101BD0008CE00E94280461E08DE00E94280480E5EA
:101BE0008CBD8DB581608DBD60E082E00E942804CF
:101BF00090E080E00E94200681E092E80E942006AA
:101C000080E098EB0E942006E3EDF4E08491E6EE9C
:101C1000F5E0D491E2EDF5E0C491C11105C080E09A
:101C2000DF91CF911F91089581110E94D103EC2F74
:101C3000F0E0EE0FFF1FE953FB4FA591B491EC913B
:101C4000ED2369F320E1129FC0011124876C906895
:101C50000E9420068CE796EA123031F083ED97EA75
:101C6000133011F080E496EA0E94200683E196EC9E
:101C70000E94200682EA94E90E9420068CEA92ECF7
:101C80000E94200683E89AEC0E94200684ED9EECD8
:101C90000E94200687EB94EC0E94200680E398E9DE
:101CA0000E94200686E79CEC0E94200680E090EED1
:101CB0000E94200680E098EC0E94200680E090ECD4
:101CC0000E94200683E08093040289E396E09093CB
:101CD000030180930201809169008C7F80936900E9
:101CE000E89A1092050281E09BCFEFEAF5E080E0F0
:101CF000A191B19111969C91923009F48F5F95E07A
:101D0000E73BF907A9F7882351F08091430581113A
:101D100006C083E00E94DB0D81E0809343050895B7
:101D2000843011F0883071F481E090E0209102025B
:101D300030910302232B11F090E080E09093030296
:101D40008093020261E080E00E941F0780910202FE
:101D500090910302892B29F483EB94E060E00C94CA
:101D60001B0987EB94E0FACFCF93C82F8038B9F4E2
:101D700061E08BE393E00E941B0981E090E02091F9
:101D80008305233011F090E080E09093030280936C
:101D900002028C2F0E94900E81E0CF910895803432
:101DA000C1F7809102029091030231E0009709F49B
:101DB00030E021E040918305433009F020E0321704
:101DC00041F3892B39F480918405909185050E9417
:101DD000840DDFCF90E080E0FACFFC019FB7F8944C
:101DE0006EBD0DB407FEFDCFA485B5858C9123850E
:101DF000822B8C93A485B5852C9183858095822335
:101E00008C939FBF0895FC0164810C94ED0E8111A9
:101E100003C089E00C94FA032FEF280F2230A0F4BE
:101E200081E090E001C0880F2A95EAF720917405BF
:101E3000662339F0822B8093740580E795E00C943B
:101E4000030F80958223F7CF08950F931F93CF93AD
:101E50008C01C62F68600E94ED0E6C2F677FC80151
:101E6000CF911F910F910C94ED0E607F0E94250F72
:101E70008BE990E00197F1F708950F931F93CF93AB
:101E8000DF938C01D62F411144E0F801C481C42BAB
:101E90006D2F607F6C2BC8010E94250FF0E1DF9F42
:101EA000B00111246C2BC8010E94250F8BE990E032
:101EB0000197F1F7DF91CF911F910F910895FB01E9
:101EC00001900020E9F73197AF01461B570BDC0169
:101ED000ED91FC910280F381E02D09948F929F9205
:101EE000AF92BF92EF92FF920F931F93CF93DF9326
:101EF000CDB7DEB7A1970FB6F894DEBF0FBECDBF4A
:101F00007C01FA01CB0119A2223008F42AE08E01EB
:101F10000F5D1F4F822E912CB12CA12CBF01A5016A
:101F200094010E949431F901CA016A300CF5605D98
:101F3000D8016E938D01232B242B252B79F790E06C
:101F400080E0109721F0BD01C7010E945F0FA196AC
:101F50000FB6F894DEBF0FBECDBFDF91CF911F91BA
:101F60000F91FF90EF90BF90AF909F908F9008954A
:101F7000695CDECFAB0170E060E02AE00C946E0F8C
:101F8000462F50E070E060E02AE00C946E0FCF9393
:101F9000DF938BEB94E00E942E0B60914A0587ED56
:101FA00094E00E94C00FC3E4D5E08A858F3FA9F07A
:101FB0000E94470B6A8587ED94E00E94C00F0E9443
:101FC000470B6F8587ED94E00E94C00F0E94470B7E
:101FD000688987ED94E00E94C00F299685E0C73696
:101FE000D80719F7DF91CF910C94EB0ACF9390911A
:101FF0001C059923D9F18230B9F1803821F410926F
:102000001B0510921A05C82F85EE93E00E942E0B37
:1020100060911A0570911B0587ED94E00E94BA0F3C
:102020000E94470B60E087ED94E00E94C00F0E9481
:10203000470B6C2F87ED94E00E94C00F0E94EB0AC3
:10204000C03429F481E080931C05CF91089582E08B
:1020500080931C050E94B60460931D0570931E05B5
:1020600080931F059093200581E0EFCF86E1EDCFAF
:10207000CF93DF938AE791E00E942E0BCEE7D5E065
:1020800069A187ED94E00E94C00F0E94470B6F8DFD
:1020900087ED94E00E94C00F0E94470B6CA187ED72
:1020A00094E00E94C00F0E94470B6BA187ED94E063
:1020B0000E94C00F0E94470B6EA187ED94E00E9422
:1020C000C00F0E94470B68A187ED94E00E94C00FEB
:1020D0000E94470B6AA187ED94E00E94C00F0E9406
:1020E000470B6DA187ED94E00E94C00FDF91CF9167
:1020F0000C94EB0ACF93DF938FE691E00E942E0BB6
:1021000060917A0587ED94E00E94C00F0E94470B12
:102110006091F80487ED94E00E94C00FCFE2D5E013
:102120000E94470B688187ED94E00E94C00F2396C0
:1021300085E0CB33D807A1F7DF91CF910C94EB0A60
:10214000CF93DF9389E691E00E942E0BCEE7D5E096
:102150006BAD87ED94E00E94C00F0E94470B6C8529
:102160007D8587ED94E00E94BA0FDF91CF910C94AA
:10217000EB0A0F931F93CF93DF938EE291E00E94BF
:102180002E0B0FEA15E0C1E0D0E00E94470BD8010A
:10219000ED91FD918D018181823041F4FE01EF5777
:1021A000FE4F608187ED94E00E94C00F2196C530FC
:1021B000D10559F7DF91CF911F910F910C94EB0A44
:1021C000CF92DF92EF92FF92CF93DF936C01990F42
:1021D000EE08FF08F7FE1BC06DE287ED94E00E9459
:1021E0000705EC0144275527BA014C195D096E0912
:1021F0007F092AE087ED94E00E946E0F8C0F9D1FEF
:10220000DF91CF91FF90EF90DF90CF9008952AE07B
:10221000B701A60187ED94E0DF91CF91FF90EF9099
:10222000DF90CF900C946E0F0F931F93CF93DF939B
:1022300085E791E00E942E0B0FEA15E0F801C191AD
:10224000D1918F010E94470B8E8D9F8D0E94E010CF
:102250008AA1882319F08CE40E94290B0E94470B65
:1022600088A199A10E94E0108BA1882319F088E42D
:102270000E94290BF5E0073B1F0701F7DF91CF9183
:102280001F910F910C94EB0A803841F48EE396E194
:102290009093F6048093F50481E008958F70E1F344
:1022A00070E060E08091AD050E94430C0E94141123
:1022B00082E00895CF93DF9386E491E00E942E0B95
:1022C000CFEAD5E00E94470BE991F991848195818D
:1022D0000E94E01085E0C73BD807A1F7DF91CF91BE
:1022E0000C94EB0A2F923F924F925F926F927F92E3
:1022F0008F929F92AF92BF92CF92DF92EF92FF9216
:102300001F93CF93DF93EC016A017B01722EAB0127
:102310009601CB01B6010E94263168E571E081117A
:1023200026C046015701E894B7F82FEF3FEF4FE77B
:102330005FE7C501B4010E94263181110CC02FEF67
:102340003FEF4FE75FE7C501B4010E94442E6CE503
:1023500071E0181664F02FEF3FEF4FE75FE4C7011D
:10236000B6010E94D1301816B4F460E671E0CE01D7
:10237000DF91CF911F91FF90EF90DF90CF90BF90B2
:10238000AF909F908F907F906F905F904F903F9015
:102390002F900C945F0F2FEF3FEF4FE75FECC701DB
:1023A000B6010E94442E87FDE0CF20E030E0A90175
:1023B000C701B6010E94442E312C212C87FF09C091
:1023C0006DE2CE010E9407051C01F7FAF094F7F8C0
:1023D000F09410E060E070E080E09FE3711641F05F
:1023E00020E030E040E251E40E9429301F5FF6CF48
:1023F000A70196010E94BD2F2B013C010E94A23033
:102400004B015C012AE0BC01A401CE010E946E0FC9
:102410007C01E20CF31C1123A1F1C501B4010E945F
:10242000492E9B01AC01C301B2010E94BC2F4B019C
:102430005C016EE2CE010E940705E80EF91E115004
:1024400000F120E030E040E251E4C501B4010E9417
:10245000AA2E2B013C010E94A2304B01CE010E940A
:10246000BA0FE80EF91EB40190E080E00E94492EF8
:102470009B01AC01C301B2010E94BC2F4B015C0166
:10248000DECFC701DF91CF911F91FF90EF90DF90DA
:10249000CF90BF90AF909F908F907F906F905F9004
:1024A0004F903F902F900895CF93DF938EE391E06C
:1024B0000E942E0BCEEBD5E049915991699179910B
:1024C00028E087ED94E00E9472110E94470B85E09E
:1024D000CA3CD80789F760919C0587ED94E00E947B
:1024E0000705DF91CF910C94EB0A4F925F926F92A8
:1024F0007F929F92AF92BF92CF92DF92EF92FF9224
:102500000F931F93CF93DF93F82E83E391E00E9404
:102510002E0B6F2D87ED94E00E94C00F0E94470B99
:10252000EF2DF0E0EE0FFF1FE258FA4FC1A9D2A93C
:102530008E010A5F1F4F5E0186E1A80EB11CF801F3
:1025400041905190619071908F0120E030E0A9019D
:10255000C301B2010E94442E7301620187FF04C0CF
:10256000F7FAF094F7F8F094912C20E030E040E88E
:102570005FE3C701B6010E94442E87FF15C020E02B
:1025800030E0A901C701B6010E94442E882361F002
:102590009A9420E030E040E251E4C701B6010E9485
:1025A000AA2E6B017C01E1CF20E030E040E251E453
:1025B000C701B6010E94D13087FD0CC0939420E082
:1025C00030E040E251E4C701B6010E9429306B01BE
:1025D0007C01EACF20E030E0A901C301B2010E94F2
:1025E000442E87FF04C0F7FAF094F7F8F09427E040
:1025F000B701A60187ED94E00E94721185E60E9462
:10260000290B892D990C990B0E94E0100E94470B11
:102610000A151B0509F093CF698187ED94E00E94AC
:10262000C00FDF91CF911F910F91FF90EF90DF903E
:10263000CF90BF90AF909F907F906F905F904F90A2
:102640000C94EB0AFC0122812F3459F446895789F6
:10265000608D718D21E087ED94E00E9472110C94E1
:10266000470B85E50E94290BFACFCF9389E391E0D0
:102670000E942E0BC0E08C2F0E94D00D0E94470BB1
:1026800068E671E087ED94E00E945F0FCF5FC43091
:1026900091F7CF910C94EB0AEF92FF921F93CF9397
:1026A000DF93EC017B0110E088818823A1F08C325C
:1026B00019F41F5F2196F8CFCE010E94E829BC01D2
:1026C000812FF7010995FE01EF018191882361F3C4
:1026D0008C32D1F7E9CFDF91CF911F91FF90EF902E
:1026E0000895EF92FF920F931F93CF93DF9362E0D1
:1026F00080E795E00E9417078BE39FE10197F1F7D0
:10270000E091F704E43008F099C0F0E0EE0FFF1F0D
:10271000E258FA4FC1A9D2A98881E82FF0E0EA5F18
:10272000FD4F13A16EE00E945F0AE881F0E0EA5FCE
:10273000FD4F21A5211157C023E41F921F939F93A2
:102740008F931F922F938091F7041F928F938FEC9A
:1027500093E09F938F931F9287E18F9388E691E098
:102760009F938F930E94252A68E671E080E795E0A9
:102770000E945F0F61E080E00E941F07E981F0E0A6
:10278000EE0FFF1FE953FC4F8591949160E00E948A
:102790001B0960E280E795E00E94F9068DB79EB7BD
:1027A0000E960FB6F8949EBF0FBE8DBF8A818F34F0
:1027B00009F03EC04E895F89688D798D10922D0594
:1027C000C6E0C0932E0522E081E295E00E947211DE
:1027D00080912D05C81BC15040F060E280E795E074
:1027E0000E94F906F8CF22E4A8CFE0E080912D0501
:1027F000E81760F4C1E0CE0FF0E0EF5DFA4F6481BE
:1028000080E795E00E94F906EC2FF0CF64E671E0D6
:1028100080E795E00E945F0F60919C0580E795E05E
:10282000DF91CF911F910F91FF90EF900C94F906DB
:1028300060E08FEB93E00E941B09EECF68E081E03F
:102840000E945F0AEC0180912A021F928F932C2F25
:1028500030E0AAE9BBE00E94AD2F2AEE35E140E06E
:1028600050E00E9494313F932F93DD27DF93CF9365
:102870008AEA93E09F938F931F9217E11F93C8E614
:10288000D1E0DF93CF930E94252ABE0180E795E037
:102890000E945F0F61E080E00E941F07F090350208
:1028A000E09036020E949C0A082F68E080E00E94B7
:1028B0005F0AEF92FF921F920F939F938F9385E988
:1028C00093E09F938F931F921F93DF93CF930E9468
:1028D000252A8DB79EB748960FB6F8949EBF0FBEB7
:1028E0008DBFBE0180E795E0DF91CF911F910F91E1
:1028F000FF90EF900C945F0F0F931F93CF93DF9394
:10290000CDB7DEB761970FB6F894DEBF0FBECDBF6F
:102910009091EC049B3008F459C0660F660FE0916B
:102920000202F0910302843009F055C06E0F7F2F30
:10293000711D7093030260930202809102029091D4
:1029400003028417950724F4509303024093020274
:1029500080910202909103022817390724F43093E2
:1029600003022093020261E080E00E941F07809131
:102970009C05282F082E000C330B3F938F938091DA
:1029800003028F93809102028F931F930F931F92E4
:1029900081E18F938E010F5F1F4F1F930F930E9452
:1029A000252AB80180E795E00E945F0F0FB6F894E2
:1029B000DEBF0FBECDBF61960FB6F894DEBF0FBE6F
:1029C000CDBFDF91CF911F910F910895963008F4FC
:1029D000A6CF660FA4CF883009F0AFCFE61BF10970
:1029E000F0930302E0930202A8CF0F931F93CF93BB
:1029F000C82F803811F561E086E893E00E941B093A
:102A000080917A0590E0909303028093020200E89F
:102A100013E024E630E050E040E06AE08C2F0E94B2
:102A20007C1440E06091020280E795E00E94680714
:102A300081E0CF911F910F910895803441F700916B
:102A400002021091030280917A0580171106F9F2B3
:102A500041E0602F80E795E00E946807602F88E1E1
:102A600090E00E944A0B0E947A10D1CF0F931F93DF
:102A7000CF93C82F8038D9F461E08FE693E00E94AD
:102A80001B0980919D0590E09093030280930202C0
:102A900003E613E024E630E050E040E065E08C2FF0
:102AA0000E947C1481E0CF911F910F910895803492
:102AB00079F7609102027091030280919D0586175B
:102AC000170631F3653608F064E660939D058FE1E3
:102AD00090E00E944A0B0E943810DACF0F931F93A8
:102AE000CF93C82F8038E1F461E08CE293E00E943C
:102AF0001B0980918A0590918B0590930302809326
:102B0000020200E213E028EE33E050E040E06AE029
:102B10008C2F0E947C1481E0CF911F910F9108951A
:102B2000803479F7609102027091030281E00E9483
:102B30007C0CE7CF0F931F93CF93C82F8038D9F425
:102B400061E080E193E00E941B098091B90590E06B
:102B5000909303028093020200E013E024E630E049
:102B600050E040E061E08C2F0E947C1481E0CF9126
:102B70001F910F910895803479F76091020270914E
:102B8000030280E00E947C0CE7CF0F931F93CF934A
:102B9000DF93D82FC091E704CE50803871F5C43050
:102BA00018F48C2F0E94D00D80E795E00E947F07DB
:102BB00068E671E080E795E00E945F0FEC2FF0E09F
:102BC000EE0FFF1FE258FA4F01A8F2A9E02D848111
:102BD0009581909303028093020202EF12E028ECA9
:102BE00030E048E35FEF61E08D2F0E947C1481E0CC
:102BF000DF91CF911F910F910895803471F760910B
:102C00000202709103028C2F0E945F0D0E945A11E4
:102C1000E4CF0F931F93CF93C82F8038F9F482E04D
:102C20000E94720961E081EE92E00E941B0980918E
:102C300084059091850590930302809302020AED2A
:102C400012E028EE33E050E040E065E08C2F0E9477
:102C50007C1481E0CF911F910F910895803479F712
:102C600080910202909103022091840530918505A4
:102C70008217930721F30E94840DE1CF2F923F9298
:102C80004F925F926F927F928F929F92AF92BF927C
:102C9000CF92DF92EF92FF920F931F93CF93DF9328
:102CA000CDB7DEB76D970FB6F894DEBF0FBECDBFC0
:102CB0001091E70460E080E00E941F07173009F0E0
:102CC00043C01091AD0560E089EC92E010FF02C0B6
:102CD00088EB92E00E941B091695012FDE011196E8
:102CE0005D01FE0172966F0191E1492E3E01FDE109
:102CF0006F0E711C81E0582E511A011708F4A2C002
:102D0000143070F4E12EF12CEE0CFF1CF701E258A8
:102D1000FA4F01A8F2A9E02D82818F3409F43FC156
:102D200041E150E060E270E0C5010E94BC31198AC7
:102D3000652D610F80E00E941F07B50180E795E0D7
:102D40000E945F0F1F5FD9CFE091F804E43008F0D4
:102D500098C0F0E0EE0FFF1FE258FA4FE1A8F2A88A
:102D6000D70112968C918F3409F08EC081E00E94B9
:102D7000720920E030E040E251E4F701668977898A
:102D8000808D918D0E94AA2E0E949B307B0100E0D5
:102D900077FF05C0EE24FF24E61AF70A01E010E1F0
:102DA0002AE0C22ED12C36E0B32EE114F10411F446
:102DB00019301CF1C701B6010E946C31962EA72E66
:102DC000B89E9001B99E300D1124C901865D9D4FBA
:102DD0007C01135060E0812F0E941F0763E0C70150
:102DE0000E94040761E0812F0E941F0763E0C70172
:102DF00003960E940407E92CFA2C115060E0812F01
:102E00000E941F0760E280E795E00E94F90661E0FA
:102E1000812F0E941F071C3031F46EE280E795E09D
:102E20000E94F906C2CFE114F10429F519301CF50E
:102E3000002309F161E080E795E00E94F90600E0D7
:102E40001111B3CF6D960FB6F894DEBF0FBECDBF94
:102E5000DF91CF911F910F91FF90EF90DF90CF9076
:102E6000BF90AF909F908F907F906F905F904F90AA
:102E70003F902F90089560E280E795E00E94F90668
:102E8000DFCF82E00E947209E091B705F091B805AA
:102E9000028160E070E00F3431F466897789808DBB
:102EA000918D0E949B3090918305DE0111967D01EA
:102EB0009330A1F10F34A9F041E150E067EA72E0EC
:102EC000CD010E94062A41E150E0B70180E795E07C
:102ED0000E940E058091F8048F3F09F05DC01250EA
:102EE000FCCE9430D9F480919C05282F082E000C3C
:102EF000330B3F938F937F936F9385E992E09F937A
:102F00008F931F9281E18F93BF93AF930E94252AE5
:102F10000FB6F894DEBF0FBECDBFD5CF2091CE0542
:102F20003091CF0580919C05482F082E000C550B41
:102F30002115310591F03F932F935F938F937F93EA
:102F40006F9383E892E09F938F931F9281E18F9319
:102F5000FF92EF920E94252ADBCF9330D1F421E03B
:102F600090E01F922F9320917E051F922F931F9226
:102F70009F935F938F937F936F938EE692E09F93DF
:102F80008F931F9281E18F93FF92EF920E94252AE7
:102F9000BFCF2DE59BE5E5CF03E011E09FCE812F6C
:102FA0000E94D00DA8E6B1E00D900020E9F79D0148
:102FB00029563140422F2C3008F44DC08091000139
:102FC000811721F010930001109267012E5FE091AC
:102FD0006701F0E0460130E01F012C183D08C101F7
:102FE000880D991DB9010E948031841790F5885988
:102FF0009E4FDC018C91D4018D934D016A167B06A6
:1030000071F7CF010196B9010E9480318093670169
:103010001D8EF701E258FA4F01A8F2A9E02D66894A
:103020007789808D918D0E949B307F936F93DF9283
:10303000CF92E6E6F2E0FF93EF931F924F92BF929A
:10304000AF920E94252A0FB6F894DEBF0FBECDBF07
:103050006FCE80E2D0CFD601E8E6F1E080E090E2EA
:10306000841708F490819D938F5F31968B30B9F768
:10307000BFEFB0930001CCCFCF92DF92EF92FF92DF
:103080001F93CF93DF93CDB7DEB7AF970FB6F8940A
:10309000DEBF0FBECDBF182F4BE270E060E0CE0167
:1030A00001960E94BF0D111105C089819A818F3050
:1030B000904F79F04BE250E060E871E0CE0101966C
:1030C0000E94062A4BE270E060E0CE0101960E9469
:1030D000270C8B819C811092CF051092CE05109207
:1030E0007E0590938505809384058D818093B90535
:1030F0008E819F818E31910510F48EE190E0909346
:103100008B0580938A0580E1FE013896AAEBB5E035
:1031100001900D928A95E1F7888D8093830541E0B7
:10312000698D80E795E00E9468078A8D9B8DAC8D44
:10313000BD8D8093820190938301A0938401B0930D
:1031400085018E8D833409F086E40E9461038F8DA2
:10315000853608F084E680939F0588A1853608F0BF
:1031600084E680939D058AA5843608F080E08093EC
:10317000A0058BA1853608F084E680939E0589A181
:103180000E9448038AA18093F8048091E704835049
:10319000833050F480E795E00E947F078091F5042A
:1031A0009091F6040E94A30788A58093A2058AE067
:1031B0008093AC0589A58093A1058BA5853608F081
:1031C00084E68093A3056E0184E2C80ED11C8FE2D1
:1031D000E82E85E0F82E10E0F60181916F01F701ED
:1031E00080838281813039F4E0914105F09142057C
:1031F00060E0812F09951F5FF3E0EF0EF11C1430A2
:1032000059F7AF960FB6F894DEBF0FBECDBFDF9172
:10321000CF911F91FF90EF90DF90CF900895CF92C4
:10322000DF92EF92FF920F931F93CF93DF93CDB76F
:10323000DEB7E1970FB6F894DEBF0FBECDBFE82E24
:1032400042E06EE370E0CE0101960E94BF0D8981DD
:103250009A818F30904F69F08FE090EF99AB88ABF7
:1032600042E06EE370E0CE01C0960E94270CEE248F
:10327000E3948FEAC82E85E0D82EF12C00E410E00C
:10328000EE2009F45EC04FE250E06BEA71E0CE013F
:1032900001960E94062A80E38F0D8F834FE2B801CA
:1032A000CE0101960E94270CF601819191916F0148
:1032B000288DFC0121832E8D3F8D35832483DC01F5
:1032C000169620E1FE01B09601900D922A95E1F745
:1032D0002A8D3B8DFC0114A212A22115310511F09B
:1032E000378F268F2C8D3D8DFC0115A213A2211541
:1032F000310511F031A320A3698D662361F0062EFC
:10330000000C770B8F2D0E945F0D60E088E1800F2D
:1033100090E00E944A0B015D1F4FF3940C3F110592
:1033200009F0AECFE1960FB6F894DEBF0FBECDBF69
:10333000DF91CF911F910F91FF90EF90DF90CF9091
:1033400008954FE2B801CE0101960E94BF0DACCFA7
:10335000CF93C82F803879F461E085E593E00E942F
:103360001B0910920302109202028C2F0E94900EF1
:1033700081E0CF9108958034C1F78091020290914D
:103380000302892B91F381E00E943C1881E00E94A6
:103390000F198BE493E00E942E0B0E94EB0AE5CFFD
:1033A0008F929F92AF92BF92CF92DF92EF92FF9255
:1033B0000F931F93CF93DF93EC018B01F0909C054B
:1033C00021E4F2120AC090E080E00E94492E6E8B48
:1033D0007F8B888F998F8FE4DFC08981833009F0DC
:1033E000F1C0CA88DB88EC88FD8820E030E048EC3A
:1033F00052E4C701B6010E94442E87FF0AC0A7010C
:10340000960160E070E48EE495E40E9429306B013F
:103410007C01E881F0E0EA5FFD4F81A5882309F493
:10342000C9C081E000389EE3190708F080E081A759
:1034300083A120E4829FC0011124800F911F813E4F
:103440009F4308F0A8C0609135027091360290E069
:1034500080E00E94492E9B01AC0160E070EC8FE798
:1034600094E40E9429309B01AC01C701B6010E947F
:1034700029306B017C01B80190E080E00E94492E68
:1034800020E030EC4FE756E40E942930A701960176
:103490000E94AA2E6B017C0120E030E0A9010E946D
:1034A000442E18160CF066C020E030E04AEA53E4DF
:1034B000C701B6010E94D13087FF5CC0C701B601C9
:1034C0000E949B30CB0164E170E00E948031262F86
:1034D000062E000C330BF901E35EFE4F1491012F11
:1034E000019560312CF4F901E25EFE4F0491011B5D
:1034F00024E16202B0011124072E000C880B990B05
:103500000E944B2E9B01AC01C701B6010E94BC2F4B
:1035100020E030E040EA51E40E9429304B015C0198
:10352000602F000F770B880B990B0E944B2E9B018D
:10353000AC01C501B4010E94AA2E4B015C01612FB0
:10354000110F770B880B990B0E944B2E9B01AC013E
:10355000C501B4010E94BD2F20E030E048EC52E4E8
:103560000E9429309B01AC01C701B6010E94BD2F0A
:103570006B017C01B701A601CE01DF91CF911F91B4
:103580000F91FF90EF90DF90CF90BF90AF909F9002
:103590008F900C94040A85E58A83DF91CF911F9167
:1035A0000F91FF90EF90DF90CF90BF90AF909F90E2
:1035B0008F90089581E0003C92E1190708F080E0C7
:1035C00081A759CFCB010197803E9F4320F790E020
:1035D00080E00E94492E9B01AC0160E070EC8FE717
:1035E00096E40E94293020E030E040E85FE30E944A
:1035F000BC2F9B01AC016A897B898C899D890E94C3
:10360000293022E5F21208C02091B7053091B805A3
:103610002C173D0709F0DBCE0E94DE306B017C01E8
:103620002E853F85488959890E94AA2EA7019601B7
:103630000E94AA2E2A853B854C855D850E94BD2F60
:10364000A70196010E94AA2E2E813F8148855985A7
:103650000E94BD2F9B01AC0160E070E080E89FE319
:103660000E94293023E333E948E853E40E94BC2F49
:10367000AB01BC0181CFBF92CF92DF92EF92FF925C
:103680000F931F93CF93DF937C01B62E9FEAC92E31
:1036900095E0D92EC1E0D0E0F601019111916F01C2
:1036A000F8018181823031F5FE01EF57FE4F8081B4
:1036B0008F3721F0F701928189131CC0F4E070E08C
:1036C00060E0BF1689F1F70160817181878182FF17
:1036D00027C0072E000C880B990B0E944B2E20E070
:1036E00030E040E251E40E942930AB01BC01C80146
:1036F0000E94040A2196C530D10571F68B2D857084
:10370000B9F080914305882399F0DF91CF911F9103
:103710000F91FF90EF90DF90CF90BF900C94C70F68
:10372000660F771F660F771FC8010E94D019E2CF7E
:10373000DF91CF911F910F91FF90EF90DF90CF908D
:10374000BF9008951F920F920FB60F9211242F93DE
:103750003F938F939F93AF93BF938091FE0190917E
:10376000FF01A0910002B09101023091FD0123E020
:10377000230F2D3758F50196A11DB11D2093FD0192
:103780008093FE019093FF01A0930002B093010289
:103790008091F9019091FA01A091FB01B091FC0197
:1037A0000196A11DB11D8093F9019093FA01A09398
:1037B000FB01B093FC01BF91AF919F918F913F911D
:1037C0002F910F900FBE0F901F90189526E8230F92
:1037D0000296A11DB11DD2CF1F920F920FB60F926C
:1037E00011242F933F934F935F936F937F938F9306
:1037F0009F93AF93BF93EF93FF93E0910401F091F8
:1038000005010995FF91EF91BF91AF919F918F9124
:103810007F916F915F914F913F912F910F900FBECC
:103820000F901F9018951F920F920FB60F921124B0
:103830002F933F934F935F936F937F938F939F93B8
:10384000AF93BF93EF93FF93E0910201F0910301D7
:103850000995FF91EF91BF91AF919F918F917F91CA
:103860006F915F914F913F912F910F900FBE0F90ED
:103870001F9018951F920F920FB60F9211242F933D
:103880003F934F935F936F937F938F939F93AF93E8
:10389000BF93EF93FF938AE394E00E948C05FF911E
:1038A000EF91BF91AF919F918F917F916F915F91B8
:1038B0004F913F912F910F900FBE0F901F90189531
:1038C0001F920F920FB60F9211242F938F939F93F5
:1038D000EF93FF93E0914A04F0914B048081E091D3
:1038E0005004F091510482FD1BC0908180915304DB
:1038F0008F5F8F7320915404821741F0E09153043D
:10390000F0E0E65CFB4F958F80935304FF91EF91BD
:103910009F918F912F910F900FBE0F901F90189530
:103920008081F4CF1F920F920FB60F9211242F9324
:103930003F934F935F936F937F938F939F93AF9337
:10394000BF93EF93FF9380917F0190918001892B2A
:1039500071F1809188009091890086509F4F80344A
:103960002CE9920710F090E080E09093890080931A
:10397000880080917F019091800101979093800150
:1039800080937F018BB190E489278BB9FF91EF91F0
:10399000BF91AF919F918F917F916F915F914F9167
:1039A0003F912F910F900FBE0F901F9018950E947E
:1039B0008707ECCF1F920F920FB60F9211242F930F
:1039C0003F934F935F936F937F938F939F93AF93A7
:1039D000BF93EF93FF9380910C02882309F470C08A
:1039E000815080930C02823081F580910F0290E02B
:1039F000FC01EE0FFF1FEE0FFF1FEA5FFD4F40912E
:103A000008025091090260910A0270910B024387EB
:103A10005487658776878A5F9D4F20910D0230918C
:103A20000E02231BFC0123A3FF91EF91BF91AF91E5
:103A30009F918F917F916F915F914F913F912F91C6
:103A40000F900FBE0F901F9018958130D9F4909170
:103A5000380280910F02891302C09093390280913D
:103A60007C008F7080930F02981303C08FEF8093B8
:103A70003902109208021092090210920A02109262
:103A80000B02D2CF8111D0CF10920D028FEF809315
:103A90000E0280910F0281110EC084E08093070214
:103AA0008091100290E0019666E070E00E94803103
:103AB00080931002B9CF8091060280930702B4CFA1
:103AC00020917C002F70E0910702EE23C9F1E150B4
:103AD000E09307028091780090917900309138024C
:103AE000321307C0F0E0EE0FFF1FE65CFD4F91833D
:103AF0008083409108025091090260910A027091FE
:103B00000B02480F591F611D711D4093080250930D
:103B1000090260930A0270930B0296958795969519
:103B20008795282F30910D02381710F480930D02DD
:103B300030910E02231708F077CF80930E0274CFD6
:103B40002730F8F0809178009091790090933602B8
:103B50008093350210920F02AE2FB0E0AA5FBD4FE6
:103B600099968C91811112C080E490917C00907C98
:103B7000891771F090E390930C02E82BE0937C009E
:103B800053CF2111E9CFE0911002E6CF80ECEDCFC9
:103B900093E0F1CF1F920F920FB60F921124289845
:103BA0000F900FBE0F901F9018951F920F920FB697
:103BB0000F9211242F933F934F936F937F938F9383
:103BC0009F9320918A0030918B004091AB05443641
:103BD00020F0809183058430F9F08091A9059091BF
:103BE000AA05BC01625E7F4F621B730B6D337105CA
:103BF00018F021153105E1F44F5F4093AB050097B4
:103C000059F0289A2091840030918500820F931FEB
:103C100090938B0080938A009F918F917F916F91F9
:103C20004F913F912F910F900FBE0F901F901895BD
:103C30002817390718F4C9014E96E1CFC9014E97EC
:103C4000DECF10923D0410923C0488EE93E0A0E099
:103C5000B0E080933E0490933F04A0934004B0935F
:103C600041048AE191E090933B0480933A0485EC0F
:103C700090E0909347048093460484EC90E0909306
:103C800049048093480480EC90E090934B04809327
:103C90004A0481EC90E090934D0480934C0482ECB4
:103CA00090E090934F0480934E0486EC90E09093C4
:103CB00051048093500410925304109254041092B3
:103CC0005504109256041092DA041092D9048CE232
:103CD00091E09093D8048093D70410922405109219
:103CE00023058EE391E090932205809321058DE5D5
:103CF00095E09093E0048093DF0485EE94E0909348
:103D0000E2048093E1048CE99AE09093E6048093C6
:103D1000E50488E391E09093DE048093DD0495E070
:103D20009093420685E58093440624E020931C0688
:103D300080931E0623E02093F6058093F80522E089
:103D40002093D0058093D20580E88093860586E491
:103D500080939C05109273051092720590937905DB
:103D60008AE491E0909371058093700561E08BE0A7
:103D70000E94280461E08DE00E94280461E08AE04E
:103D80000E94280461E08AE00E94FA0381E58CBD6C
:103D9000E8EEF5E0E491E0937B05E4EDF5E0E491F5
:103DA000F0E0EE0FFF1FEA53FA4F85919491909344
:103DB0007D0580937C0561E084E00E94280460E03A
:103DC00080E795E00E94ED0E88E08093780580936F
:103DD000750580917905882319F061E00E94280417
:103DE0008BEF9FEFFC013197F1F7FC013197F1F771
:103DF0000197F1F760E380E795E00E94350F8BE4CF
:103E000096E40197F1F760E380E795E00E94350FB3
:103E100083E592E00197F1F760E380E795E00E9487
:103E2000350F60E280E795E00E94350F60917505DF
:103E3000606280E795E00E94170784E08093760532
:103E40006CE080E795E00E94170780E795E00E940C
:103E50007F0782E08093770566E080E795E00E9427
:103E600017078BE39BE1909349058093480580E811
:103E700080934A058FEF80934D058093560580937C
:103E80005F058093680587E09FE0909342058093EB
:103E900041050895CF93DF93CDB7DEB72C970FB6CA
:103EA000F894DEBF0FBECDBF789484B5826084BD28
:103EB00084B5816084BD85B5826085BD85B581602E
:103EC00085BD80916E00816080936E0010928100AC
:103ED0008091810082608093810080918100816067
:103EE0008093810080918000816080938000809128
:103EF000B10084608093B1008091B00081608093B4
:103F0000B00080917A00846080937A0080917A007A
:103F1000826080937A0080917A00816080937A0039
:103F200080917A00806880937A001092C100219A73
:103F300062E080E00E947F030E94C204E0914A0494
:103F4000F0914B0482E08083E0914604F0914704B5
:103F50001082E0914804F091490483E38083109239
:103F60005204E0914E04F0914F0486E08083E0918A
:103F70004C04F0914D04808180618083E0914C0479
:103F8000F0914D04808188608083E0914C04F09131
:103F90004D04808180688083E0914C04F0914D0451
:103FA00080818F7D80838AE090E00E94FB050E94E3
:103FB0003C0B80E880BF8FE380937E00809164009B
:103FC000806880936400569A82E496E09093B005EE
:103FD0008093AF058CE196E09093B2058093B10594
:103FE00086EF95E09093B4058093B30580ED95E05E
:103FF0009093B6058093B50580E00E943C1880E060
:104000000E940F19209A80E49CE990938700809386
:104010008600109280008AE18093810084E2809380
:104020006F008EE480937C0080E480937B008FEEB1
:1040300080937A000E942D038FEF809338020E94B4
:10404000750E82E00E9472096BE18DED94E00E9492
:10405000A80788E199E20FB6F894A89580936000CC
:104060000FBE90936000A895E6E8F1E00190002073
:10407000E9F7E758F140E9838AE394E00E946C0590
:104080008C01892B09F466C28AE394E00E944A05F8
:104090008A3019F08D3009F051C22981211108C0F0
:1040A00090E0E92FF0E0EA57FE4F10829983E4CFC9
:1040B000809186018F32A1F7A7E8B1E00D90002032
:1040C000E9F7A858B140BB83AA8380911C058111F0
:1040D00003C081E080931C0547E050E064E874E091
:1040E00087E891E00E940F2A892B11F5EA81FB8174
:1040F000FF27EA57FE4FF081F9838F2F0E9461035B
:104100002981233411F0263429F469818DE190E06E
:104110000E944A0B0E94541280918E018A330CF047
:10412000BFCF8EE891E00E94E8290E94840DB8CFAD
:1041300047E050E06CE774E087E891E00E940F2AC6
:10414000892B49F467ED7BE08EE891E00E944C13E7
:104150000E947A10A5CF47E050E064E774E087E85A
:1041600091E00E940F2A892B49F46CE77CE08EE8ED
:1041700091E00E944C130E94A01092CF47E050E0C3
:104180006CE674E087E891E00E940F2A892B49F4DD
:104190006FE57DE08EE891E00E944C130E945A1179
:1041A0007FCF47E050E064E674E087E891E00E944A
:1041B0000F2A892B09F051C04A814A3060F080E90A
:1041C00091E00E94E42920918E01243609F443C035
:1041D0002CF4223649F00E94541262CF2936C9F1DC
:1041E0002037C9F721E001C020E0A22FB0E0BB8357
:1041F000AA83FD01EE0FFF1FEE0FFF1FE654FA4FDB
:104200006083718382839383223079F420E030E0ED
:10421000A9010E94442E811108C0109294051092A9
:10422000950510929605109297056A817B81660F1D
:10423000771F660F771F695F7F4F8A819B81880F89
:10424000991F880F991F44E086549A4F0E94270CAB
:10425000C2CF22E0CACF23E0C8CF46E050E06DE5F0
:1042600074E087E891E00E940F2A892BB1F4BA81AB
:10427000B93080F060918D016053643058F4EFE202
:104280006E9F602D1124605C70E047E18FE891E043
:104290000E94270C0E94351303CF46E050E066E5EC
:1042A00074E087E891E00E940F2A892B09F086C00C
:1042B000FA81F83008F482C080918D01A0ED9A2E29
:1042C000980E23E0291508F46CC03FE2939E802DE0
:1042D0001124EFE58E2E880E712C4FE851E05B83A0
:1042E0004A83092D10E0000F111F01551A4FAA81B2
:1042F000BB818C91882309F451C0B3E0B71508F451
:1043000085C78C3249F47394EA81FB813196FB8333
:10431000EA83F4E08F0EEBCFD801AD90BC90B4E00F
:104320007B9E700111246701E6E0CE0ED11CCA0C01
:10433000DB1C8A819B810E94E429EA0CFB1CD701CB
:1043400016966D937D938D939C931997682D70E0CD
:1043500044E0C6010E94270CEA81FB81FB83EA83CB
:104360008191882321F28C32C9F7C1CF6E15B1F04B
:10437000892D0E94620BB2E0EB1210C0EA81FB8132
:10438000EE57FE4F2FE720836FE78A819B81499686
:104390000E944A0B0E94B9100E94750E892D0E943E
:1043A000751280E00E94751281E00E94751282E011
:1043B0000E94751283E00E94751272CE47E050E0B1
:1043C0006EE474E087E891E00E940F2A892B49F49B
:1043D00063E47CE08EE891E00E944C130E9414118B
:1043E0005FCE47E050E066E474E087E891E00E9429
:1043F0000F2A892B49F461E87BE08EE891E00E9466
:104400004C130E9438104CCE47E050E06EE374E04D
:1044100087E891E00E940F2A892B71F48EE891E0E1
:104420000E94AB038091E7048831E1F168E18DEDF2
:1044300094E00E94A80734CE47E050E066E374E0C1
:1044400087E891E00E940F2A892B39F46FEE79E01A
:104450008EE891E00E944C1323CE47E050E06EE2DC
:1044600074E087E891E00E940F2A892BF1F4809193
:104470001C05823009F014CE81E080931C058EE883
:1044800091E00E94E82990931B0580931A05EEE8BD
:10449000F1E0CF012191222319F0CF012C32C9F78D
:1044A0000E94AB030E944B07FBCD46E050E067E261
:1044B00074E087E891E00E940F2A892BF9F40E94AA
:1044C0003C0B0E9454120E9438100E94351380E069
:1044D0000E94751281E00E94751282E00E9475129E
:1044E00083E00E9475120E945A110E94A0100E943F
:1044F0007A100E9414110E94B910D2CD44E050E00D
:1045000062E274E087E891E00E940F2A892B19F497
:104510000E943C0BC5CD45E050E06BE174E087E8BC
:1045200091E00E940F2A892B09F0BACDF89488E116
:104530008093600089E080936000FFCF99819F5F46
:104540002981E22FF0E0EA57FE4F8083903608F091
:10455000A7CDA7CDA0904305A11087C20E94B604A5
:1045600020917F0530918005DB01A21BB30BBB833B
:10457000AA8380918805909189050097A1F08A17F8
:104580009B0788F48091A40580FF03C000919D05DE
:1045900010E0B80183E00E9459041092890510923E
:1045A00088051092A805809186054DE451E0849F0E
:1045B0009001859F300D1124EA81FB812E173F0762
:1045C00028F48F5F809386050E94BB0A2A813B8175
:1045D000283E334008F47EC581E0809386050E9422
:1045E000B60460937F057093800580938105909356
:1045F00082055FEF5093AD050EE715E0F12CEE2438
:10460000E394D801D1960D90BC91A02DBB83AA83D1
:1046100011968C9111978D7F813049F46EE08C91C9
:104620000E945F0ABC018A819B810E94D019F80117
:1046300001A8F2A9E02DFB83EA8382818F3409F07F
:10464000F0C266897789808D918D23812111B4C252
:10465000628F738F848F958FE3828091830584307E
:1046600009F4DFC2EA81FB8166897789808D918DAB
:104670000E949B30AA81BB815E968D919C915F9731
:104680001816190634F4861797070CF0B2C29496E0
:10469000EC92AA81BB8190968D919C91919718166E
:1046A00019064CF49C0121503109621773070CF074
:1046B000ACC29596EC928091CE059091CF05892B56
:1046C00039F0AA81BB8193961C92939792961C9283
:1046D000AA81BB8192968C91882309F4A9C2F09299
:1046E000AD050E5F1F4FF394F394F8E0FF1289CFEE
:1046F000209183052983233008F058C130917E052D
:104700003B8710927E054091B7055091B8055B83B9
:104710004A832090CE053090CF05DA0156964D9011
:104720005D906D907C905997E0918405F09185059E
:10473000FA87E98712968C918F3409F002C121140F
:10474000310409F0FEC0BF01FF0F880B990B0E94D6
:104750004B2E6C837D838E839F83A30192010E94E5
:10476000BC2F4B015C01C090BE05D090BF05E0900E
:10477000C005F090C10520E030E0A901C701B601F5
:104780000E94442E87FF5FC22DEC3CEC4CEC5EEBAC
:104790006C817D818E819F810E94AA2EA30192014E
:1047A0000E94BD2FA70196010E94AA2E609390053A
:1047B000709391058093920590939305F981F2305F
:1047C00009F446C220919E05288720E030E0A90127
:1047D000C501B4010E94442E87FF03C04B854111DF
:1047E0000FC020E030E0A901C501B4010E94D13022
:1047F00018160CF067C05B858885581708F062C0F2
:104800002091C2053091C3054091C4055091C50562
:10481000C501B4010E94AA2E2091940530919505FE
:1048200040919605509197050E94BD2F8B018C8772
:104830009B87A8856A2F70E090E080E00E94492E57
:104840004B015C0120E030E0A901C701B6010E94E4
:10485000442E87FF16C02AE939E949E15FEBC70119
:10486000B6010E94AA2E2C813D814E815F810E945B
:10487000AA2E9B01AC01B401C5010E94BD2F4B01C2
:104880005C0120E030E0A901B8018C859B850E9485
:10489000442E87FDE0C19401A501B8018C859B855C
:1048A0000E94D13018161CF48401AC86BB86C80166
:1048B000AC85BB858093940590939505A093960550
:1048C000B0939705A3019201EA81FB81628D738DFC
:1048D000848D958D0E94BC2F2091C6053091C7050F
:1048E0004091C8055091C9050E94AA2E6B017C0118
:1048F000C0929805D0929905E0929A05F0929B0596
:104900002091940530919505409196055091970519
:104910006091900570919105809192059091930519
:104920000E94BD2FA70196010E94BD2F0E949B30BF
:1049300077FD96C16536710514F064E670E060930A
:104940007E05C301B2010E949B3029853A85261B52
:10495000370B121613060CF485C180918A059091CD
:104960008B05821993094E9708F47CC1F981F111E6
:1049700016C020E030E040E05FE360919405709164
:10498000950580919605909197050E94AA2E6093B7
:10499000940570939505809396059093970582E012
:1049A000809383051092CF051092CE0580917E05ED
:1049B0008983C090CA05D090CB05E090CC05F090DB
:1049C000CD05682F70E090E080E00E94492EA7019D
:1049D00096010E94BC2F21E837EF47E05CE30E947C
:1049E000AA2EA70196010E94BD2F6093CA0570935D
:1049F000CB058093CC059093CD058091A00599813E
:104A000030E09817A8F064E6681B90918305911137
:104A100061C190919E05A981A81BBB0B9A9FA00123
:104A20009B9F500D112470E0CA010E946C31362FFB
:104A3000109289051092880520919F05321708F47D
:104A40004CC110928705232F8091A40580FF04C0DC
:104A500080919D05821B282F2093A505211165C1FA
:104A60001092A8050E94BB0A7BC1F12C43E0D42E12
:104A700054E6C52E6AE0B62E70C40E94DB0D81118B
:104A800070C44BE455E05B834A83EA81FB818281F9
:104A90008F3F31F10E94B604AA81BB8113968D909D
:104AA0009D90AD90BC901697681979098A099B0969
:104AB00061327F4B8240910598F0E0914805F0917A
:104AC0004905309721F064E08A819B810995EA814C
:104AD000FB8182818F3F21F02FEF22831182108290
:104AE0004A815B81475F5F4F5B834A834F565540E6
:104AF00061F6FF2009F432CD62E089E00E947F0375
:104B00002DCDD09204020E94B604609344057093A8
:104B1000450580934605909347059091F301809158
:104B20004A05992339F0882309F416C481508093EB
:104B30004A0512C48F3F19F08F5F80934A05809118
:104B4000E90154E0859FC0011124982F9C73809146
:104B5000EA018295869586958370892B40914D0553
:104B6000841709F47DC330915605831709F47CC37B
:104B700020915F05821709F47CC39091680589171D
:104B800009F47CC34F3F09F413C43F3F09F414C434
:104B90002F3F09F415C49F3F09F0DEC393E09A83C9
:104BA000A3E06AC3472F50E0542F442744275F7087
:104BB000462B51874087C8C3EA81FB81828C938C46
:104BC000A48CB58CA50194010E94BC2F2AE83BE47B
:104BD00046E05DE30E94AA2EA50194010E94BD2F2C
:104BE000AA81BB815A966D937D938D939C935D971B
:104BF00034CD681779070CF04CCDEA81FB8184A194
:104C0000882309F446CDE2A244CD681779070CF455
:104C100052CDEA81FB8185A1882309F44CCDE3A222
:104C20004ACDEA81FB8114A212A215A213A250CD93
:104C3000EA81FB8183A1882309F453CD81E08F0DA4
:104C40008093AD054ECDA7019601C501B401ACCD51
:104C500034E63887BACD00E010E01C861B8627CEEC
:104C600060E06DCEC1010197232879F54091B90527
:104C7000442309F49BCE5981523009F097CE54E673
:104C8000529FC001539F900D112469857A850E941F
:104C900080314617170611F00CF088CE6091CA05D6
:104CA0007091CB058091CC059091CD050E949B30F1
:104CB0006A3571050CF07ACE81E0809383051092FD
:104CC0007E0580918A0590918B059093CF05809306
:104CD000CE056CCE90919D059ECE4091870588EEC5
:104CE00093E0489FF001499FF00D1124622F70E07E
:104CF00080E197E20E948031369FC001379F900D7E
:104D00001124E817F90760F48E1B9F0B9093890517
:104D1000809388054F5F4A3028F44093870594CEEE
:104D200020E0F8CF109287058FCE3091A8058091B2
:104D3000A40584FFA9C0B7E82B9FC001112464E635
:104D400070E00E948031625A6093A80531118ACECA
:104D50006FEF70E083E00E94590480E88093A7051C
:104D600080917E056091A305861708F496C084E6BD
:104D70008093A6058091A40581FF06C09091A605A9
:104D800084E6891B8093A6052091A2054091A10588
:104D9000421B550B3091A605349FC001359F900DE5
:104DA000112464E670E00E948031260F44E1249FC4
:104DB000900111248091AC058F3F19F08F5F809393
:104DC000AC058091A9059091AA0528173907A9F08B
:104DD0008C599F4F821B930B893C910520F4809145
:104DE000AC058B3050F0F8941092AB053093AA05C7
:104DF0002093A90578941092AC05809138028F3FDA
:104E000009F456C0809137028F5F80933702853056
:104E100008F44EC0F89490913902809138029813AA
:104E200046C05FEF509338027894109237028CE8B6
:104E300094E00E942E0B8091390294E0C92E8111DA
:104E4000C09006020AE312E0D12CF12CE12CDC1414
:104E500009F4B5C1D801ED91FD918D01FB83EA8381
:104E6000EE16FF0608F092C18BE20E94290B6A81C0
:104E70007B816E197F096230710508F498C187ED56
:104E800094E00E94BA0F93C1EFEF2E9FC00111244E
:104E900064E670E00E94803157CFF4E68F9FC00136
:104EA000112470E00E946C316093A60563CF789462
:104EB0008091F5049091F6040E94A3078091F4017B
:104EC0008F5F8093F4018F7129F4809143058111E4
:104ED0000E94C70F88E994E00E942E0B8091830501
:104EE000843009F073C185E50E94290B0E94470BAD
:104EF0008091B7059091B8050E9422138091B10569
:104F00009091B2050E9422138091B3059091B4054F
:104F10000E9422138091B5059091B6050E9422133C
:104F200060917E0587ED94E00E94C00F0E94470BC0
:104F30006091CA057091CB058091CC059091CD050B
:104F40000E949B30CB010E94E0100E94470B6091B1
:104F5000CE057091CF0587ED94E00E94BA0F0E94B4
:104F6000470B6091A50587ED94E00E94C00F0E9459
:104F7000470B6091A60587ED94E00E94C00F0E9448
:104F8000470B6091830587ED94E00E94C00F0E945B
:104F9000EB0A8091AE058823D9F18091B7059091F5
:104FA000B8059B838A83DC0112968C918F3481F53E
:104FB00082E994E00E942E0B0CE815E0F801419183
:104FC0005191619171918F0122E087ED94E00E94EF
:104FD00072110E94470BF5E00C391F0779F7AA817F
:104FE000BB815A962D913D914D915C915D9756965E
:104FF0006D917D918D919C9159970E94BC2FAB0131
:10500000BC0122E087ED94E00E9472110E94EB0A3D
:10501000EFEAF5E0FB83EA8311E0AA81BB81ED9121
:10502000FD91BB83AA8362A1812F0E947F03EA8145
:10503000FB8132970190F081E02D63A181E0810F27
:105040000E947F031E5F193041F7B091AD05B9830F
:1050500061E0BF3F09F460E08EE00E947F03809131
:105060000101E981EF3F09F4BCC08F3F59F4109270
:10507000F5011092F6011092F7011092F80184E008
:10508000809301010E94141167E08DED94E00E946D
:10509000A8078091F40183708130D1F48EE994E007
:1050A0000E942E0B29E232E03B832A830E94470BA9
:1050B000AA81BB816D91BB83AA8387ED94E00E9496
:1050C000C00FEA81FB81EF52F24081F70E94EB0AA8
:1050D0000E94B4098DED94E00E94360930910101DF
:1050E00039833F3F09F440C00E94B6045981452FDF
:1050F00050E05B834A83FA01ED55FB4FE491209128
:10510000F5013091F601AB01421B530B1AE0E19F10
:10511000F0011124E417F50738F50E94B6046093F6
:10512000F5017093F6018093F7019093F8018A815D
:105130009B81019666E070E00E946C3180930101D2
:1051400040E060917A0580FD0BC08D559B4FFC01BE
:105150008491819F802D11240E948E0740E060E0A1
:1051600080E795E00E9468070E94C20480E090E01A
:10517000892B11F40C9433200E947805882311F4B4
:105180000C9433200E9400000C9433202A813B8130
:105190002E153F0580F48DE20E94290BB7014A814C
:1051A0005B81641B750B6130710509F068CED39487
:1051B000EA80FB804CCE8EE20E94290BF8CF0E9441
:1051C000EB0A809139028093380272CE833011F459
:1051D0008DE28ACE80918405909185050E94E01031
:1051E00085CE8F3F61F0F981F09301010E9487071E
:1051F00040E060917A0580E795E00E946807809121
:10520000E704873009F045CF62E03FCF8A819B8178
:105210000E94E829682F292D30E03B832A83F90179
:10522000EE0FFF1FE258FA4F01A8F2A9E02DE1802E
:1052300067FF9CC870E8F72EF60E0A811B810E5797
:105240001E4F32E0E31204C0D8018C91F81621F011
:1052500062E0892D0E94620BF801F0826F2D95C8E3
:105260001A8232E039830EC041E04A8352E059830A
:1052700009C092E09A83A2E0A98304C0B3E0BA8394
:10528000E2E0E983BA81EB2EF12C29E02E9DF001BA
:105290002F9DF00D1124ED5BFA4F9285891719F0BF
:1052A0008287118610860E94B604A9E0AE9DF001A7
:1052B000AF9DF00D1124ED5BFA4F638774878587EE
:1052C00096877091EA01272F207275FD22E0809168
:1052D000EC0187FD21608F778F3709F02460BA8158
:1052E000E9E0BE9FC0011124855B9A4F39E03E9DE5
:1052F000F0013F9DF00D1124ED5BFA4F27872091BF
:10530000E8012695208B6091EB01DC0117962C912A
:1053100022FF48CC6A3A01F17F70462F50E034E01A
:10532000559547953A95E1F7B49E9001B59E300D9D
:1053300011247C9D200D311D11246F70260F311D0D
:105340002059314031872087E0914805F091490587
:10535000309711F069810995FA2C8091050281112D
:105360008CCB80910402843039F49091E7018091D4
:10537000E601981709F4C5CB80910402833009F047
:1053800080CB1092E6011092F3013FEF3093E701DA
:1053900094E090930402F8948093E80183EA94E9FE
:1053A0000E94200689ED92E80E942006789469CB3D
:1053B0001A82F3E0F98366CF21E02A8333E052CFEB
:1053C00042E04A8353E053CF662777270C942F2C73
:1053D000FC0188279927E89421912032E9F32930AC
:1053E00010F02E30C8F32B3241F02D3239F468948E
:1053F00004C00E941D2A820F911D219120532A3042
:10540000C0F31EF4909581959F4F0895FB01DC0138
:1054100002C005900D9241505040D8F70895FB010D
:10542000DC014150504030F08D910590801919F405
:105430000020B9F7881B990B08957AE0979F902D6B
:10544000879F802D910D11240895AEE0B0E0EBE22E
:10545000FAE20C94842F0D891E898F89988D2EE095
:105460002C831A83098397FF02C080E090E801979C
:105470009E838D83AE01455E5F4F698D7A8DCE012F
:1054800001960E94552A4D815E8157FD0AC02F81E9
:105490003885421753070CF49A01020F131FF801C5
:1054A00010822E96E4E00C94A02FABE0B0E0EBE588
:1054B000FAE20C94762F7C013B018A01FC011782F1
:1054C0001682838181FFC8C1CE0101965C01F7017C
:1054D0009381F30193FD859193FF81913F0188238F
:1054E00009F453C1853239F493FD859193FF81917D
:1054F0003F01853229F4B70190E00E94B62DE7CF35
:10550000912C212C312CFFE1F31538F08B3211F165
:1055100090F4803209F1833229F137FC3CC020ED50
:10552000280F2A3050F536FE20C08AE0989E200DC4
:105530001124922E06C08D3291F0803371F7689459
:1055400030F8F30193FD859193FF81913F01811123
:10555000DACF21C0689431F8689432F8F2CF6894B9
:1055600033F8EFCF689434F8ECCFEAE02E9E200DAC
:105570001124222E689435F8E4CF8E3229F436FCBB
:1055800004C1689436F8DDCF8C3619F4689437F886
:10559000D8CF8836B1F2982F9F7D95549330E0F0A4
:1055A0008336A1F18337C1F1833509F063C0280147
:1055B000F2E04F0E511CF801C080D180692D70E0DF
:1055C00036FC02C06FEF7FEFC6010E94A02D4C0198
:1055D000689437F882010AC00C5F1F4FFFE3F9831C
:1055E00088248394912C6501E89437F833FE2DC00C
:1055F000522C8114910471F5552009F468CFB7013C
:1056000080E290E00E94B62D5A94F6CFF801808196
:1056100089830E5F1F4FE4CF2801F2E04F0E511C2B
:10562000F801C080D180692D70E036FC02C06FEFB8
:105630007FEFC6010E94AB2D4C018201D5CFB7018F
:1056400080E290E00E94B62D2A942814190409F0F3
:10565000B0F7CECFF60137FC859137FE81916F010F
:10566000B70190E00E94B62D51105A94F1E08F1AC4
:105670009108BFCF843619F0893609F077C0F80158
:1056800037FE6BC060817181828193810C5F1F4FF7
:10569000F32DFF763F2E97FF09C09095809570956A
:1056A00061957F4F8F4F9F4F689437F82AE030E025
:1056B000A5010E94E62DC82ECA188C2C432C36FE5C
:1056C0000CC0E89440F8C91440F434FE05C032FC24
:1056D00003C0F32DFE7E4F2E892C44FE95C0FE01A3
:1056E000EC0DF11D8081803309F087C0242D297EC7
:1056F000422E842D8870582E43FC95C040FE8FC0EA
:105700009C2C821418F42C0C922C981844FE91C0F6
:10571000B70180E390E00E94B62D42FE09C088E701
:1057200090E041FE02C088E590E0B7010E94B62DEE
:10573000C91408F48AC0CA94D12C9FEFC91AD90A97
:10574000CA0CDB1CF60182916F01B70190E00E9448
:10575000B62DAC14BD04B1F74FCF60817181072E17
:10576000000C880B990B0E5F1F4F92CFD32CE8943F
:10577000D4F82AE030E0853739F1232D297FD22E65
:105780008F3601F148F48835A9F0F70186819781B9
:105790002B96E2E10C94922F803749F08837A9F7D5
:1057A000D4FE02C06894D2F820E130E00DC06894C5
:1057B000D4F8F6CF34FE03C0822F8660D82E20E1C5
:1057C00032E002C028E030E0F801D7FE0FC060816F
:1057D0007181828193810C5F1F4FA5010E94E62D8C
:1057E000C82ECA183D2CE89437F867CF60817181C4
:1057F00090E080E00E5F1F4FF0CF42FC02C0839428
:1058000078CF8394839475CF842D867809F471CFF3
:10581000F6CFB70180E290E00E94B62D8394821407
:10582000C0F3512C73CF522C5818821408F46ECF49
:10583000F8CF842D867809F47BCF8BE241FE80E29D
:1058400047FC8DE2B70190E071CFB70180E390E0B3
:105850000E94B62D9A946CCF8FEF9FEF99CFB0E056
:10586000A0E0E5E3FCE20C947C2F5C017B01611578
:10587000710519F0DB018D939C9385010F5F1F4F1C
:10588000F501D0818D2F90E00E947F2D6C01892B36
:10589000B9F5DD32B9F50F5F1F4FD5011196DC91D7
:1058A000C1E05801F1E0AF1AB10843E050E06AEC02
:1058B00070E0C5010E94882D892B69F5680182E09E
:1058C000C80ED11C45E050E065EC70E0C6010E94B6
:1058D000882D892B21F4680197E0C90ED11CE114B1
:1058E000F10419F0D701CD92DC9260E070E080E81D
:1058F0009FEFC111FFC060E070E080E89FE7FAC051
:105900005801BBCFDB3229F485010E5F1F4FF50133
:10591000D181C0E0C6CF43E050E062EC70E0C50149
:105920000E94882D892BE9F0F80110E000E020E0CA
:1059300030E0A9015F01B0ED8B2E8D0E89E0881556
:10594000C8F19C2E689491F88C2F8870C2FF16C005
:10595000811102C00F5F1F4F3196D501DC91C92D17
:10596000E9CFE114F10429F00E5F1F4FF701118315
:10597000008360E070E080EC9FE7BCC0882311F0FA
:1059800001501109A5E0B0E00E946B2F9B01AC0112
:10599000220F331F441F551F280D311D411D511D5E
:1059A000283999E93907490799E15907A8F2C660EA
:1059B0009C2ED2CFAEEF8A1206C0C3FD3CC09C2EF7
:1059C000689493F8C9CFDF7DD534A9F580818D32F5
:1059D00039F4C061DF011296818162E070E006C097
:1059E000DF018B32C1F3119661E070E080535D01FD
:1059F000A61AB70A8A30F8F4E0E8CE16ECE0DE0624
:105A00005CF4B601660F771F660F771FC60ED71EB0
:105A1000CC0CDD1CC80ED11C5D01FFEFAF1ABF0A14
:105A20008C9180538A30A8F1C4FF03C0D194C194F3
:105A3000D1080C0D1D1DC1FF09C0E114F10431F0A6
:105A400081E0A81AB108D701AD92BC92CA01B90190
:105A50000E94492EC370C33009F490584B015C0179
:105A600020E030E0A9010E94442E882309F440C0C0
:105A7000C9EFD0E017FF05C0119501951109C1EEDE
:105A8000D0E06E01B8E1CB1AD10880E2E82EF12C0B
:105A90000FC0D501B1CFFE012591359145915491AB
:105AA0000E191F09C501B4010E94AA2E4B015C0109
:105AB000D501C4010E151F0574F72497F594E794DA
:105AC000CC16DD06A9F78A2F880F8B2F881F8F3FF2
:105AD00049F020E030E0A901C501B4010E94442E44
